:020000040800F2
:1000000000500020C515000869130008711300088E
:10001000791300088113000889130008000000000C
:100020000000000000000000000000009113000824
:100030009D13000800000000A9130008B513000874
:100040000D1600080D1600080D1600080D16000804
:100050000D1600080D1600080D1600080D160008F4
:100060000D1600080D1600080D1600080D160008E4
:100070000D1600080D1600080D1600080D160008D4
:100080000D1600080D1600080D1600080D160008C4
:100090000D1600080D1600080D1600080D160008B4
:1000A0000D1600080D1600080D1600080D160008A4
:1000B0000D1600080D1600080D1600080D16000894
:1000C0000D1600080D1600080D1600080D16000884
:1000D0000D160008C11300080D1600080D160008C3
:1000E0000D1600080D1600080D160008000000008F
:1000F0000000000000000000000000000000000000
:0C01000000000000000000005FF808F1A3
:1001100010B5054C237833B9044B13B10448AFF341
:1001200000800123237010BDD401002000000000D6
:10013000307C000808B5034B1BB103490348AFF3FB
:10014000008008BD00000000D8010020307C0008BD
:10015000034613F8012B002AFBD1181A0138704707
:1001600081F0004102E000BF83F0004330B54FEA68
:1001700041044FEA430594EA050F08BF90EA020FD5
:100180001FBF54EA000C55EA020C7FEA645C7FEA68
:10019000655C00F0E2804FEA5454D4EB5555B8BF8B
:1001A0006D420CDD2C4480EA020281EA030382EAFC
:1001B000000083EA010180EA020281EA0303362D8E
:1001C00088BF30BD11F0004F4FEA01314FF4801C61
:1001D0004CEA113102D0404261EB410113F0004F73
:1001E0004FEA03334CEA133302D0524263EB43032A
:1001F00094EA050F00F0A780A4F10104D5F1200EC8
:100200000DDB02FA0EFC22FA05F2801841F1000122
:1002100003FA0EF2801843FA05F359410EE0A5F1F6
:1002200020050EF1200E012A03FA0EFC28BF4CF027
:10023000020C43FA05F3C01851EBE37101F00045DD
:1002400007D54FF0000EDCF1000C7EEB00006EEBEA
:100250000101B1F5801F1BD3B1F5001F0CD3490874
:100260005FEA30004FEA3C0C04F101044FEA4452CB
:1002700012F5800F80F09A80BCF1004F08BF5FEA52
:10028000500C50F1000041EB045141EA050130BD32
:100290005FEA4C0C404141EB0101013C28BFB1F544
:1002A000801FE9D291F0000F04BF01460020B1FA8F
:1002B00081F308BF2033A3F10B03B3F120020CDA62
:1002C0000C3208DD02F1140CC2F10C0201FA0CF040
:1002D00021FA02F10CE002F11402D8BFC2F1200CA5
:1002E00001FA02F120FA0CFCDCBF41EA0C0190405B
:1002F000E41AA2BF01EB0451294330BD6FEA0404A4
:100300001F3C1CDA0C340EDC04F11404C4F120028E
:1003100020FA04F001FA02F340EA030021FA04F3A0
:1003200045EA030130BDC4F10C04C4F1200220FAF7
:1003300002F001FA04F340EA0300294630BD21FA35
:1003400004F0294630BD94F0000F83F4801306BFFB
:1003500081F480110134013D4EE77FEA645C18BFEF
:100360007FEA655C29D094EA050F08BF90EA020F86
:1003700005D054EA000C04BF1946104630BD91EA7E
:10038000030F1EBF0021002030BD5FEA545C05D181
:100390004000494128BF41F0004130BD14F58004C0
:1003A0003CBF01F5801130BD01F0004545F0FE4134
:1003B00041F470014FF0000030BD7FEA645C1ABF69
:1003C000194610467FEA655C1CBF0B46024650EAA0
:1003D000013406BF52EA033591EA030F41F40021CC
:1003E00030BD00BF90F0000F04BF0021704730B552
:1003F0004FF4806404F132044FF000054FF0000127
:1004000050E700BF90F0000F04BF0021704730B5E7
:100410004FF4806404F1320410F0004548BF4042BC
:100420004FF000013EE700BF42004FEAE2014FEA11
:1004300031014FEA02701FBF12F07F4393F07F4FEC
:1004400081F06051704732F07F4208BF704793F0EF
:100450007F4F04BF41F40021704730B54FF4607402
:1004600001F0004521F000411CE700BF50EA010205
:1004700008BF704730B54FF000050AE050EA0102AE
:1004800008BF704730B511F0004502D5404261EB1E
:1004900041014FF4806404F132045FEA915C3FF45F
:1004A000D8AE4FF003025FEADC0C18BF03325FEAFC
:1004B000DC0C18BF033202EBDC02C2F1200300FAAD
:1004C00003FC20FA02F001FA03FE40EA0E0021FAD2
:1004D00002F11444BDE600BF70B54FF0FF0C4CF4C0
:1004E000E06C1CEA11541DBF1CEA135594EA0C0F72
:1004F00095EA0C0F00F0DEF82C4481EA030621EAAD
:100500004C5123EA4C5350EA013518BF52EA0335E7
:1005100041F4801143F4801338D0A0FB02CE4FF099
:100520000005E1FB02E506F00042E0FB03E54FF0C9
:100530000006E1FB03569CF0000F18BF4EF0010EC1
:10054000A4F1FF04B6F5007F64F5407404D25FEABD
:100550004E0E6D4146EB060642EAC62141EA555170
:100560004FEAC52040EA5E504FEACE2EB4F1FD0CB2
:1005700088BFBCF5E06F1ED8BEF1004F08BF5FEA30
:10058000500E50F1000041EB045170BD06F00046E2
:1005900046EA010140EA020081EA0301B4EB5C048F
:1005A000C2BFD4EB0C0541EA045170BD41F4801187
:1005B0004FF0000E013C00F3AB8014F1360FDEBFAC
:1005C000002001F0004170BDC4F10004203C35DA88
:1005D0000C341BDC04F11404C4F1200500FA05F30B
:1005E00020FA04F001FA05F240EA020001F00042AC
:1005F00021F0004110EBD37021FA04F642EB060122
:100600005EEA430E08BF20EAD37070BDC4F10C044B
:10061000C4F1200500FA04F320FA05F001FA04F20F
:1006200040EA020001F0004110EBD37041F10001FB
:100630005EEA430E08BF20EAD37070BDC4F1200506
:1006400000FA05F24EEA020E20FA04F301FA05F26E
:1006500043EA020321FA04F001F0004121FA04F216
:1006600020EA020000EBD3705EEA430E08BF20EAE6
:10067000D37070BD94F0000F0FD101F00046400020
:1006800041EB010111F4801F08BF013CF7D041EAA2
:10069000060195F0000F18BF704703F000465200A6
:1006A00043EB030313F4801F08BF013DF7D043EA77
:1006B0000603704794EA0C0F0CEA135518BF95EA2D
:1006C0000C0F0CD050EA410618BF52EA4306D1D1B4
:1006D00081EA030101F000414FF0000070BD50EAD3
:1006E000410606BF1046194652EA430619D094EA5D
:1006F0000C0F02D150EA013613D195EA0C0F05D147
:1007000052EA03361CBF104619460AD181EA03019A
:1007100001F0004141F0FE4141F470014FF0000052
:1007200070BD41F0FE4141F4780170BD70B54FF0ED
:10073000FF0C4CF4E06C1CEA11541DBF1CEA13556D
:1007400094EA0C0F95EA0C0F00F0A7F8A4EB05044F
:1007500081EA030E52EA03354FEA013100F0888046
:100760004FEA03334FF0805545EA131343EA12630F
:100770004FEA022245EA111545EA10654FEA0026C4
:100780000EF000419D4208BF964244F1FD0404F57D
:10079000407402D25B084FEA3202B61A65EB0305D9
:1007A0005B084FEA32024FF480104FF4002CB6EB96
:1007B000020E75EB030E22BFB61A754640EA0C0016
:1007C0005B084FEA3202B6EB020E75EB030E22BF56
:1007D000B61A754640EA5C005B084FEA3202B6EB97
:1007E000020E75EB030E22BFB61A754640EA9C0056
:1007F0005B084FEA3202B6EB020E75EB030E22BF26
:10080000B61A754640EADC0055EA060E18D04FEAE3
:10081000051545EA16754FEA06164FEAC30343EA83
:1008200052734FEAC2025FEA1C1CC0D111F4801F50
:100830000BD141EA00014FF000004FF0004CB6E749
:1008400011F4801F04BF01430020B4F1FD0C88BFE8
:10085000BCF5E06F3FF6AFAEB5EB030C04BFB6EBF3
:10086000020C5FEA500C50F1000041EB045170BDE6
:100870000EF0004E4EEA113114EB5C04C2BFD4EB13
:100880000C0541EA045170BD41F480114FF0000E97
:10089000013C90E645EA060E8DE60CEA135594EA13
:1008A0000C0F08BF95EA0C0F3FF43BAF94EA0C0F16
:1008B0000AD150EA01347FF434AF95EA0C0F7FF48B
:1008C00025AF104619462CE795EA0C0F06D152EADF
:1008D00003353FF4FDAE1046194622E750EA4106C3
:1008E00018BF52EA43067FF4C5AE50EA41047FF4D4
:1008F0000DAF52EA43057FF4EBAE12E74FF0FF3C39
:1009000006E000BF4FF0010C02E000BF4FF0010C09
:100910004DF804CD4FEA410C7FEA6C5C4FEA430C82
:1009200018BF7FEA6C5C1BD001B050EA410C0CBFD1
:1009300052EA430C91EA030F02BF90EA020F002033
:10094000704710F1000F91EA030F58BF994208BF9A
:1009500090422CBFD8176FEAE37040F00100704757
:100960004FEA410C7FEA6C5C02D150EA013C07D1AE
:100970004FEA430C7FEA6C5CD6D152EA033CD3D0F9
:100980005DF8040B704700BF8446104662468C46F3
:100990001946634600E000BF01B5FFF7B7FF002826
:1009A00048BF10F1000F01BD4DF808EDFFF7F4FF4F
:1009B0000CBF012000205DF808FB00BF4DF808EDDA
:1009C000FFF7EAFF34BF012000205DF808FB00BFFD
:1009D0004DF808EDFFF7E0FF94BF012000205DF81F
:1009E00008FB00BF4DF808EDFFF7CEFF94BF0120D4
:1009F00000205DF808FB00BF4DF808EDFFF7C4FFCD
:100A000034BF012000205DF808FB00BF4FEA410C15
:100A10007FEA6C5C02D150EA013C0AD14FEA430CF8
:100A20007FEA6C5C02D152EA033C02D14FF0000035
:100A300070474FF0010070474FEA410212F5001273
:100A400015D211D56FF47873B3EB625212D94FEA15
:100A5000C12343F0004343EA505311F0004F23FAFF
:100A600002F018BF404270474FF00000704750EA54
:100A7000013005D111F0004008BF6FF00040704711
:100A80004FF00000704700BF4A0011D212F500126B
:100A900011D20DD56FF47873B3EB62520ED44FEAD6
:100AA000C12343F0004343EA505323FA02F0704756
:100AB0004FF00000704750EA013002D14FF0FF3094
:100AC00070474FF0000070474FEA4102B2F1E04337
:100AD00024BFB3F5001CDCF1FE5C0DD901F0004C25
:100AE0004FEAC0024CEA5070B2F1004F40EB830075
:100AF00008BF20F00100704711F0804F21D113F1A1
:100B00003872BCBF01F00040704741F480114FEAD9
:100B10005252C2F11802C2F1200C10FA0CF320FA62
:100B200002F018BF40F001004FEAC1234FEAD3237F
:100B300003FA0CFC40EA0C0023FA02F34FEA4303E9
:100B4000CCE77FEA625307D150EA01331EBF4FF072
:100B5000FE4040F44000704701F0004040F0FE408D
:100B600040F40000704700BF38B50022002304465F
:100B70000D46FFF723FF28B920462946BDE8384037
:100B800000F00AB8204605F1004100F005F84042A7
:100B900061EB410138BD00BFD0B500220B4B0646CA
:100BA0000F46FFF799FCFFF76FFF0446FFF71AFCAB
:100BB0000022074BFFF790FC02460B4630463946B1
:100BC000FFF7D2FAFFF760FF2146D0BD0000F03DED
:100BD0000000F04180B483B000AF78607B685B6850
:100BE0009BB2C3F308039BB218460C37BD4680BCCA
:100BF0007047000090B583B000AF00F039F80346AD
:100C0000FB71184BDB6803F02003002B25D0154B3C
:100C10001B6803F02003002B1FD000BF114B1B6883
:100C200003F02003002BF9D0FC790E48FFF7D2FF28
:100C300003461A460C4B23F81420FB79012202FAD2
:100C400003F35BB2DB435AB2084B1B78DBB25BB2F7
:100C500013405BB2DAB2054B1A7000BF0C37BD46C9
:100C600090BD00BF00380140F4010020F0010020D9
:100C700080B400AF00231846BD4680BC704780B5E5
:100C800086B002AF78600B46FB70FB7823F00F0351
:100C9000FB73FB781B01BB73FB7B43F00C03DBB2E4
:100CA0003B72FB7B43F00803DBB27B72BB7B43F000
:100CB0000C03DBB2BB72BB7B43F00803DBB2FB72FD
:100CC0007B6818687B681B79194607F10802642362
:100CD0000093042301F076F900BF1037BD4680BDB4
:100CE00080B586B002AF78600B46FB70FB7823F0CE
:100CF0000F03FB73FB781B01BB73FB7B43F00D03FE
:100D0000DBB23B72FB7B43F00903DBB27B72BB7B44
:100D100043F00D03DBB2BB72BB7B43F00903DBB2D4
:100D2000FB727B6818687B681B79194607F108021B
:100D300064230093042301F045F900BF1037BD463A
:100D400080BD80B584B000AF786080217868FFF7FF
:100D500096FF0023FB6006E020217868FFF7C0FFC4
:100D6000FB680133FB60FB684F2BF5DD00BF00BF64
:100D70001037BD4680BD000080B586B000AFF8607A
:100D8000B9607A607B68032B24D801A252F823F063
:100D9000A10D0008AB0D0008B50D0008BF0D00083F
:100DA000BB68DBB2803BFB750EE0BB68DBB2403B4F
:100DB000FB7509E0BB68DBB26C3BFB7504E0BB680C
:100DC000DBB22C3BFB7500BFFB7D1946F868FFF7D3
:100DD00056FF00E000BF1837BD4680BD80B582B029
:100DE00000AF7860322000F075FC30217868FFF7A2
:100DF00046FF052000F06EFC30217868FFF73FFFCA
:100E0000012000F067FC30217868FFF738FF0A20E6
:100E100000F060FC20217868FFF731FF0A2000F025
:100E200059FC28217868FFF72AFF012000F052FCC6
:100E300008217868FFF723FF012000F04BFC012117
:100E40007868FFF71CFF022000F044FC0621786858
:100E5000FFF715FF012000F03DFC0C217868FFF73B
:100E60000EFF00BF0837BD4680BD80B582B000AF21
:100E70007860396007E03B685A1C3A601B78194675
:100E80007868FFF72DFF3B681B78002BF3D100BF7C
:100E900000BF0837BD4680BD80B500AF00F0B8FB8D
:100EA00000F080F800F03CF900F0E6F800F0B6F849
:100EB00000F00CF94FF4FA7000F00CFC334B344A9C
:100EC0001A60324B4E221A713048FFF787FF4FF4F9
:100ED000FA7000F0FFFB2D48FFF733FF642000F0AD
:100EE000F9FB002201212948FFF746FF294927483D
:100EF000FFF7BBFF012201212448FFF73DFF2649F0
:100F00002248FFF7B2FF022201212048FFF734FFF9
:100F100022491E48FFF7A9FF032201211B48FFF7C2
:100F20002BFF1F491948FFF7A0FF1848FFF709FFDB
:100F3000642000F0CFFB002201211448FFF71CFFC2
:100F400014491248FFF791FF012201210F48FFF7D2
:100F500013FF11490D48FFF788FF022201210B48BA
:100F6000FFF70AFF0D490948FFF77FFF0322012120
:100F70000648FFF701FF0A490448FFF776FF42F2EF
:100F8000107000F0A7FB00BFCFE700BFD402002025
:100F900000020020487C0008587C0008687C00089B
:100FA000787C000880B590B000AF07F118032822C4
:100FB0000021184603F060FA3B1D00221A605A60B7
:100FC0009A60DA601A610223BB610123BB621023BD
:100FD000FB6200237B6307F11803184601F0ECFA6B
:100FE0000346002B01D000F0D9F80F237B600023CB
:100FF000BB600023FB6000233B6100237B613B1D42
:101000000021184601F05AFD0346002B01D000F0E4
:10101000C5F800BF4037BD4680BD000080B500AFB9
:10102000124B134A1A60114B124A5A600F4B00229E
:101030009A600E4B0022DA600C4B4FF480421A612A
:101040000A4B00225A61094B00229A61074B002289
:10105000DA61064B00221A62044800F07FFE034664
:10106000002B01D000F09AF800BF80BD00020020E4
:1010700000540040A086010080B500AF114B124A19
:101080001A60104B4FF4E1325A600E4B00229A6006
:101090000C4B0022DA600B4B00221A61094B0C2228
:1010A0005A61084B00229A61064B0022DA6105481A
:1010B00001F0E9FE0346002B01D000F06FF800BFFD
:1010C00080BD00BF540200200038014080B500AF51
:1010D000114B124A1A60104B4FF416525A600E4BC5
:1010E00000229A600C4B0022DA600B4B00221A613E
:1010F000094B0C225A61084B00229A61064B0022D0
:10110000DA61054801F072FE0346002B01D000F0C1
:1011100045F800BF80BD00BF94020020004400409D
:1011200080B586B000AF07F1080300221A605A604C
:101130009A60DA60174B9B69164A43F00403936187
:10114000144B9B6903F004037B607B68114B9B6924
:10115000104A43F0080393610E4B9B6903F00803A8
:101160003B603B68002204210B4800F0DFFD0423B4
:10117000BB600123FB6000233B6102237B6107F11D
:1011800008031946044800F04DFC00BF1837BD465F
:1011900080BD00BF00100240000C014080B400AFD1
:1011A00072B600BF00BFFDE780B483B000AF0E4B46
:1011B0009B690D4A43F0010393610B4B9B6903F05C
:1011C00001037B607B68084BDB69074A43F080536F
:1011D000D361054BDB6903F080533B603B6800BF84
:1011E0000C37BD4680BC70470010024080B588B007
:1011F00000AF786007F1100300221A605A609A600D
:10120000DA607B681B68154A934223D1144B9B69B3
:10121000134A43F008039361114B9B6903F00803E1
:10122000FB60FB68C0233B6112237B610323FB61EE
:1012300007F1100319460B4800F0F4FB084BDB697B
:10124000074A43F40013D361054BDB6903F4001331
:10125000BB60BB6800BF2037BD4680BD0054004066
:1012600000100240000C014080B58AB000AF7860E9
:1012700007F1180300221A605A609A60DA607B68EE
:101280001B68354A93422DD1344B9B69334A43F452
:1012900080439361314B9B6903F480437B617B699D
:1012A0002E4B9B692D4A43F0040393612B4B9B69A2
:1012B00003F004033B613B694FF40073BB611223ED
:1012C000FB6103237B6207F118031946244800F0F1
:1012D000A9FB00220021252000F0F7FA252000F0CC
:1012E00010FB34E07B681B681E4A93422FD11B4BD6
:1012F000DB691A4A43F40033D361184BDB6903F40A
:101300000033FB60FB68154B9B69144A43F00403F0
:101310009361124B9B6903F00403BB60BB68042319
:10132000BB610223FB6103237B6207F118031946AB
:101330000B4800F077FB0823BB610023FB6100230F
:101340003B6207F118031946054800F06BFB00BF2C
:101350002837BD4680BD00BF003801400010024064
:10136000000801400044004080B400AF00BFFDE72A
:1013700080B400AF00BFFDE780B400AF00BFFDE761
:1013800080B400AF00BFFDE780B400AF00BFFDE751
:1013900080B400AF00BFBD4680BC704780B400AFD2
:1013A00000BFBD4680BC704780B400AF00BFBD46E3
:1013B00080BC704780B500AF00F070F900BF80BD01
:1013C00080B500AFFFF716FC024801F0B1FD00BF89
:1013D00080BD00BF5402002080B400AF0123184636
:1013E000BD4680BC704780B582B000AF7860396080
:1013F00003F094F8034616221A604FF0FF331846A4
:101400000837BD4680BD80B582B000AF78604FF030
:10141000FF317868FFF7E7FF00BFFDE780B586B0D2
:1014200000AFF860B9607A6000237B610AE0AFF337
:1014300000800146BB685A1CBA60CAB21A707B6948
:1014400001337B617A697B689A42F0DB7B681846DE
:101450001837BD4680BD80B586B000AFF860B96072
:101460007A6000237B6109E0BB685A1CBA601B7874
:101470001846AFF300807B6901337B617A697B6832
:101480009A42F1DB7B6818461837BD4680BD80B4B0
:1014900083B000AF78604FF0FF3318460C37BD467D
:1014A00080BC704780B483B000AF786039603B681F
:1014B0004FF400525A60002318460C37BD4680BCDA
:1014C000704780B483B000AF7860012318460C37B2
:1014D000BD4680BC704780B485B000AFF860B9608D
:1014E0007A60002318461437BD4680BC7047000060
:1014F00080B586B000AF7860144A154BD31A7B6173
:101500007B693B61134B1B68002B02D1114B124AC4
:101510001A60104B1A687B6813443A699A4207D2E2
:1015200002F0FCFF03460C221A604FF0FF3309E083
:10153000084B1B68FB60074B1A687B681344054A1D
:101540001360FB6818461837BD4680BD0050002068
:1015500000040000DC0200203004002080B400AF52
:10156000154B1B68144A43F001031360124B5A6871
:101570001149124B13404B600F4B1B680E4A23F06E
:10158000847323F4803313600B4B1B680A4A23F4E3
:1015900080231360084B5B68074A23F4FE03536003
:1015A000054B4FF41F029A60054B4FF000629A60A2
:1015B00000BFBD4680BC7047001002400000FFF82D
:1015C00000ED00E0002103E00B4B5B584350043179
:1015D0000A480B4B42189A42F6D30A4A02E000230B
:1015E00042F8043B084B9A42F9D3FFF7B7FF02F0E9
:1015F0009BFFFFF751FC7047EC80000800000020C3
:10160000D4010020D401002030040020FEE70000B7
:1016100080B500AF084B1B68074A43F01003136006
:10162000032000F047F90F2000F008F8FFF7BCFD99
:101630000023184680BD00BF0020024080B582B064
:1016400000AF7860124B1A68124B1B7819464FF4A2
:101650007A73B3FBF1F3B2FBF3F3184600F05FF9D2
:101660000346002B01D001230EE07B680F2B0AD824
:10167000002279684FF0FF3000F027F9064A7B68B6
:101680001360002300E0012318460837BD4680BDE3
:1016900000000020080000200400002080B400AFFB
:1016A000054B1B781A46054B1B681344034A13600D
:1016B00000BFBD4680BC704708000020E00200204B
:1016C00080B400AF024B1B681846BD4680BC704713
:1016D000E002002080B584B000AF7860FFF7F0FF33
:1016E000B8607B68FB60FB68B3F1FF3F05D00A4B35
:1016F0001B781A46FB681344FB6000BFFFF7E0FF4E
:101700000246BB68D31AFA689A42F7D800BF00BFF6
:101710001037BD4680BD00BF0800002080B485B0F2
:1017200000AF78607B6803F00703FB600C4BDB685D
:10173000BB60BA684FF6FF031340BB60FB681A0238
:10174000BB68134343F0BF6343F40033BB60044AF8
:10175000BB68D36000BF1437BD4680BC704700BF74
:1017600000ED00E080B400AF044BDB681B0A03F01F
:1017700007031846BD4680BC704700BF00ED00E07F
:1017800080B483B000AF0346FB7197F90730002B9C
:101790000BDBFB7903F01F02064997F907305B0961
:1017A000012000FA02F241F8232000BF0C37BD46A9
:1017B00080BC704700E100E080B483B000AF034616
:1017C0003960FB7197F90730002B0ADB3B68DAB20E
:1017D0000C4997F907301201D2B20B4483F8002369
:1017E0000AE03B68DAB20849FB7903F00F03043BD7
:1017F0001201D2B20B441A7600BF0C37BD4680BC32
:10180000704700BF00E100E000ED00E080B489B067
:1018100000AFF860B9607A60FB6803F00703FB6112
:10182000FB69C3F10703042B28BF0423BB61FB69D9
:101830000433062B02D9FB69033B00E000237B61E4
:101840004FF0FF32BB6902FA03F3DA43BB681A4078
:101850007B699A404FF0FF317B6901FA03F3D9436A
:101860007B680B40134318462437BD4680BC704745
:1018700080B582B000AF78607B68013BB3F1807FB8
:1018800001D301230FE00A4A7B68013B53600F211B
:101890004FF0FF30FFF790FF054B00229A60044B9A
:1018A00007221A60002318460837BD4680BD00BFD6
:1018B00010E000E080B582B000AF78607868FFF794
:1018C0002DFF00BF0837BD4680BD80B586B000AF94
:1018D0000346B9607A60FB7300237B61FFF742FF28
:1018E00078617A68B9687869FFF790FF024697F9DE
:1018F0000F3011461846FFF75FFF00BF1837BD468F
:1019000080BD80B582B000AF0346FB7197F9073008
:101910001846FFF735FF00BF0837BD4680BD80B5CC
:1019200082B000AF78607868FFF7A2FF03461846E0
:101930000837BD4680BD000080B584B000AF786038
:101940000023FB737B6893F82130022B05D07B6862
:1019500004229A630123FB7351E07B681B681A68B9
:101960007B681B6822F00E021A607B681B681A688D
:101970007B681B6822F001021A607B681B68224AA0
:10198000934229D07B681B68204A934222D07B680F
:101990001B681F4A93421AD07B681B681D4A9342FA
:1019A00012D07B681B681C4A93420AD07B681B6874
:1019B0001A4A934202D14FF480130EE04FF0807325
:1019C0000BE04FF4803308E04FF4805305E04FF410
:1019D000807302E0102300E00123114A53607B680A
:1019E000012283F821207B68002283F820207B6875
:1019F0005B6B002B03D07B685B6B78689847FB7B45
:101A000018461037BD4680BD080002401C00024049
:101A10003000024044000240580002406C00024086
:101A20000000024080B48BB000AF786039600023C2
:101A30007B6200233B6269E101227B6A02FA03F3C5
:101A4000FB613B681B68FA691340BB61BA69FB69BB
:101A50009A4240F058813B685B689A4A93425ED054
:101A6000984A934275D8984A934258D0964A9342DE
:101A70006FD8964A934252D0944A934269D8944A76
:101A800093424CD0924A934263D8924A934246D0B2
:101A9000904A93425DD8122B2AD8122B59D801A212
:101AA00052F823F01F1B0008F91A00080B1B00084E
:101AB0004D1B0008531B0008531B0008531B000854
:101AC000531B0008531B0008531B0008531B00083E
:101AD000531B0008531B0008531B0008531B00082E
:101AE000531B0008531B0008011B0008151B0008AE
:101AF000794A934213D02CE03B68DB683B6229E0D3
:101B00003B68DB6804333B6224E03B68DB680833F6
:101B10003B621FE03B68DB680C333B621AE03B68CA
:101B20009B68002B02D104233B6213E03B689B6857
:101B3000012B05D108233B627B68FA691A6109E031
:101B400008233B627B68FA695A6103E000233B6229
:101B500000E000BFBB69FF2B01D87B6801E07B6818
:101B600004337B61BB69FF2B02D87B6A9B0002E0D8
:101B70007B6A083B9B003B617B691A680F213B69CC
:101B800001FA03F3DB431A40396A3B6901FA03F3B4
:101B90001A437B691A603B685B6803F08053002B33
:101BA00000F0B1804D4B9B694C4A43F001039361B7
:101BB0004A4B9B6903F00103BB60BB68484A7B6AE0
:101BC0009B08023352F82330FB607B6A03F0030367
:101BD0009B000F2202FA03F3DB43FA681340FB6019
:101BE0007B68404A934213D07B683F4A93420DD0B2
:101BF0007B683E4A934207D07B683D4A934201D1BD
:101C0000032306E0042304E0022302E0012300E0B2
:101C100000237A6A02F0030292009340FA681343A9
:101C2000FB602F497B6A9B080233FA6841F8232046
:101C30003B685B6803F48033002B06D02D4B1A6899
:101C40002C49BB6913430B6006E02A4B1A68BB6939
:101C5000DB43284913400B603B685B6803F40033A7
:101C6000002B06D0234B5A682249BB6913434B60B3
:101C700006E0204B5A68BB69DB431E4913404B60AA
:101C80003B685B6803F48013002B06D0194B9A68FD
:101C90001849BB6913438B6006E0164B9A68BB6911
:101CA000DB43144913408B603B685B6803F400130B
:101CB000002B21D00F4BDA680E49BB691343CB6070
:101CC00021E000BF0000321000003110000022109F
:101CD000000021100000121000001110001002403E
:101CE0000000014000080140000C014000100140CC
:101CF00000140140000401400B4BDA68BB69DB4370
:101D000009491340CB607B6A01337B623B681A68E8
:101D10007B6A22FA03F3002B7FF48EAE00BF00BF74
:101D20002C37BD4680BC70470004014080B483B0AE
:101D300000AF78600B467B8013467B707B78002B6E
:101D400003D07A887B681A6103E07B881A047B6879
:101D50001A6100BF0C37BD4680BC704780B584B0A7
:101D600000AF78607B68002B01D101231BE17B6809
:101D700093F83D30DBB2002B06D17B68002283F85C
:101D80003C207868FFF732FA7B68242283F83D20F4
:101D90007B681B681A687B681B6822F001021A6066
:101DA00000F0DEFFF8607B685B68814A934207D8E9
:101DB000FB68804A934294BF01230023DBB206E014
:101DC000FB687D4A934294BF01230023DBB2002BC2
:101DD00001D00123E7E0FB68784AA2FB03239B0CB8
:101DE000BB607B681B685B6823F03F017B681B68F6
:101DF000BA680A435A607B681B681B6A23F03F017C
:101E00007B685B686A4A934202D8BB68013309E089
:101E1000BB684FF4967202FB03F3694AA2FB0323EB
:101E20009B0901337A6812680B4313627B681B6855
:101E3000DB6923F44F4222F0FF027B685B685C4958
:101E40008B4219D8FB68591E7B685B685B00B1FB4D
:101E5000F3F3591C40F6FC730B40002B0AD0FB68CF
:101E6000591E7B685B685B00B1FBF3F30133C3F37E
:101E70000B0351E004234FE07B689B68002B11D1DA
:101E8000FB68581E7B6859680B465B000B44B0FB2F
:101E9000F3F30133C3F30B03002B0CBF0123002327
:101EA000DBB212E0FB68581E7B6859680B469B004A
:101EB0000B4499000B44B0FBF3F30133C3F30B0362
:101EC000002B0CBF01230023DBB2002B01D0012328
:101ED00022E07B689B68002B0ED1FB68581E7B6854
:101EE00059680B465B000B44B0FBF3F30133C3F3BB
:101EF0000B0343F400430FE0FB68581E7B685968EE
:101F00000B469B000B4499000B44B0FBF3F30133E9
:101F1000C3F30B0343F44043796809681343CB616F
:101F20007B681B681B6823F0C0017B68DA697B68EB
:101F30001B6A1A437B681B680A431A607B681B682C
:101F40009B6823F4034323F0FF037A6811697A68DE
:101F5000D26811437A6812680B4393607B681B68F0
:101F6000DB6823F0FF017B685A697B689B691A4331
:101F70007B681B680A43DA607B681B681A687B68A9
:101F80001B6842F001021A607B6800221A647B68B9
:101F9000202283F83D207B6800221A637B680022A0
:101FA00083F83E20002318461037BD4680BD00BF91
:101FB000A08601007F841E00FF083D0083DE1B43D6
:101FC000D34D621080B588B002AFF8607A601A46CF
:101FD0000B467B8113463B81FFF772FB7861FB6800
:101FE00093F83D30DBB2202B40F0E0807B6900931A
:101FF000192301227049F86800F058F90346002BB4
:1020000001D00223D3E0FB6893F83C30012B01D1CF
:102010000223CCE0FB68012283F83C20FB681B68AC
:102020001B6803F00103012B07D0FB681B681A68CB
:10203000FB681B6842F001021A60FB681B681A68A3
:10204000FB681B6822F400621A60FB68212283F897
:102050003D20FB68102283F83E20FB6800221A64B2
:10206000FB687A685A62FB683A895A85FB685B8D1F
:102070009AB2FB681A85FB68504ADA6279897B69F3
:102080003A6AF86800F09CF80346002B01D001235F
:102090008DE000233B61FB681B685B693B61FB686B
:1020A0001B689B693B613B6966E07A69396AF8683D
:1020B00000F0D2F90346002B0DD0FB681B6C042BFB
:1020C00007D1FB681B681A68FB681B6842F4007242
:1020D0001A6001236BE0FB685B6A1A78FB681B6877
:1020E0001A61FB685B6A5A1CFB685A62FB685B8D6D
:1020F0009BB2013B9AB2FB685A85FB681B8D013B82
:102100009AB2FB681A85FB681B685B6903F00403DD
:10211000042B1BD1FB681B8D002B17D0FB685B6A5F
:102120001A78FB681B681A61FB685B6A5A1CFB68BB
:102130005A62FB685B8D9BB2013B9AB2FB685A8581
:10214000FB681B8D013B9AB2FB681A857A69396A74
:10215000F86800F0C2F90346002B0DD0FB681B6C39
:10216000042B07D1FB681B681A68FB681B6842F4E4
:1021700000721A6001231AE0FB681B8D002B94D1BA
:10218000FB681B681A68FB681B6842F400721A60DF
:10219000FB68202283F83D20FB68002283F83E2064
:1021A000FB68002283F83C20002300E0022318464D
:1021B0001837BD4680BD00BF020010000000FFFFC1
:1021C00080B588B002AFF8607A603B600B467B81D7
:1021D000FB68DB6A7B617B69082B06D07B69012B7E
:1021E00003D07B6913F5803F08D1FB681B681A6830
:1021F000FB681B6842F480721A600BE0FB681B6B83
:10220000122B07D1FB681B681A68FB681B6842F435
:1022100080721A603B6800937B6800224FF00111C6
:10222000F86800F043F80346002B01D0012335E0A5
:10223000FB681B69B3F5804F08D17B89DBB21A4676
:10224000FB681B6802F0FE021A611BE07B89DB1150
:10225000DBB203F00603DBB263F00F03DAB2FB6814
:102260001B681A613B687A680E49F86800F075F8D7
:102270000346002B01D0012310E07B89DAB2FB6812
:102280001B681A613B687A680749F86800F065F8CE
:102290000346002B01D0012300E000231846183725
:1022A000BD4680BD080001000200010080B584B079
:1022B00000AFF860B9603B601346FB7125E03B68F6
:1022C000B3F1FF3F21D0FFF7FBF90246BB69D31AF8
:1022D0003A689A4202D33B68002B16D1FB68002271
:1022E0001A63FB68202283F83D20FB68002283F8F4
:1022F0003E20FB681B6C43F02002FB681A64FB68FD
:10230000002283F83C20012323E0BB681B0CDBB2D6
:10231000012B0DD1FB681B685B69DA43BB68134076
:102320009BB2002B0CBF01230023DBB21A460CE04A
:10233000FB681B689B69DA43BB6813409BB2002BA8
:102340000CBF01230023DBB21A46FB799A42B6D0B8
:10235000002318461037BD4680BD80B584B000AF5D
:10236000F860B9607A603B6051E0FB681B685B69AC
:1023700003F48063B3F5806F23D1FB681B681A6890
:10238000FB681B6842F400721A60FB681B686FF4FC
:1023900080625A61FB6800221A63FB68202283F87E
:1023A0003D20FB68002283F83E20FB681B6C43F055
:1023B0000402FB681A64FB68002283F83C200123B6
:1023C00046E07B68B3F1FF3F21D0FFF779F9024681
:1023D0003B68D31A7A689A4202D37B68002B16D1E5
:1023E000FB6800221A63FB68202283F83D20FB680B
:1023F000002283F83E20FB681B6C43F02002FB6840
:102400001A64FB68002283F83C20012320E0BB68AB
:102410001B0CDBB2012B0CD1FB681B685B69DA4338
:10242000BB6813409BB2002B14BF01230023DBB217
:102430000BE0FB681B689B69DA43BB6813409BB2E7
:10244000002B14BF01230023DBB2002B8DD100230E
:1024500018461037BD4680BD80B584B000AFF86027
:10246000B9607A602DE0F86800F078F80346002B38
:1024700001D001232DE0BB68B3F1FF3F21D0FFF76E
:102480001FF902467B68D31ABA689A4202D3BB6826
:10249000002B16D1FB6800221A63FB68202283F808
:1024A0003D20FB68002283F83E20FB681B6C43F054
:1024B0002002FB681A64FB68002283F83C20012399
:1024C00007E0FB681B685B6903F08003802BCAD1BF
:1024D000002318461037BD4680BD80B584B000AFDC
:1024E000F860B9607A602DE0F86800F037F80346CC
:1024F000002B01D001232DE0BB68B3F1FF3F21D0B9
:10250000FFF7DEF802467B68D31ABA689A4202D314
:10251000BB68002B16D1FB6800221A63FB682022DF
:1025200083F83D20FB68002283F83E20FB681B6C8B
:1025300043F02002FB681A64FB68002283F83C2009
:10254000012307E0FB681B685B6903F00403042BAD
:10255000CAD1002318461037BD4680BD80B483B071
:1025600000AF78607B681B685B6903F48063B3F538
:10257000806F1BD17B681B686FF480625A617B6837
:1025800000221A637B68202283F83D207B680022AA
:1025900083F83E207B681B6C43F004027B681A645E
:1025A0007B68002283F83C20012300E000231846CA
:1025B0000C37BD4680BC704780B586B000AF7860F0
:1025C0007B68002B01D1012372E27B681B6803F05A
:1025D0000103002B00F08780924B5B6803F00C0333
:1025E000042B0CD08F4B5B6803F00C03082B12D12B
:1025F0008C4B5B6803F48033B3F5803F0BD1894B80
:102600001B6803F40033002B6CD07B685B68002BE5
:1026100068D101234CE27B685B68B3F5803F06D14B
:10262000804B1B687F4A43F4803313602EE07B6845
:102630005B68002B0CD17B4B1B687A4A23F48033F8
:102640001360784B1B68774A23F4802313601DE0E6
:102650007B685B68B3F5A02F0CD1724B1B68714A85
:1026600043F4802313606F4B1B686E4A43F480333E
:1026700013600BE06B4B1B686A4A23F480331360D2
:10268000684B1B68674A23F4802313607B685B6890
:10269000002B13D0FFF714F8386108E0FFF710F8AB
:1026A00002463B69D31A642B01D9032300E25D4B38
:1026B0001B6803F40033002BF0D014E0FFF700F8A0
:1026C000386108E0FEF7FCFF02463B69D31A642B31
:1026D00001D90323ECE1534B1B6803F40033002BB7
:1026E000F0D100E000BF7B681B6803F00203002B01
:1026F00063D04C4B5B6803F00C03002B0BD0494BB1
:102700005B6803F00C03082B1CD1464B5B6803F499
:102710008033002B16D1434B1B6803F00203002BC0
:1027200005D07B681B69012B01D00123C0E13D4B23
:102730001B6823F0F8027B685B69DB0039491343AF
:102740000B603AE07B681B69002B20D0364B0122DE
:102750001A60FEF7B5FF386108E0FEF7B1FF0246E8
:102760003B69D31A022B01D90323A1E12D4B1B682E
:1027700003F00203002BF0D02A4B1B6823F0F80271
:102780007B685B69DB00274913430B6015E0264B30
:1027900000221A60FEF794FF386108E0FEF790FF10
:1027A00002463B69D31A022B01D9032380E11D4B5A
:1027B0001B6803F00203002BF0D17B681B6803F059
:1027C0000803002B3AD07B689B69002B19D0174B6C
:1027D00001221A60FEF774FF386108E0FEF770FF0F
:1027E00002463B69D31A022B01D9032360E10D4B4A
:1027F0005B6A03F00203002BF0D0012000F0D8FA4E
:102800001CE00A4B00221A60FEF75AFF38610FE005
:10281000FEF756FF02463B69D31A022B08D9032361
:1028200046E100BF001002400000424280044242E4
:10283000924B5B6A03F00203002BE9D17B681B68B3
:1028400003F00403002B00F0A6800023FB758B4BE4
:10285000DB6903F08053002B0DD1884BDB69874A7D
:1028600043F08053D361854BDB6903F08053BB6039
:10287000BB680123FB75824B1B6803F48073002B3C
:1028800018D17F4B1B687E4A43F480731360FEF7B8
:1028900017FF386108E0FEF713FF02463B69D31AC1
:1028A000642B01D9032303E1754B1B6803F4807388
:1028B000002BF0D07B68DB68012B06D16F4B1B6AC5
:1028C0006E4A43F0010313622DE07B68DB68002B46
:1028D0000CD16A4B1B6A694A23F001031362674BF0
:1028E0001B6A664A23F0040313621CE07B68DB6802
:1028F000052B0CD1614B1B6A604A43F00403136241
:102900005E4B1B6A5D4A43F0010313620BE05B4BB5
:102910001B6A5A4A23F001031362584B1B6A574A39
:1029200023F0040313627B68DB68002B15D0FEF7ED
:10293000C7FE38610AE0FEF7C3FE02463B69D31AC0
:1029400041F28832934201D90323B1E04B4B1B6A19
:1029500003F00203002BEED014E0FEF7B1FE386165
:102960000AE0FEF7ADFE02463B69D31A41F2883217
:10297000934201D903239BE0404B1B6A03F00203FF
:10298000002BEED1FB7D012B05D13C4BDB693B4A93
:1029900023F08053D3617B68DB69002B00F08780D4
:1029A000364B5B6803F00C03082B61D07B68DB6956
:1029B000022B46D1334B00221A60FEF781FE3861AC
:1029C00008E0FEF77DFE02463B69D31A022B01D9CF
:1029D00003236DE0294B1B6803F00073002BF0D13B
:1029E0007B681B6AB3F5803F08D1244B5B6823F4F6
:1029F00000327B689B68214913434B601F4B5B6827
:102A000023F474127B68196A7B685B6A0B431B4969
:102A100013434B601B4B01221A60FEF751FE3861D5
:102A200008E0FEF74DFE02463B69D31A022B01D99E
:102A300003233DE0114B1B6803F00073002BF0D023
:102A400035E0104B00221A60FEF73AFE386108E0CC
:102A5000FEF736FE02463B69D31A022B01D9032347
:102A600026E0064B1B6803F00073002BF0D11EE03C
:102A70007B68DB69012B07D1012319E000100240BC
:102A800000700040600042420B4B5B68FB60FB68DB
:102A900003F480327B681B6A9A4206D1FB6803F418
:102AA00070127B685B6A9A4201D0012300E0002328
:102AB00018461837BD4680BD0010024080B584B06E
:102AC00000AF786039607B68002B01D10123D0E032
:102AD0006A4B1B6803F007033A689A4210D9674BA8
:102AE0001B6823F0070265493B6813430B60634B87
:102AF0001B6803F007033A689A4201D00123B8E04B
:102B00007B681B6803F00203002B20D07B681B68E6
:102B100003F00403002B05D0594B5B68584A43F47B
:102B2000E06353607B681B6803F00803002B05D04B
:102B3000534B5B68524A43F460535360504B5B689D
:102B400023F0F0027B689B684D4913434B607B6820
:102B50001B6803F00103002B40D07B685B68012BEE
:102B600007D1474B1B6803F40033002B15D1012319
:102B70007FE07B685B68022B07D1414B1B6803F049
:102B80000073002B09D1012373E03D4B1B6803F058
:102B90000203002B01D101236BE0394B5B6823F06A
:102BA00003027B685B68364913434B60FEF788FD80
:102BB000F8600AE0FEF784FD0246FB68D31A41F292
:102BC0008832934201D9032353E02D4B5B6803F015
:102BD0000C027B685B689B009A42EBD1274B1B6819
:102BE00003F007033A689A4210D2244B1B6823F083
:102BF000070222493B6813430B60204B1B6803F01C
:102C000007033A689A4201D0012332E07B681B68CF
:102C100003F00403002B08D0194B5B6823F4E06237
:102C20007B68DB68164913434B607B681B6803F0C5
:102C30000803002B09D0124B5B6823F460527B68B9
:102C40001B69DB000E4913434B6000F021F802467C
:102C50000B4B5B681B0903F00F030A49CB5C22FA9C
:102C600003F3094A1360094B1B681846FEF7E6FC9C
:102C7000002318461037BD4680BD00BF002002402B
:102C800000100240987C0008000000200400002092
:102C900090B48AB000AF294B3C1D0FCB84E80F00E5
:102CA00040F201233B800023FB610023BB61002332
:102CB0007B6200237B6100233B62214B5B68FB61ED
:102CC000FB6903F00C03042B02D0082B03D02BE08C
:102CD0001C4B3B622BE0FB699B0C03F00F0328337A
:102CE0003B4413F8243C7B61FB6903F48033002BE5
:102CF00012D0134B5B685B0C03F0010328333B4499
:102D000013F8283CBB617B690E4A03FB02F2BB69E6
:102D1000B2FBF3F37B6204E07B690B4A02FB03F333
:102D20007B627B6A3B6202E0064B3B6200BF3B6A10
:102D300018462837BD4690BC704700BF887C000805
:102D40000010024000127A0000093D0080B400AF7C
:102D5000024B1B681846BD4680BC7047000000202F
:102D600080B500AFFFF7F2FF0246054B5B681B0A18
:102D700003F007030349CB5C22FA03F3184680BD36
:102D800000100240A87C000880B500AFFFF7DEFF0E
:102D90000246054B5B68DB0A03F007030349CB5C83
:102DA00022FA03F3184680BD00100240A87C0008F8
:102DB00080B485B000AF78600A4B1B680A4AA2FB5A
:102DC00003235B0A7A6802FB03F3FB6000BFFB6826
:102DD0005A1EFA60002BF9D100BF00BF1437BD4660
:102DE00080BC704700000020D34D621080B582B0D7
:102DF00000AF78607B68002B01D101233FE07B6846
:102E000093F83930DBB2002B06D17B68002283F8BF
:102E100038207868FEF728FA7B68242283F8392066
:102E20007B681B68DA687B681B6822F40052DA60F2
:102E3000786800F0B1FA7B681B681A697B681B68C8
:102E400022F490421A617B681B685A697B681B6890
:102E500022F02A025A617B681B68DA687B681B686B
:102E600042F40052DA607B680022DA637B68202239
:102E700083F839207B68202283F83A200023184603
:102E80000837BD4680BD80B582B000AF78607B68F2
:102E9000002B01D1012347E07B6893F83930DBB286
:102EA000002B06D17B68002283F838207868FEF773
:102EB000DBF97B68242283F839207B681B68DA6899
:102EC0007B681B6822F40052DA60786800F064FACC
:102ED0007B681B681A697B681B6822F490421A6140
:102EE0007B681B685A697B681B6822F022025A6162
:102EF0007B681B685A697B681B6842F008025A614C
:102F00007B681B68DA687B681B6842F40052DA60F1
:102F10007B680022DA637B68202283F839207B6893
:102F2000202283F83A20002318460837BD4680BD8A
:102F300080B588B000AF78607B681B681B68FB6158
:102F40007B681B68DB68BB617B681B685B697B61B6
:102F500000233B610023FB60FB6903F00F033B612F
:102F60003B69002B0DD1FB6903F02003002B08D037
:102F7000BB6903F02003002B03D0786800F08BF9C5
:102F8000CBE03B69002B00F0AB807B6903F00103D1
:102F9000002B05D1BB6903F49073002B00F0A080D7
:102FA000FB6903F00103002B0AD0BB6903F48073B3
:102FB000002B05D07B68DB6B43F001027B68DA6392
:102FC000FB6903F00403002B0AD07B6903F00103C3
:102FD000002B05D07B68DB6B43F002027B68DA6371
:102FE000FB6903F00203002B0AD07B6903F00103A5
:102FF000002B05D07B68DB6B43F004027B68DA634F
:10300000FB6903F00803002B0AD07B6903F001037E
:10301000002B05D07B68DB6B43F008027B68DA632A
:103020007B68DB6B002B77D0FB6903F02003002B60
:1030300007D0BB6903F02003002B02D0786800F0B2
:103040002AF97B681B685B6903F04003002B14BFFF
:1030500001230023DBB2FB607B68DB6B03F008031A
:10306000002B02D1FB68002B31D0786800F075F896
:103070007B681B685B6903F04003002B23D07B68EF
:103080001B685A697B681B6822F040025A617B68A2
:103090005B6B002B13D07B685B6B214A5A637B68A8
:1030A0005B6B1846FEF748FC0346002B16D07B6886
:1030B0005B6B5B6B7A68526B104698470EE07868E2
:1030C00000F042F80AE0786800F03EF806E0786820
:1030D00000F03AF87B680022DA631DE000BF1BE0D5
:1030E000FB6903F08003002B08D0BB6903F0800369
:1030F000002B03D0786800F061F80EE0FB6903F064
:103100004003002B09D0BB6903F04003002B04D01F
:10311000786800F0A8F800E000BF2037BD4680BD09
:103120009531000880B483B000AF786000BF0C37E1
:10313000BD4680BC704780B483B000AF786000BFEC
:103140000C37BD4680BC704780B483B000AF786058
:1031500000BF0C37BD4680BC704780B483B000AF61
:1031600078607B681B68DA687B681B6822F4907261
:10317000DA607B681B685A697B681B6822F0010271
:103180005A617B68202283F83A2000BF0C37BD4685
:1031900080BC704780B584B000AF78607B685B6AA4
:1031A000FB60FB680022DA85FB680022DA84F8689D
:1031B000FFF7CAFF00BF1037BD4680BD80B485B0A1
:1031C00000AF78607B6893F83930DBB2212B44D1B3
:1031D0007B689B68B3F5805F1AD17B681B6AFB60D4
:1031E000FB681B881A467B681B68C2F308025A609A
:1031F0007B681B69002B05D17B681B6A9A1C7B6866
:103200001A620EE07B681B6A5A1C7B681A6208E02F
:103210007B681B6A591C7A6811621A787B681B6884
:103220005A607B68DB8C9BB2013B9BB27A68194683
:10323000D184002B0FD17B681B68DA687B681B6820
:1032400022F08002DA607B681B68DA687B681B68A2
:1032500042F04002DA60002300E0022318461437EF
:10326000BD4680BC704780B582B000AF78607B6897
:103270001B68DA687B681B6822F04002DA607B68B2
:10328000202283F839207868FFF74CFF0023184686
:103290000837BD4680BD80B584B000AF78607B68DC
:1032A00093F83A30DBB2222B71D17B689B68B3F57F
:1032B000805F23D17B689B6AFB607B681B69002B66
:1032C0000ED17B681B685B689BB2C3F308039AB29C
:1032D000FB681A807B689B6A9A1C7B689A6229E06B
:1032E0007B681B685B689BB2DBB29AB2FB681A8092
:1032F0007B689B6A5A1C7B689A621BE07B681B692F
:10330000002B0AD17B681B6858687B689B6A591C34
:103310007A689162C2B21A700CE07B681B685B68C5
:10332000DAB27B689B6A581C7968886202F07F0277
:10333000D2B21A707B68DB8D9BB2013B9BB27A687C
:103340001946D185002B20D17B681B68DA687B6821
:103350001B6822F02002DA607B681B68DA687B68F1
:103360001B6822F48072DA607B681B685A697B688C
:103370001B6822F001025A617B68202283F83A2000
:103380007868FFF7D8FE002302E0002300E0022364
:1033900018461037BD4680BD80B584B000AF786058
:1033A0007B681B681B6923F440517B68DA687B6883
:1033B0001B680A431A617B689A687B681B691A4319
:1033C0007B685B691343FB607B681B68DB6823F4E5
:1033D000B05323F00C037A681268F9680B43D3608A
:1033E0007B681B685B6923F440717B689A697B6822
:1033F0001B680A435A617B681B68524A93424ED14C
:10340000FFF7C2FCB860BA6813469B0013449A00E9
:103410001A447B685B689B00B2FBF3F34A4AA2FB49
:1034200003235B091901BA6813469B0013449A00F1
:103430001A447B685B689B00B2FBF3F2424BA3FB30
:1034400002035B09642000FB03F3D31A1B01323330
:103450003D4AA2FB03235B0903F0F0031944BA6859
:1034600013469B0013449A001A447B685B689B00D8
:10347000B2FBF3F2344BA3FB02035B09642000FBB5
:1034800003F3D31A1B0132332F4AA2FB03235B0938
:1034900003F00F027B681B680A449A604DE0FFF757
:1034A0005FFCB860BA6813469B0013449A001A4444
:1034B0007B685B689B00B2FBF3F3234AA2FB032308
:1034C0005B091901BA6813469B0013449A001A4419
:1034D0007B685B689B00B2FBF3F21B4BA3FB020310
:1034E0005B09642000FB03F3D31A1B013233164A35
:1034F000A2FB03235B0903F0F0031944BA681346E7
:103500009B0013449A001A447B685B689B00B2FBE3
:10351000F3F20D4BA3FB02035B09642000FB03F3F2
:10352000D31A1B013233084AA2FB03235B0903F0C1
:103530000F027B681B680A449A6000BF1037BD46C3
:1035400080BD00BF003801401F85EB51002B2DE9E5
:10355000F0471D46BBBF03F100431D4600232D234A
:1035600088B01446B8BF1446129A109E1370149B6C
:10357000DDF84CA023F02008B8F1460F05D0B8F1D3
:10358000450F00D10136022300E0032307AA04926D
:1035900006AACDE902A2CDE9003622462B4601F06B
:1035A00087F8B8F1470F074619D1119BDB070ED5F5
:1035B00000EB06090022002320462946FDF7F4F916
:1035C00008B1CDF81C903022079B4B451ED33846DE
:1035D000079B159ADB1B136008B0BDE8F087B8F1B4
:1035E000460F00EB0609E5D10378302B0AD1002203
:1035F000002320462946FDF7D7F918B9C6F1010680
:10360000CAF80060DAF800309944D3E7591C0791F2
:103610001A70D9E7F7B50029B6BF2D232B234942ED
:1036200009290270437029DD0DF1070425460A2798
:10363000B1FBF7F6224607FB1613303302F8013CC4
:103640000B46632B314604F1FF34F1DC3031931E1D
:1036500004F8011C1C46411CAB420AD30DF10903BE
:103660009B1AA54238BF0023821C1344181A03B0CA
:10367000F0BD13F8016B01F8016FEDE73023303135
:103680008370C170031DF1E72DE9F04F91B00C4636
:10369000DDF8688016461F46054600F0F5FE036813
:1036A00018460A93FCF754FD00230E93D8F8003017
:1036B00094F818A0073323F00703F3E80212D4F8B4
:1036C00000B0CDE90812C8F8003013460A46C4E934
:1036D0001223DDE9088323F000490B904FF0FF32FD
:1036E000404649469B4BFDF791F970BB4FF0FF32C6
:1036F00040464946974BFDF76BF930BBDDE90801C1
:1037000000220023FDF75AF910B12D2384F843302D
:10371000914A924BBAF1470F8CBF904698460323CB
:103720004FF0000923612BF0040323603346214648
:10373000284600970FAA00F0D3F9013040F08F809F
:103740004FF0FF3011B0BDE8F08FDDE908231046DF
:103750001946FDF75BF940B1099B814A002BBCBFBC
:103760002D2384F843307F4BD4E763680AF0DF09E8
:103770005A1C3ED10623636000224BF48063236011
:1037800006920EAACDE904A20DAA03920DF133020E
:10379000CDE90132636828460093DDE90823FFF78D
:1037A000D5FEB9F1470F80460D9929D1C81C02DB1F
:1037B00063688B4241DAAAF1020A5FFA8AFA52463A
:1037C000013904F150000D91FFF724FF0E9A814654
:1037D0001318012A236102DC2268D20701D50133C4
:1037E00023619DF83330002BA0D02D2384F8433083
:1037F0009CE7B9F1470FBFD1002BBDD10123BAE738
:10380000BAF1650FDBD9BAF1660F18D100296368E8
:103810000BDD216113B92268D00702D501330B44B7
:1038200023614FF00009A165DBE713B92268D207D5
:1038300001D50233F4E70123F2E74FF0670A0E9B4C
:103840008B4205DC23682161D807EAD54B1CE7E7EA
:103850000029CCBF0122C1F102021344E0E7236832
:103860005A0507D42369424631462846B8470130F5
:103870002BD165E7BAF1650F40F2DC80D4E9120183
:1038800000220023FDF790F8002833D001233146B1
:103890002846354AB84701303FF452AFDDE90D38CC
:1038A000434502DB2368D8070FD5DDE90A233146FB
:1038B0002846B84701303FF443AF4FF0000908F104
:1038C000FF3804F11A0AC84509DC23689B0700F198
:1038D0000281E0680F9B9842B8BF184632E7012387
:1038E000524631462846B84701303FF429AF09F126
:1038F0000109E8E70D9B002B38DC012331462846FF
:10390000194AB84701303FF41BAFDDE90D3959EAD8
:10391000030302D12368D907D7D5DDE90A2331464D
:103920002846B84701303FF40BAF4FF0000A04F1CE
:103930001A0B0D9B5B42534501DC4B4693E7012379
:103940005A4631462846B84701303FF4F9AE0AF1ED
:10395000010AEEE7FFFFEF7FB47C0008B07C0008AF
:10396000BC7C0008B87C0008C07C0008A36DDDF8B2
:1039700038A05345A8BF5346002B994636DC4FF07C
:10398000000B29EAE97904F11A02A36D0893A3EB6D
:1039900009035B4531DC0D9B9A453ADC2368DA0765
:1039A00037D40D9BAAEB0309089BAAEB03039945A7
:1039B000A8BF9946B9F1000F33DC4FF0000829EA9F
:1039C000E97904F11A0B0D9BAAEB0303A3EB09039E
:1039D00043457FF77AAF01235A4631462846B84718
:1039E00001303FF4ADAE08F10108ECE74246314644
:1039F0002846B8470130C2D1A2E601233146284605
:103A00000892B84701303FF49BAE089A0BF1010BC6
:103A1000BBE73146DDE90A232846B8470130C0D16B
:103A20008EE6089A4B46314628464244B847013054
:103A3000C3D185E6DDF838A0BAF1010F01DCDB0760
:103A400036D50123424631462846B84701303FF477
:103A500077AEDDE90A2331462846B84701303FF406
:103A60006FAED4E91201002200230AF1FF3AFCF7FD
:103A70009BFFC0B9534608F1010231462846B847BA
:103A800001300CD15CE601235A4631462846B8473E
:103A900001303FF455AE08F10108D045F3DB4B4649
:103AA00004F15002E0E64FF0000804F11A0BF4E7CD
:103AB00001234246E1E701234A4631462846B847FA
:103AC00001303FF43DAE08F10108E3680F995B1A3D
:103AD0004345F0DCFDE64FF0000804F11909F4E776
:103AE0002DE9F047164698468A680B6907469342C7
:103AF000B8BF1346336091F843200C46DDF82090A0
:103B00000AB1013333602368990642BF3368023338
:103B10003360256815F0060506D104F1190AE3683B
:103B200032689B1AAB422BDC94F843302268003B8E
:103B300018BF0123920630D44146384604F14302AF
:103B4000C847013023D02368226903F00603042B01
:103B500014BF002533684FF0000608BFE56804F184
:103B60001A0408BFED1A54F8123C08BF25EAE5759F
:103B70009342C4BF9B1AED18B5421AD1002008E049
:103B80000123524641463846C847013003D14FF021
:103B9000FF30BDE8F0870135C1E73020E11881F83A
:103BA00043005A1C94F845102244023382F8431013
:103BB000C2E70123224641463846C8470130E6D0D5
:103BC0000136D9E72DE9F0430D7E85B0782D90467A
:103BD00007460C4699460C9E01F1430207D8622D18
:103BE0000AD8002D00F0D780582D00F0BC8004F1D9
:103BF000420684F842503BE0A5F16303152BF6D84A
:103C000001A151F823F000BF613C0008753C000899
:103C1000EF3B0008EF3B0008EF3B0008EF3B0008DC
:103C2000753C0008EF3B0008EF3B0008EF3B000845
:103C3000EF3B00087D3D00089F3C00082F3D000839
:103C4000EF3B0008EF3B00089F3D0008EF3B0008FA
:103C50009F3C0008EF3B0008EF3B0008373D0008A1
:103C600033681A1D1B68326004F1420684F8423042
:103C70000123A1E033682068191D3160060601D5D3
:103C80001D6803E04506FBD5B3F90050002D03DAAB
:103C90002D236D4284F843300A235B4811E02168EC
:103CA0003368080653F8045B02D4490648BFADB236
:103CB0003360237E54486F2B5CD10823002184F8A5
:103CC00043106668002EA66005DB21682E4321F0B4
:103CD0000401216050D01646B5FBF3F103FB115CE3
:103CE00010F80CC006F801CDAC4663450D46F3D97B
:103CF000082B0BD12368DB0708D52369616899423B
:103D0000DEBF302306F8013C06F1FF36921B22612C
:103D1000434621463846CDF8009003AAFFF7E0FE5F
:103D200001304ED14FF0FF3005B0BDE8F08323687D
:103D300043F0200323607825344884F845502368F5
:103D4000316813F0800F51F8045B03D113F0400F7A
:103D500018BFADB23160D90744BF43F020032360E0
:103D60001DB11023AAE72848E7E7236823F02003C2
:103D70002360F6E70A23A1E71646B9E7336825680A
:103D8000181D616930602E061B6801D5196002E0BC
:103D90006806FBD51980002316462361B8E733680F
:103DA00000211A1D32601E686268304600F0E3FB95
:103DB00008B1801B606063682361002384F843308E
:103DC000A6E73246414638462369C8470130A9D0A4
:103DD00023689B0713D4E068039B9842B8BF18463A
:103DE000A2E70123324641463846C847013099D000
:103DF0000135E36803995B1AAB42F2DCEBE700257F
:103E000004F11906F5E700BFC27C0008D37C000866
:103E10002DE9F04F87B003938B6891465A1EB2F597
:103E2000AE7F82BF6FF4AE7503EB050B40F25D13FE
:103E30000A464FF0000588BF8B600B68804643F44C
:103E4000F06342F81C3B0C4698BF4FF0000B16463F
:103E5000AA462F46CDE9045501920295A2685AB1AF
:103E6000D9F800301B784E2B62D8402B3AD8A3F1FA
:103E70002B01C8B20E2838D91FB1236823F48073F0
:103E800023600AF1FF3ABAF1010F00F21481019B9D
:103E90009E4200F20581012007B0BDE8F08FA3F13A
:103EA00061020D2AE8D801A151F822F0F53F00087F
:103EB000793E0008793E0008793E0008514000082C
:103EC0002B400008793E0008793E000803400008B6
:103ED000793E0008793E0008793E0008793E0008E6
:103EE000BF3F0008A3F14102DBE70E29C4D801A0BF
:103EF00050F821F0AF3F0008793E0008AF3F0008BE
:103F00003F400008793E0008513F0008953F0008F7
:103F1000953F0008953F0008953F0008953F000831
:103F2000953F0008953F0008953F0008953F000821
:103F30006E2B09D8602BB2D8542B7BD0592B9BD138
:103F4000072D99D108252FE0742B73D0792BF6E734
:103F50002168C8051ED521F0800121600137BBF121
:103F6000000F03D001320BF1FF3BA260A368013BBD
:103F7000A360236901332361D9F80430013B002B8E
:103F8000C9F8043040F38380D9F800300133C9F810
:103F9000003063E71AEB05017FF46EAF0D468A46E9
:103FA000226822F4C072226006F8013BDEE7226834
:103FB00010067FF561AF22F080022260F4E7BAF1CB
:103FC000000F0CD177B9226802F4E061B1F5E06F1F
:103FD00008D122F4F0624FF0010A2260E4E7BAF15E
:103FE000020F51D0012D02D0042D7FF445AF0135D1
:103FF000EDB2D9E7BAF1010F7FF43EAF4FF0020AFC
:10400000D2E775B9002F7FF438AF226802F4E0617F
:10401000B1F5E06F40F0FF8022F4F06201252260EC
:10402000C2E7032DE3D0052DDFE7022D7FF424AF97
:104030000325B9E7062D7FF41FAF0725B4E72268F3
:1040400091057FF519AF22F4207222600297ABE749
:10405000226802F4A061B1F5806F05D050057FF5AC
:104060000BAF002F00F0D780910558BF029922F4C2
:10407000F06258BF791A42F4C0724FF0000758BF7F
:10408000CDE9041622608FE74FF0030A8CE749461A
:104090004046D4F88031984700283FF4DFAEEBE685
:1040A000D4F87C314A46404616F8011D98472369EA
:1040B000013B2361EBE66B1E062B24D8022D36D87C
:1040C000019B9E427FF6E7AED4F87C314A464046DB
:1040D00016F8011D98472369013B2361F0E7D4F8E6
:1040E0007C314A4640461BF8011D98472369013B35
:1040F00023610AF1FF3A5FFA8AFABAF1020FEED1B0
:10410000033DEDB2761B2368DA0530D55B0511D58A
:10411000019B9E427FF6BFAED4F87C314A464046B2
:1041200016F8011D98472369013B2361F0E7AA4671
:10413000B346DEE716F8011C2369652903F1FF3356
:1041400006F1FF3523610CD045290AD0D4F87C3123
:104150004A4640469847236916F8021C013BB51EA3
:1041600023614A464046D4F87C3198472E4622685F
:1041700012F0100201D000208EE63270236803F4A2
:10418000C063B3F5806F25D1029B9F420AD0DA1B32
:1041900004F26F139E4228BF04F5B77630461F49DC
:1041A00000F004F900224046019902F005FC039B4F
:1041B00025681B6815F0020F06460F4603F104023E
:1041C00015D003990A601B68C3E90067E3680133EF
:1041D000E360D0E7049B002BE4D005990A23404616
:1041E000013102F069FC049B059EC21AD0E76D07FD
:1041F000E7D4039D2A601D6802460B46FCF706FCC7
:1042000020B1074800F0C6F92860DFE7304639469C
:10421000FCF75AFCF8E7002733E600BFE47C00080F
:10422000257E0008002310B50446C0E90033C0E92C
:104230000433836081814366C28183611946082209
:104240005C3000F019F90D4B246263620C4BA362E1
:104250000C4BE3620C4B23630C4B9C4206D003F1E6
:104260006802944202D0D0339C4205D104F1580038
:10427000BDE8104000F07CB910BD00BFF14300085C
:10428000134400084B44000871440008E402002075
:10429000024A0349034800F06BB800BF0C0000203D
:1042A000696E00081C00002041680C4B10B5994253
:1042B000044601D002F0D8FDA168094B994202D012
:1042C000204602F0D1FDE168064B994204D0204619
:1042D000BDE8104002F0C8BD10BD00BFE4020020E0
:1042E0004C030020B40300200C4B0D4A10B50421F0
:1042F0001A600C480022FFF795FF0A4B01221C466A
:10430000092103F16800FFF78DFF04F1D0000222BC
:10431000BDE810401221FFF785BF00BF1C0400203C
:1043200091420008E4020020014800F022B900BFD9
:1043300025040020014800F01DB900BF250400201D
:1043400010B50446FFF7F0FF236A1BB1BDE810402B
:10435000FFF7F0BF044B2362044B1B68002BF5D121
:10436000FFF7C2FFF2E700BFA94200081C040020CB
:104370002DE9F8430746884614460026D4E90195FE
:10438000B9F1010905D52468002CF7D13046BDE804
:10439000F883AB89012B07D9B5F90E30013303D06F
:1043A00029463846C04706436835E9E70EB46FF042
:1043B000004110B500249DB01FAB029006900791FC
:1043C00004910948094953F8042B0591006802A992
:1043D00001931B9402F0D2FB029B1C701DB0BDE840
:1043E000104003B0704700BF180000200802FFFF14
:1043F00010B50C46B1F90E1000F06CF80028ABBFF8
:10440000636DA3891B1823F48053ACBF6365A3813C
:1044100010BD2DE9F0411F468B890546DB050C4692
:10442000164605D502230022B1F90E1000F040F81F
:10443000A389324623F48053A38128463B46B4F92E
:104440000E10BDE8F04100F057B810B50C46B1F9B8
:104450000E1000F02DF8B4F90C30421C0BBF23F401
:10446000805343F48053A381A38118BF606510BDBE
:10447000B1F90E1000F00CB803460244934200D18B
:10448000704703F8011BF9E7004870475801002006
:1044900038B50023054D044608462B60FCF7F7FFAE
:1044A000431C02D12B6803B1236038BD20040020D7
:1044B00038B50446084611460022054D2A601A46C2
:1044C000FDF709F8431C02D12B6803B1236038BD06
:1044D0002004002038B50446084611460022054D48
:1044E0002A601A46FCF79AFF431C02D12B6803B1DD
:1044F000236038BD2004002038B504460846114624
:104500000022054D2A601A46FCF7A5FF431C02D184
:104510002B6803B1236038BD20040020014B1868CC
:10452000704700BF1800002070B500260C4D0D4BE1
:104530005B1B9C10A64209D1002603F079FB0A4DB3
:104540000A4B5B1B9C10A64205D170BD55F8043B7D
:1045500098470136EEE755F8043B98470136F2E7F5
:10456000E4800008E4800008E4800008E880000897
:10457000704770477047034610B5C9B20244934272
:10458000184601D1002003E0047801338C42F6D1B3
:1045900010BD0000004870470000C07F2DE9F74FB4
:1045A00003690C690746A3427EDB013CA30000F1CE
:1045B000140501F11408009305EB8403019358F8E6
:1045C000243055F8242001339A42B2FBF3F608EB6D
:1045D00084092ED34FF0000AC446AE46D3465CF899
:1045E000043B98B206FB00A01B0C020C06FB032345
:1045F000DEF8002080B292B2121A5A44DEF80000AF
:104600004FEA134A9BB2C3EB224303EB104392B22F
:1046100042EA0342E1454FEA234B4EF8042BDED237
:10462000009BEB582BB9019B043B9D421A462FD3AC
:104630003C61384601F0E2F9002825DB29460020DC
:1046400058F8042BD1F800C01FFA82FE1FFA8CF331
:10465000A3EB0E030344120CC2EB234202EB1C42F9
:104660009BB243EA0243C1454FEA224041F8043B72
:10467000E6D255F8242005EB840322B9043B9D4281
:104680001A460BD33C610136304603B0BDE8F08FCB
:104690001268043B002ACBD1013CC6E71268043BF8
:1046A000002AEFD1013CEAE70020EEE7000000001D
:1046B0002DE9F04F16461F46C26999B08146CDE9F3
:1046C0000E67259C82B9102000F020FE0246C9F832
:1046D0001C0020B9EF21A84BA84802F03DFC0023A4
:1046E000C0E901330360C360116859B10123526806
:1046F000484693404A608B6000F0FCFE0022D9F8E7
:104700001C301A60B7F10008B5BF012300232360F5
:1047100023609B4BBCBF28F00048CDF83C8033EAB7
:1047200008031AD142F20F73249AC8F3130858EA07
:104730000608136000F07485269B53B9914B21E065
:10474000914B03930833269A1360039819B0BDE880
:10475000F08F8C4B03930333F5E7DDE90E34CDE99D
:104760000A34DDE90A0100220023FCF71DF9824624
:1047700050B10123249A1360269B13B1834B269AD0
:104780001360834B0393E0E716AB019317AB0093E1
:104790004846DDE90A2301F04DFA5FEA1854169DF8
:1047A00004907BD0DDE90A010B9BA4F2FF34C3F334
:1047B000130343F07F5343F44013CDF850A0194640
:1047C0000022744BFBF7D0FC65A3D3E90023FBF771
:1047D00083FE65A3D3E90023FBF7C8FC0646204609
:1047E0000F46FBF70FFE62A3D3E90023FBF774FE2D
:1047F00002460B4630463946FBF7B8FC06460F46E4
:10480000FCF71AF900228046002330463946FCF7AF
:10481000D5F848B14046FBF7F5FD32463B46FCF77C
:10482000C3F808B908F1FF38B8F1160F53D8DDE91D
:104830000A01594B03EBC803D3E90023FCF7BEF888
:1048400000284AD0002308F1FF3811932D1B6B1E5E
:10485000099349BF00230027C5F101070993B8F167
:10486000000F3CDB099BCDF84080434409930023B3
:104870000C93229B092B64D8052BC4BF043B2293C5
:10488000229BC8BF0024A3F10203D8BF0124032B3D
:1048900000F28680DFE803F05153362B179C2C443E
:1048A00004F23243202BC1BFC3F1400308FA03F8DE
:1048B00004F2124326FA03F3D6BFC3F1200348EAF9
:1048C000030006FA03F0FBF78DFD0122A1F1F87356
:1048D000013C149273E70123B7E71190B6E7C8F1E2
:1048E00000030C930023A7EB08071093C1E70123F3
:1048F0000D93239B434408930133012B0593B8BFC9
:10490000012306E001230D93239B002B4BDD08932D
:10491000059300210422D9F81C0002F114059D42E0
:1049200046D94160484600F0A7FD0390002842D1D7
:10493000024640F2AF11194BCEE60023E3E7002315
:10494000D6E7012400230D9422934FF0FF33002279
:104950000893059312232392DBE700BFAFF3008097
:1049600061436F63A787D23FB3C8608B288AC63F75
:10497000FB799F501344D33FF67C00080D7D00085F
:104980000000F07FF27C0008E97C0008C17C000890
:10499000C07C00080000F83FC07E0008657D00086C
:1049A00001230D93D1E701231A4608930593D2E71B
:1049B00001315200B1E7D9F81C30039A1A60059B07
:1049C0000E2B00F2A180002C00F09E80B8F1000FA9
:1049D00036DD9F4B08F00F0203EBC20318F4807F13
:1049E0004FEA2815D3E900AB16D0DDE90A01994B4F
:1049F0000324D3E90823FBF799FECDE9060105F06E
:104A00000F05944E75B9DDE9060152465B46FBF78A
:104A10008DFE82468B462DE0DDE90A34CDE9063471
:104A20000224EEE7E90708D5D6E9002350465946A7
:104A3000FBF752FD82468B4601346D100836E1E7E4
:104A400000F0AD80DDE90A01C8F10005804B05F0FA
:104A50000F0203EBC203D3E90023FBF73DFD022461
:104A600082468B4600237B4E2D11002D40F08C801A
:104A7000002BCED1119B002B00F0958000225046D8
:104A80005946754BFBF79AFF002800F08C80059B78
:104A9000002B00F08880089B002B35DD08F1FF33E8
:104AA00050465946069300226C4BFBF715FD824693
:104AB0008B46089E01342046FBF7A4FC52465B4619
:104AC000FBF70AFD0022664BFBF750FB0446A1F101
:104AD0005075CDE91245002E69D100225046594645
:104AE000604BFBF741FB22462B4682468B46FBF789
:104AF00083FF002840F0998222465046594605F12E
:104B00000043FBF75BFF20BB179B002BC0F26581C6
:104B1000B8F10E0F00F361814D4B03EBC803D3E9ED
:104B200000AB239B002B80F2EF80059B002B00F352
:104B3000EB800ED100224B4B50465946FBF7CCFC84
:104B400002460B46DDE90A01FBF742FF002800F0B0
:104B50006F8200252C46239B039EDB43069327464A
:104B600000242946484600F0C5FC002F00F0C28012
:104B70002CB1BC4203D02146484600F0BBFC39466C
:104B8000484600F0B7FCB5E0EA0705D5D6E90023B2
:104B9000FBF7A2FC012301346D10083665E70224FF
:104BA000DDE90AAB66E7059ECDF8188083E7284B60
:104BB00003EBC60353E902010D9B002B56D00246BE
:104BC0000B4600202849FBF7B1FDDDE91223FBF776
:104BD000CBFA039BCDE912019D191E46594650465A
:104BE000FBF72AFF0446FBF70DFC02460B46504636
:104BF0005946FBF7B9FADDE91223303406F8014BC8
:104C000082468B46FBF7DAFE002873D152465B469C
:104C100000201149FBF7A8FADDE91223FBF7CEFECD
:104C2000002840F0BB80AE423FF46EAFDDE91201D8
:104C300000220A4BFBF750FC0022CDE91201074B82
:104C400050465946FBF748FC82468B46C6E700BFF4
:104C5000C07E0008987E00080000F03F000024405D
:104C600000001C40000014400000E03FDDE912237A
:104C7000FBF732FC039BCDE912013344039D1593EE
:104C800059465046FBF7D8FE0446FBF7BBFB0B46E4
:104C9000024659465046FBF767FA3034159B05F833
:104CA000014B9D4282468B4627D1DDE91201039BD1
:104CB00000221E44B54BFBF759FA02460B465046FC
:104CC0005946FBF799FE002868D1DDE91223002040
:104CD000AE49FBF749FA02460B4650465946FBF7E8
:104CE0006DFE00283FF410AF334616F8012D302A30
:104CF000FAD01E46DDF818803EE00022A44BFBF7F8
:104D0000EBFB82468B46BBE70024039EA04D524638
:104D1000DDE90A015B46FBF709FDFBF78DFE07465F
:104D2000FBF770FB52465B46FBF7D6FB02460B4691
:104D3000DDE90A01FBF718FA07F1300C06F801CBA0
:104D4000DDF80CC0DDF814E0A6EB0C0CE6450246DD
:104D50000B4633D1FBF70AFA52465B4604460D4632
:104D6000FBF74AFEC0B952465B4620462946FBF790
:104D70001BFE08B1FB070FD44846049900F0BAFBAC
:104D80000023249A337008F101031360269B002B43
:104D90003FF4DBAC1E60D8E4CDF8188033461E46E5
:104DA00013F8012D392A06D1039A9A42F7D1069AAF
:104DB00001320692302201321A709BE722462B46BE
:104DC000FBF78AFB02460B46CDE90A2300220023AB
:104DD000FBF7EAFD00289AD0CEE70D9A002A00F0F2
:104DE000E380229A012A00F3C280149A002A00F07C
:104DF000BA8003F233430C9D3E46099A01211A44BE
:104E000048461F44099200F073FC044656B1099BC2
:104E1000002B07DDB342A8BF3346099AFF1AF61AE2
:104E2000D31A09930C9B0BB30D9B002B00F0C3808E
:104E3000002D00F0BD8021462A46484600F016FDB0
:104E4000049A01460446484600F068FC04998246EC
:104E5000484600F04FFB0C9B5B1B0C9300F0AE80B0
:104E600051460C9A484600F001FD04900121484645
:104E700000F03EFC109B0546002B00F0D8811A463E
:104E80000146484600F0F2FC229B0546012B00F348
:104E90009D800E9B002B40F094800F9BC3F3130367
:104EA000002B40F08E800F9B23F000431B0D1B0551
:104EB000002B00F089804FF0010A099B0137013374
:104EC0000993109B002B00F0B8812B6905EB83033D
:104ED000186900F0C1FBC0F12000099B184410F0D4
:104EE0001F007ED0C0F12003042B72DD099BC0F1AE
:104EF0001C000344074406440993002F05DD3A468D
:104F00004846049900F00EFD0490099B002B05DD36
:104F100029461A46484600F005FD0546119B002B20
:104F200061D02946049800F069FD00285BDA08F199
:104F3000FF3306930A2200234846049900F0FCFA46
:104F40000D9B0490002B00F07A81002321460A2259
:104F5000484600F0F1FA089B0446002B72DC229BC5
:104F6000022B49DC6EE0169BC3F1360343E7059B39
:104F70005D1E0C9BAB420DDB5D1B059B002BBFF642
:104F80003BAF059BFE1A002337E700BF0000E03F60
:104F9000000024400C9B109AEB1A1A440C953E46D4
:104FA0000025059B109228E73E460C9D0D9C2DE7A1
:104FB000DDF810A054E70C9A049953E7CDF810A03F
:104FC00054E74FF0000A7CE79A467AE74FF0000A70
:104FD0007BE792D0099A1C331A441F441E4409925D
:104FE0008BE70346F6E7059BCDF81880002B23DC02
:104FF0000893229B022B21DD089B002B7FF4ABAD95
:1050000029460522484600F097FA014605460498CD
:1050100000F0F4FC00287FF79EAD3123039E06F8D4
:10502000013B069B0133069399E535462C46F4E790
:10503000059DCDF81880F9E7059B08930D9B002B83
:1050400000F00181002E05DD21463246484600F081
:1050500069FC0446BAF1000F5AD04846616800F076
:105060000BFA064628B9024640F2EF21814BFFF7C2
:1050700033BB226904F10C01023292000C3001F0C2
:1050800057FF01223146484600F04CFC0746039B7F
:10509000039A03F1010B089B13440A930E9B03F040
:1050A000010309930BF1FF33294604980593FFF799
:1050B00075FA2146089000F1300A049800F09EFC31
:1050C0003A4680462946484600F0B4FCC268064687
:1050D00002BB0146049800F091FC02463146484666
:1050E0000C9200F007FA229B0C9A5E4642EA0301FA
:1050F000099B194310D1BAF1390F2BD0B8F1000F29
:1051000002DD089B03F1310A059B83F800A028E526
:105110002746BCE70122E1E7B8F1000F06DB229B3E
:1051200048EA0308099B58EA030820D1002AEBDD6E
:1051300001220499484600F0F5FB2946049000F04E
:105140005DFC002803DCDFD11AF0010FDCD0BAF1DE
:10515000390FD6D13923059A137033461E4616F8F7
:10516000012C013B392A53D001321A70F9E4002A8C
:1051700007DDBAF1390FEDD0059A0AF1010313707A
:10518000EFE40A9B0BF801AC5B452BD000230A220D
:105190000499484600F0D0F9BC4204904FF0000357
:1051A0004FF00A022146484606D100F0C5F90446F0
:1051B00007460BF1010B75E700F0BEF939460446CE
:1051C00000230A22484600F0B7F90746F1E7089B9A
:1051D0002746002B03F1FF36D8BF00260024039B8F
:1051E0005A1C164401220499484600F09BFB2946AC
:1051F000049000F003FC0028AFDC02D11AF0010F8C
:10520000ABD133461E4613F8012D302AFAD0A8E45C
:10521000039A9A42A2D1069B013306933123AEE74B
:10522000269B002B7FF48CAA134BFFF7ABBA229B73
:10523000012B7FF72EAEDDF840A001204DE6089B44
:10524000002B7FF7D6AE039E29460498FFF7A6F9F8
:10525000039B00F1300A06F801ABF21A089B934257
:10526000B5DD00230A224846049900F065F9049050
:10527000EAE700BF657D0008E97C000838B505460F
:10528000002940D051F8043C0C1F002BB8BFE41893
:1052900000F0E6F81C4A136833B9636014602846CE
:1052A000BDE8384000F0E2B8A34208D920682118D0
:1052B0008B4201BF19685B6809182160EDE71A4647
:1052C0005B680BB1A342FAD911685018A0420BD108
:1052D00020680144501883421160E0D118685B686F
:1052E000084410605360DAE702D90C232B60D6E73C
:1052F000206821188B4201BF19685B68091821607A
:1053000063605460CBE738BD2C040020024B01469B
:10531000186800F025B800BF1800002070B50F4EC7
:105320000C463168054611B901F0F2FD30602146A6
:10533000284601F0EDFD431C03D14FF0FF34204619
:1053400070BDC41C24F00304A042F8D0211A2846E2
:1053500001F0DEFD0130F2D1EFE700BF28040020AC
:105360002DE9F843CD1C25F0030508350C2D38BF79
:105370000C25002D064601DBA94204D90C2333601D
:105380000020BDE8F883DFF8D48000F069F8D8F891
:1053900000301C4644BB29463046FFF7BFFF431C84
:1053A000044658D1D8F800402746002F43D1002C9E
:1053B0004BD023683946304604EB030901F0A8FDC1
:1053C000814542D1216830466D1A2946FFF7A6FF74
:1053D00001303AD023682B442360D8F800305A6853
:1053E00062BBC8F800700FE02268521B20D40B2A61
:1053F00017D96119A342256018BF5960636808BFB7
:10540000C8F8001062514B60304600F02FF804F1EC
:105410000B00231D20F00700C21A1CBF1B1AA3504B
:10542000AFE76268A3420CBFC8F800205A60EBE700
:1054300023466468AEE73C467F68B6E71A465B6879
:10544000A342FBD100235360DEE70C2330463360D8
:1054500000F00CF894E70560D6E700BF2C040020AC
:105460000148FFF786B800BF240400200148FFF779
:1054700081B800BF2404002070B5C46905460E46FB
:1054800084B91020FFF742FF0446E86128B90246BC
:105490006B21164B164801F05FFD0023C0E9013374
:1054A0000360C360E36853B921220421284601F058
:1054B00071FDEB69E060DB680BB9002070BD53F84B
:1054C000260030B1026843F826200023C0E90333E8
:1054D000F4E7012101FA06F4621D2846920001F06A
:1054E00059FD0028E9D0C0E90164EEE7F67C000828
:1054F000767D000870B5C66905460C4676B9102061
:10550000FFF704FF0246E86120B98F21084B0948E4
:1055100001F022FDC0E901660660C6603CB1EB699E
:105520006268DB6853F82210216043F8224070BDA6
:10553000F67C0008767D00082DE9F04107460C4610
:105540001E4600200D6901F1140CDCF8003001301A
:1055500099B202FB01611E0C0B0C02FB063389B2EF
:1055600001EB034185424FEA13464CF8041BECDC87
:105570000EB3A368AB4219DC616838460131FFF70E
:105580007BFF804628B90246BA210C4B0C4801F03B
:10559000E3FC226904F10C01023292000C3001F0AC
:1055A000C7FC21463846FFF7A5FF444604EB8503B8
:1055B00001355E6125612046BDE8F081657D00080A
:1055C000767D00082DE9F843154609221F46083369
:1055D0000C4693FBF2F30646012200219A4209DBB6
:1055E0003046FFF749FF40B90246D321184B19480E
:1055F00001F0B2FC52000131F0E7089B092D436134
:105600004FF00103036116DD04F10908C1462C4483
:1056100019F8013B01460A223046303BFFF78CFF68
:10562000A145F5D1A844A8F108042D1B63199F4298
:1056300004DCBDE8F88309250A34F6E714F8013BD9
:1056400001460A223046303BFFF776FFEEE700BF07
:10565000657D0008767D00080346B0F5803F3ABFBF
:10566000030410200020B3F1807F3CBF1B020830F0
:10567000B3F1805F3CBF1B010430B3F1804F3CBFEE
:105680009B000230002B05DB13F0804F00F101007E
:1056900008BF202070470368024613F007000BD0B4
:1056A000D90721D4980749BF5B089B0801201360E4
:1056B0005CBF02201360704799B209B910201B0C1F
:1056C000D9B209B908301B0A190704BF1B090430F5
:1056D000990704BF9B080230D90703D45B0800F187
:1056E000010003D0136070470020704720207047EE
:1056F00010B50C460121FFF7BFFE024628B940F263
:105700004511044B044801F027FC01234461036167
:1057100010BD00BF657D0008767D00082DE9F04FC3
:10572000D1F81090D2F810A08846D145144685B023
:1057300004DB53460C46CA4690469946A368616806
:105740000AEB0906B342B8BF0131FFF795FE30B945
:1057500002464FF4B171434B434801F0FDFB00F1A9
:1057600014052B46002205EB8607BB421FD304F12C
:10577000140C08F114010CEB8A0301EB890202926C
:105780001A1B153A22F0030215349C4288BF0022EE
:105790000192029A03918A420CD8002E03DD57F839
:1057A000043D002B5CD0066105B0BDE8F08F43F8E6
:1057B000042BDAE7B1F800A0BAF1000F23D0E046DD
:1057C000A9464FF0000E58F8042BD9F800401FFAF4
:1057D00082FBA4B20AFB0B447444D9F800E0120C1B
:1057E0004FEA1E4E0AFB02E202EB1442A4B244EA64
:1057F000024443454FEA124E49F8044BE3D8019A5C
:10580000AA18C2F804E0039A0431B2F80280B8F191
:10581000000F23D02A68E6469146AA464FF0000BB7
:10582000BEF8004092B208FB04B404EB194442EA0B
:1058300004424AF8042B5EF8042BDAF800904FEA91
:10584000124B1FFA89F208FB0B22734502EB14423C
:105850004FEA124BE4D8019C2C196260043598E79A
:10586000013E9AE7657D0008767D00082DE9F84342
:10587000174612F0030280460D4607D0264C013A27
:10588000002354F82220FFF757FE0546BF103FD0F3
:10589000D8F81C4094B91020FFF738FD0446C8F82A
:1058A0001C0030B9024640F2B3111C4B1C4801F0F9
:1058B00053FB0023C0E901330360C360A66846B907
:1058C00040F271214046FFF713FF00230646A06017
:1058D00003602C464FF0000907F001037F1053B11D
:1058E000294632464046FFF719FF21460546404605
:1058F000FFF700FE67B1306838B93246314640469E
:10590000FFF70CFF3060C0F8009006462C46E3E736
:105910002846BDE8F88300BF887E0008F67C0008B2
:10592000767D00082DE9F84F0C4607461546236999
:10593000496803EB6218A3684FEA621A08F101098B
:105940004B450BDB3846FFF797FD064648B9024644
:105950004FF4EF71274B284801F0FEFA01315B004C
:10596000EEE70023194600F1140C00F11002534534
:1059700034DB22692AEAEA7A0CEB8A0C04F114037C
:1059800015F01F0E614603EB82022BD00025CEF1ED
:10599000200A8B461868043100FA0EF02843CBF831
:1059A000000053F8045B9A4225FA0AF5F1D8131B5C
:1059B000153B23F0030304F115018A4238BF00238D
:1059C0009C44CCF8045005B9C14638462146C6F877
:1059D0001090FFF78FFD3046BDE8F88F42F8041FA6
:1059E0000133C4E753F8045B04319A4241F8045C84
:1059F000F8D8E9E7657D0008767D000803460A6966
:105A0000006930B5801A0ED11433143103EB8204CF
:105A100001EB820154F8045D51F8042D954203D046
:105A200005D24FF0FF3030BDA342F3D3FBE7012096
:105A3000F9E700002DE9F74F8A4606461146504621
:105A40001446FFF7DBFF051E12D129463046FFF74B
:105A500013FD024628B940F23721404B404801F07F
:105A60007BFA0123C0E90435104603B0BDE8F08F8E
:105A7000BCBF5346A2463046DAF80410BABF1C46F3
:105A800001250025FFF7F8FC024618B940F2452130
:105A9000324BE3E7C56000F11405AB464FF0000C54
:105AA000DAF8107026690AF1140904F1140E0AF1EB
:105AB000100309EB87080EEB86060193019B5EF845
:105AC000040B53F804AF81B201931FFA8AF35B1AF7
:105AD000000C6344C0EB1A4000EB23409BB243EA46
