:020000040800F2
:1000000000500020812100083D2000083F2000080A
:10001000412000084320000845200008000000009F
:100020000000000000000000000000004720000861
:1000300049200008000000004B2000084D20000867
:10004000C9210008C9210008C9210008C9210008E8
:10005000C9210008C9210008C9210008C9210008D8
:10006000C9210008C9210008C9210008C9210008C8
:10007000C9210008C9210008C9210008C9210008B8
:10008000C9210008C9210008C9210008C9210008A8
:10009000C9210008C9210008C9210008C921000898
:1000A000C9210008C9210008C9210008C921000888
:1000B000C9210008C9210008C9210008C921000878
:1000C000C9210008C9210008C9210008C921000868
:1000D000C92100085520000869200008C92100082E
:1000E000C9210008C9210008C9210008000000003A
:1000F0000000000000000000000000000000000000
:0C01000000000000000000005FF808F1A3
:1001100010B5054C237833B9044B13B10448AFF341
:1001200000800123237010BDD801002000000000D2
:100130005082000808B5034B1BB103490348AFF3D5
:10014000008008BD00000000DC0100205082000893
:1001500010F8012B11F8013B012A28BF9A42F7D071
:10016000D01A7047034613F8012B002AFBD1181A46
:100170000138704781F0004102E000BF83F0004386
:1001800030B54FEA41044FEA430594EA050F08BF32
:1001900090EA020F1FBF54EA000C55EA020C7FEAF6
:1001A000645C7FEA655C00F0E2804FEA5454D4EB73
:1001B0005555B8BF6D420CDD2C4480EA020281EA3D
:1001C000030382EA000083EA010180EA020281EA75
:1001D0000303362D88BF30BD11F0004F4FEA0131C7
:1001E0004FF4801C4CEA113102D0404261EB4101D6
:1001F00013F0004F4FEA03334CEA133302D052425C
:1002000063EB430394EA050F00F0A780A4F1010417
:10021000D5F1200E0DDB02FA0EFC22FA05F2801851
:1002200041F1000103FA0EF2801843FA05F3594137
:100230000EE0A5F120050EF1200E012A03FA0EFCB6
:1002400028BF4CF0020C43FA05F3C01851EBE371E0
:1002500001F0004507D54FF0000EDCF1000C7EEBFD
:1002600000006EEB0101B1F5801F1BD3B1F5001F3B
:100270000CD349085FEA30004FEA3C0C04F101045A
:100280004FEA445212F5800F80F09A80BCF1004F83
:1002900008BF5FEA500C50F1000041EB045141EA05
:1002A000050130BD5FEA4C0C404141EB0101013CCE
:1002B00028BFB1F5801FE9D291F0000F04BF0146BD
:1002C0000020B1FA81F308BF2033A3F10B03B3F18F
:1002D00020020CDA0C3208DD02F1140CC2F10C021F
:1002E00001FA0CF021FA02F10CE002F11402D8BF7D
:1002F000C2F1200C01FA02F120FA0CFCDCBF41EA49
:100300000C019040E41AA2BF01EB0451294330BD17
:100310006FEA04041F3C1CDA0C340EDC04F11404F4
:10032000C4F1200220FA04F001FA02F340EA0300CB
:1003300021FA04F345EA030130BDC4F10C04C4F111
:10034000200220FA02F001FA04F340EA03002946F1
:1003500030BD21FA04F0294630BD94F0000F83F43B
:10036000801306BF81F480110134013D4EE77FEA1E
:10037000645C18BF7FEA655C29D094EA050F08BF6A
:1003800090EA020F05D054EA000C04BF194610464B
:1003900030BD91EA030F1EBF0021002030BD5FEA8F
:1003A000545C05D14000494128BF41F0004130BDB7
:1003B00014F580043CBF01F5801130BD01F000450B
:1003C00045F0FE4141F470014FF0000030BD7FEA7E
:1003D000645C1ABF194610467FEA655C1CBF0B4679
:1003E000024650EA013406BF52EA033591EA030F90
:1003F00041F4002130BD00BF90F0000F04BF002188
:10040000704730B54FF4806404F132044FF00005BA
:100410004FF0000150E700BF90F0000F04BF002133
:10042000704730B54FF4806404F1320410F0004599
:1004300048BF40424FF000013EE700BF42004FEA94
:10044000E2014FEA31014FEA02701FBF12F07F4311
:1004500093F07F4F81F06051704732F07F4208BFC8
:10046000704793F07F4F04BF41F40021704730B5CF
:100470004FF4607401F0004521F000411CE700BF1B
:1004800050EA010208BF704730B54FF000050AE09E
:1004900050EA010208BF704730B511F0004502D59F
:1004A000404261EB41014FF4806404F132045FEAA1
:1004B000915C3FF4D8AE4FF003025FEADC0C18BF4A
:1004C00003325FEADC0C18BF033202EBDC02C2F13C
:1004D000200300FA03FC20FA02F001FA03FE40EACE
:1004E0000E0021FA02F11444BDE600BF70B54FF0D2
:1004F000FF0C4CF4E06C1CEA11541DBF1CEA1355B0
:1005000094EA0C0F95EA0C0F00F0DEF82C4481EA17
:10051000030621EA4C5123EA4C5350EA013518BF37
:1005200052EA033541F4801143F4801338D0A0FB24
:1005300002CE4FF00005E1FB02E506F00042E0FBD1
:1005400003E54FF00006E1FB03569CF0000F18BFD7
:100550004EF0010EA4F1FF04B6F5007F64F540747F
:1005600004D25FEA4E0E6D4146EB060642EAC62112
:1005700041EA55514FEAC52040EA5E504FEACE2E7F
:10058000B4F1FD0C88BFBCF5E06F1ED8BEF1004F82
:1005900008BF5FEA500E50F1000041EB045170BDFE
:1005A00006F0004646EA010140EA020081EA030142
:1005B000B4EB5C04C2BFD4EB0C0541EA045170BD3E
:1005C00041F480114FF0000E013C00F3AB8014F1B8
:1005D000360FDEBF002001F0004170BDC4F1000401
:1005E000203C35DA0C341BDC04F11404C4F1200582
:1005F00000FA05F320FA04F001FA05F240EA0200DD
:1006000001F0004221F0004110EBD37021FA04F612
:1006100042EB06015EEA430E08BF20EAD37070BDCC
:10062000C4F10C04C4F1200500FA04F320FA05F02B
:1006300001FA04F240EA020001F0004110EBD3702D
:1006400041F100015EEA430E08BF20EAD37070BD9D
:10065000C4F1200500FA05F24EEA020E20FA04F376
:1006600001FA05F243EA020321FA04F001F0004125
:1006700021FA04F220EA020000EBD3705EEA430E96
:1006800008BF20EAD37070BD94F0000F0FD101F0C5
:100690000046400041EB010111F4801F08BF013CFE
:1006A000F7D041EA060195F0000F18BF704703F03C
:1006B0000046520043EB030313F4801F08BF013DC3
:1006C000F7D043EA0603704794EA0C0F0CEA13557F
:1006D00018BF95EA0C0F0CD050EA410618BF52EA39
:1006E0004306D1D181EA030101F000414FF000003F
:1006F00070BD50EA410606BF1046194652EA43064D
:1007000019D094EA0C0F02D150EA013613D195EAC0
:100710000C0F05D152EA03361CBF104619460AD108
:1007200081EA030101F0004141F0FE4141F4700112
:100730004FF0000070BD41F0FE4141F4780170BD02
:1007400070B54FF0FF0C4CF4E06C1CEA11541DBF67
:100750001CEA135594EA0C0F95EA0C0F00F0A7F869
:10076000A4EB050481EA030E52EA03354FEA013196
:1007700000F088804FEA03334FF0805545EA1313A9
:1007800043EA12634FEA022245EA111545EA106571
:100790004FEA00260EF000419D4208BF964244F108
:1007A000FD0404F5407402D25B084FEA3202B61A27
:1007B00065EB03055B084FEA32024FF480104FF4FB
:1007C000002CB6EB020E75EB030E22BFB61A75466F
:1007D00040EA0C005B084FEA3202B6EB020E75EB02
:1007E000030E22BFB61A754640EA5C005B084FEA6A
:1007F0003202B6EB020E75EB030E22BFB61A754637
:1008000040EA9C005B084FEA3202B6EB020E75EB41
:10081000030E22BFB61A754640EADC0055EA060E02
:1008200018D04FEA051545EA16754FEA06164FEA45
:10083000C30343EA52734FEAC2025FEA1C1CC0D1F1
:1008400011F4801F0BD141EA00014FF000004FF07E
:10085000004CB6E711F4801F04BF01430020B4F13F
:10086000FD0C88BFBCF5E06F3FF6AFAEB5EB030CF7
:1008700004BFB6EB020C5FEA500C50F1000041EBF4
:10088000045170BD0EF0004E4EEA113114EB5C04C1
:10089000C2BFD4EB0C0541EA045170BD41F4801194
:1008A0004FF0000E013C90E645EA060E8DE60CEA9C
:1008B000135594EA0C0F08BF95EA0C0F3FF43BAFB9
:1008C00094EA0C0F0AD150EA01347FF434AF95EA70
:1008D0000C0F7FF425AF104619462CE795EA0C0F54
:1008E00006D152EA03353FF4FDAE1046194622E721
:1008F00050EA410618BF52EA43067FF4C5AE50EAFB
:1009000041047FF40DAF52EA43057FF4EBAE12E7EA
:100910004FF0FF3C06E000BF4FF0010C02E000BFCB
:100920004FF0010C4DF804CD4FEA410C7FEA6C5CAE
:100930004FEA430C18BF7FEA6C5C1BD001B050EA51
:10094000410C0CBF52EA430C91EA030F02BF90EA3C
:10095000020F0020704710F1000F91EA030F58BFFB
:10096000994208BF90422CBFD8176FEAE37040F05D
:10097000010070474FEA410C7FEA6C5C02D150EAFB
:10098000013C07D14FEA430C7FEA6C5CD6D152EAB6
:10099000033CD3D05DF8040B704700BF844610467B
:1009A00062468C461946634600E000BF01B5FFF77A
:1009B000B7FF002848BF10F1000F01BD4DF808ED4A
:1009C000FFF7F4FF0CBF012000205DF808FB00BF1B
:1009D0004DF808EDFFF7EAFF34BF012000205DF875
:1009E00008FB00BF4DF808EDFFF7E0FF94BF0120C2
:1009F00000205DF808FB00BF4DF808EDFFF7CEFFC3
:100A000094BF012000205DF808FB00BF4DF808ED01
:100A1000FFF7C4FF34BF012000205DF808FB00BFD2
:100A20004FEA410C7FEA6C5C02D150EA013C0AD1EA
:100A30004FEA430C7FEA6C5C02D152EA033C02D1DC
:100A40004FF0000070474FF0010070474FEA41023D
:100A500012F5001215D211D56FF47873B3EB625210
:100A600012D94FEAC12343F0004343EA505311F037
:100A7000004F23FA02F018BF404270474FF00000C9
:100A8000704750EA013005D111F0004008BF6FF007
:100A9000004070474FF00000704700BF4A0011D27D
:100AA00012F5001211D20DD56FF47873B3EB6252C8
:100AB0000ED44FEAC12343F0004343EA505323FAD4
:100AC00002F070474FF00000704750EA013002D149
:100AD0004FF0FF3070474FF0000070474FEA41027F
:100AE000B2F1E04324BFB3F5001CDCF1FE5C0DD98C
:100AF00001F0004C4FEAC0024CEA5070B2F1004FD6
:100B000040EB830008BF20F00100704711F0804FD8
:100B100021D113F13872BCBF01F00040704741F49D
:100B200080114FEA5252C2F11802C2F1200C10FAA1
:100B30000CF320FA02F018BF40F001004FEAC12385
:100B40004FEAD32303FA0CFC40EA0C0023FA02F329
:100B50004FEA4303CCE77FEA625307D150EA0133FF
:100B60001EBF4FF0FE4040F44000704701F00040CF
:100B700040F0FE4040F40000704700BF80F00040AD
:100B800002E000BF81F0004142001FBF5FEA410365
:100B900092EA030F7FEA226C7FEA236C6AD04FEA65
:100BA0001262D2EB1363C1BFD218414048404140AA
:100BB000B8BF5B42192B88BF704710F0004F40F45C
:100BC000000020F07F4018BF404211F0004F41F478
:100BD000000121F07F4118BF494292EA030F3FD044
:100BE000A2F1010241FA03FC10EB0C00C3F1200357
:100BF00001FA03F100F0004302D5494260EB4000E6
:100C0000B0F5000F13D3B0F1807F06D340084FEA50
:100C1000310102F10102FE2A51D2B1F1004F40EB45
:100C2000C25008BF20F0010040EA030070474900AD
:100C300040EB0000013A28BFB0F5000FEDD2B0FA4A
:100C400080FCACF1080CB2EB0C0200FA0CF0AABF6D
:100C500000EBC25052421843BCBFD040184370470B
:100C600092F0000F81F4000106BF80F40000013211
:100C7000013BB5E74FEA41037FEA226C18BF7FEAE8
:100C8000236C21D092EA030F04D092F0000F08BF2A
:100C90000846704790EA010F1CBF0020704712F011
:100CA0007F4F04D1400028BF40F00040704712F150
:100CB00000723CBF00F50000704700F0004343F0B5
:100CC000FE4040F4000070477FEA226216BF0846EB
:100CD0007FEA23630146420206BF5FEA412390EAAE
:100CE000010F40F4800070474FF0000304E000BFA4
:100CF00010F0004348BF40425FEA000C08BF704755
:100D000043F0964301464FF000001CE050EA010218
:100D100008BF70474FF000030AE000BF50EA01022D
:100D200008BF704711F0004302D5404261EB41011A
:100D30005FEA010C02BF84460146002043F0B6433F
:100D400008BFA3F18053A3F50003BCFA8CF2083A64
:100D5000A3EBC25310DB01FA02FC634400FA02FC6D
:100D6000C2F12002BCF1004F20FA02F243EB020074
:100D700008BF20F00100704702F1200201FA02FCD6
:100D8000C2F1200250EA4C0021FA02F243EB0200C9
:100D900008BF20EADC7070474FF0FF0C1CEAD0520D
:100DA0001EBF1CEAD15392EA0C0F93EA0C0F6FD0CE
:100DB0001A4480EA010C400218BF5FEA41211ED0AC
:100DC0004FF0006343EA501043EA5111A0FB013198
:100DD0000CF00040B1F5000F3EBF490041EAD3716D
:100DE0005B0040EA010062F17F02FD2A1DD8B3F1E9
:100DF000004F40EBC25008BF20F00100704790F058
:100E0000000F0CF0004C08BF49024CEA502040EAA9
:100E100051207F3AC2BFD2F1FF0340EAC25070476F
:100E200040F400004FF00003013A5DDC12F1190FAD
:100E3000DCBF00F000407047C2F10002410021FA1F
:100E400002F1C2F1200200FA02FC5FEA310040F137
:100E5000000053EA4C0308BF20EADC70704792F0B0
:100E6000000F00F0004C02BF400010F4000F013AE8
:100E7000F9D040EA0C0093F0000F01F0004C02BFE3
:100E8000490011F4000F013BF9D041EA0C018FE752
:100E90000CEAD15392EA0C0F18BF93EA0C0F0AD058
:100EA00030F0004C18BF31F0004CD8D180EA01007E
:100EB00000F00040704790F0000F17BF90F0004F17
:100EC000084691F0000F91F0004F14D092EA0C0FF9
:100ED00001D142020FD193EA0C0F03D14B0218BF8C
:100EE000084608D180EA010000F0004040F0FE40D2
:100EF00040F40000704740F0FE4040F4400070476E
:100F00004FF0FF0C1CEAD0521EBF1CEAD15392EAEC
:100F10000C0F93EA0C0F69D0A2EB030280EA010CDC
:100F200049024FEA402037D04FF0805343EA111175
:100F300043EA10130CF000408B4238BF5B0042F1D3
:100F40007D024FF4000C8B4224BF5B1A40EA0C0078
:100F5000B3EB510F24BFA3EB510340EA5C00B3EBAA
:100F6000910F24BFA3EB910340EA9C00B3EBD10F98
:100F700024BFA3EBD10340EADC001B0118BF5FEAEA
:100F80001C1CE0D1FD2A3FF650AF8B4240EBC25013
:100F900008BF20F0010070470CF0004C4CEA5020D4
:100FA0007F32C2BFD2F1FF0340EAC250704740F423
:100FB00000004FF00003013A37E792F0000F00F015
:100FC000004C02BF400010F4000F013AF9D040EA93
:100FD0000C0093F0000F01F0004C02BF490011F427
:100FE000000F013BF9D041EA0C0195E70CEAD1531F
:100FF00092EA0C0F08D142027FF47DAF93EA0C0F06
:101000007FF470AF084676E793EA0C0F04D14B02E9
:101010003FF44CAF08466EE730F0004C18BF31F09B
:10102000004CCAD130F000427FF45CAF31F0004395
:101030007FF43CAF5FE700BF4FF0FF3C06E000BF2E
:101040004FF0010C02E000BF4FF0010C4DF804CD51
:101050004FEA40024FEA41037FEA226C18BF7FEA61
:10106000236C11D001B052EA530C18BF90EA010F63
:1010700058BFB2EB030088BFC81738BF6FEAE170F2
:1010800018BF40F0010070477FEA226C02D15FEA8E
:10109000402C05D17FEA236CE4D15FEA412CE1D0FA
:1010A0005DF8040B704700BF844608466146FFE7C1
:1010B0000FB5FFF7C9FF002848BF10F1000F0FBDA3
:1010C0004DF808EDFFF7F4FF0CBF012000205DF89C
:1010D00008FB00BF4DF808EDFFF7EAFF34BF012021
:1010E00000205DF808FB00BF4DF808EDFFF7E0FFBA
:1010F00094BF012000205DF808FB00BF4DF808ED0B
:10110000FFF7D2FF94BF012000205DF808FB00BF6D
:101110004DF808EDFFF7C8FF34BF012000205DF84F
:1011200008FB00BF42000ED2B2F1FE4F0BD34FF0CE
:101130009E03B3EB126209D44FEA002343F000434D
:1011400023FA02F070474FF00000704712F1610F70
:1011500001D1420202D14FF0FF3070474FF0000042
:10116000704700BF38B50022002304460D46FFF744
:101170002FFC28B920462946BDE8384000F00AB8BF
:10118000204605F1004100F005F8404261EB4101C5
:1011900038BD00BFD0B500220B4B06460F46FFF707
:1011A000A5F9FFF77BFC0446FFF726F90022074B61
:1011B000FFF79CF902460B4630463946FEF7DEFF44
:1011C000FFF76CFC2146D0BD0000F03D0000F0416F
:1011D0004068C0F308007047C1F3080141607047E0
:1011E00008B50C4B0C4A1A60586000229A60DA600D
:1011F0001A610C2159619A61DA61184602F0EFFA1E
:1012000000B100BF034B1A68D36843F02003D360DA
:1012100008BD00BFD4020020003801404FF0000C90
:1012200001E00CF1010CBCF1030F08DC00EBCC0178
:101230000023072BF5DC0022CA540133F9E7002311
:1012400004E0C218002182F824100133072BF8DDD6
:1012500040230362704700207047000010B5FFF77D
:10126000FAFF104BDB6813F0200F19D004460D4B2A
:101270001B6813F0200F13D00A4B1B6813F0200FCC
:10128000FAD00848FFF7A4FF074B23F81400012306
:1012900003FA04F0C04340B2044A137803401370C9
:1012A00010BD00BF00380140640200206E02002023
:1012B00010B50446FFF7CFFF012303FA00F0084AF8
:1012C00013780343DBB2137021460648FFF784FF0F
:1012D000054B1B681B6813F0400FF9D010BD00BF11
:1012E0006E02002000380140D4020020FF2814BF05
:1012F000002001207047000008B5FFF7ACFF4FF455
:101300007A7200E01A46074B1B78034113F0010F75
:1013100003D0531E9BB2002AF4D1034B33F81000C4
:1013200080B208BD6E0200206402002010B54FF4A8
:101330001650FFF755FFF020FFF7BAFFFFF7DCFF6D
:1013400004464FF4E130FFF74BFF204610BD024644
:101350000846002305E000210170013052080133E6
:10136000DBB2072B05D812F0010FF4D0FF2101707A
:10137000F3E7704710B582B06946FFF7E8FF002435
:1013800007E004F108036B4413F8080CFFF790FF23
:101390000134072CF5DD02B010BD10B504464FF046
:1013A000000E704616E00133DBB2072B0CD88CEA36
:1013B000000212F0010F4FEA50004FEA5C0CF2D02D
:1013C00080F08C00C0B2EEE70EF1010E5FFA8EFEE7
:1013D0008E4503D214F80EC00023E6E710BD08B511
:1013E0000721FFF7DAFF08BD2DE9F84380460F46D5
:1013F000FFF79CFFF0285CD0F020FFF7BBFF4FF019
:10140000FF3900251CE0012C2CD14FF0FF30BDE846
:10141000F883D8F820309D4236D032DC08EB060342
:1014200093F8244005F007031C4114F001041DD17A
:10143000A9462046FFF73CFF0135EDB23F2D25D8E8
:10144000EE08FF20FFF734FFFFF756FFFFF74EFFD0
:101450000446FF20FFF72CFFFFF74EFFFFF746FF84
:101460008442D0D08442D4D0002CE2D0BB5D05F0C1
:10147000070101228A401343BB55002CD9D0FF2419
:10148000D7E7A9460024EFE70124EFE7C8F820904A
:10149000002306E0F95C08EB030282F82410013314
:1014A000DBB2062BF6D9B9F1000FD4BF0020012022
:1014B000ADE70020ABE738B50546FFF7AFFE0024E7
:1014C00005EBC4012846FFF78FFF002805DB013438
:1014D00008B1032CF4DD204638BD4FF0FF34FAE7A5
:1014E00038B50546FFF722FF5520FFF743FF0024DC
:1014F00003E0285DFFF73EFF0134072CF9DD38BD1E
:1015000008B50846FFF7ECFF4420FFF733FF08BD9E
:1015100070B516460B78102B03D0282B01D030461F
:1015200070BD0846FFF7DCFFBE20FFF723FF002455
:1015300008E0735D04F0070101228A4013437355EC
:101540000134A4B2472CEAD8C4F3C705C5F1080595
:10155000EDB2FF20FFF7ACFEFFF7CEFEFFF7C6FEB1
:101560000128E6D0725D04F0070101238B40DB43C4
:101570005BB213407355E3E770B586B005460C4681
:10158000164600238DF810308DF811300B78102B93
:1015900025D0282B32D101AAFFF7BAFF9DF80B20E6
:1015A000120152B29DF80C3042EA13128DF810204D
:1015B00003F00F0303EB8303DB088DF8113016BB38
:1015C000BDF81030ADF8143000209DF8143063F3EE
:1015D00007009DF8153063F30F2006B070BD01AA17
:1015E000FFF796FF9DF80C305A088DF8102003F095
:1015F000010303EB83038DF81130E0E7BDF81030F1
:10160000ADF81430E0E721462846FFF779FFD7E729
:101610002DE9F04186B0FFF789FEF02806D1404B56
:10162000404A1A60404B00221A6067E03F48FFF7CB
:1016300042FFC0B23E4A107088B9394B394A1A602D
:10164000394B00221A60384B1A68354B1B689A4296
:10165000F3D200BF344A136801331360F3E7324B0F
:1016600000221A6005E0334A14E02F4A1368013360
:1016700013602D4B1D682E4B1B78AB42CFD92B4CE2
:1016800004EBC5042046FFF7AAFE0646E179814235
:10169000E9D0294A294B1A60294840F8045B234CB9
:1016A00014F8352004EBC504A3796579277994F8FB
:1016B00003C094F802E094F801800591CDF8108001
:1016C000CDF80CE0CDF808C0019700951D4903F056
:1016D0007DF9E379B342C8D0134B1B68184C44F82A
:1016E000043B194D0FCD0FC495E80F0007C42370BC
:1016F000BBE700BF0C4A1368013313600A4B1A683A
:10170000074B1B689A42F4D30A490C4B1868FEF742
:101710001FFD10B906B0BDE8F0814FF0FF30F9E7CA
:101720000000002040420F00FC01002000020020C9
:101730002C0200206882000870820008F40100205A
:10174000300200207C820008A482000810B5254BDE
:1017500000221A601CE02448012200EBC101FFF7BF
:101760000BFF224B188093F9000000EB80005B78A0
:1017700003EB4000FFF7BCFA1A4B1C681C49FFF74B
:10178000BFFB1C4B43F82400164A13680133136057
:10179000144B1968184B1B788B4221D9124B13F844
:1017A0003130102B02D0282BEED1D4E70E48012285
:1017B00000EBC101FFF7E0FE0C4B188093F900002D
:1017C00000EB80005B7803EB4000FFF791FA054BDC
:1017D0001C680749FFF794FB064B43F82400D3E746
:1017E00010BD00BFFC01002000020020F801002015
:1017F00000002041540200202C02002000B585B0DA
:1018000001F0F0030901C9B243F00C028DF80C207D
:1018100043F008038DF80D3041F00C038DF80E30C5
:1018200041F008018DF80F1064230093042303AAEC
:101830000179006801F020F905B000BD00B585B060
:1018400001F0F0030901C9B243F00D028DF80C203C
:1018500043F009038DF80D3041F00D038DF80E3083
:1018600041F009018DF80F1064230093042303AAAB
:101870000179006801F000F905B000BD38B50546F2
:101880008021FFF7BBFF002404E020212846FFF75A
:10189000D5FF01344F2CF8DD38BD08B5032A08D830
:1018A000DFE802F002080C10C9B281F08001FFF7F6
:1018B000A5FF08BDC9B24039C9B2F8E7C9B26C3951
:1018C000C9B2F4E7C9B22C39C9B2F0E710B5044681
:1018D000322000F0C5FC30212046FFF78FFF0520A5
:1018E00000F0BEFC30212046FFF788FF012000F009
:1018F000B7FC30212046FFF781FF0A2000F0B0FC42
:1019000020212046FFF77AFF0A2000F0A9FC2821B9
:101910002046FFF773FF012000F0A2FC08212046BB
:10192000FFF76CFF012000F09BFC01212046FFF730
:1019300065FF022000F094FC06212046FFF75EFFC1
:10194000012000F08DFC0C212046FFF757FF10BD51
:1019500038B505460C4603E001342846FFF76EFF14
:1019600021780029F8D138BD70B588B004AD0024C5
:101970000494059406940794174B9A6942F0200248
:101980009A619A6902F020020192019A9A6942F0E2
:1019900004029A619A6902F004020292029A9A6918
:1019A00042F008029A619B6903F008030393039BCA
:1019B0000A4E22460421304600F032FE04230493EE
:1019C000012305930694022307932946304600F02D
:1019D0001DFD08B070BD00BF00100240000C0140AA
:1019E000114B834200D0704710B5104C01222146A4
:1019F000184601F097FF2378782B0ED0582B0CD087
:101A00000B490A780B488354084B002018700A4B86
:101A10000120187002440A7010BD0023044A13709C
:101A2000024A1370F8E700BF9402002088020020E9
:101A300070020020740200206F02002072B6FEE7E0
:101A400008B50A480A4B03604FF4E13343600023B2
:101A50008360C36003610C2242618361C36101F052
:101A6000BEFE00B908BDFFF7E9FF00BFD4020020A9
:101A70000038014008B50A480A4B03600A4B43602E
:101A800000238360C3604FF480420261436183613D
:101A9000C361036200F01CFF00B908BDFFF7CEFF71
:101AA000A803002000540040A086010008B50A48A1
:101AB0000A4B03604FF41653436000238360C360F6
:101AC00003610C2242618361C36101F059FE00B9D8
:101AD00008BDFFF7B3FF00BF9402002000440040A0
:101AE00008B50A480A4B03600A4B43600023836031
:101AF000C3604FF48042026143618361C36103624A
:101B000000F0E6FE00B908BDFFF798FF540300207F
:101B100000580040A086010000B58BB00023089358
:101B200009930193029303930493059306930793F8
:101B30001548164A02601C22426083604FF6FF720D
:101B4000C2600361836101F039FCB8B900230893D6
:101B5000099308A90C4801F015FD88B97023019379
:101B6000002202920392059201A9074801F06EFC3F
:101B700040B9054800F0CCF90BB000BDFFF75EFF9F
:101B8000FFF75CFFFFF75AFF14030020000400403A
:101B900010B590B006AC28220021204602F07CFF50
:101BA0000023019302930393049305930122069269
:101BB0004FF4803307930A9202220D920E934FF452
:101BC000E0130F93204601F027F878B90F23019313
:101BD00002210291002303934FF480620492059343
:101BE00001A801F059FA18B910B010BDFFF726FF8F
:101BF000FFF724FF2DE9F0418AB000F00DFBFFF75D
:101C0000C7FFFFF7B1FEFFF71BFFFFF733FFFFF73B
:101C10004DFFFFF765FFFFF77FFF4FF4FA7000F00D
:101C20001FFB684C684B23604E2323712046FFF74F
:101C30004DFE4FF4FA7000F013FB2046FFF71EFE36
:101C4000642000F00DFB61492046FFF781FE002271
:101C500005212046FFF721FE00215D4801F074FCBC
:101C6000FFF7D6FCFFF772FD00F0F4FA064600F02D
:101C7000F1FA074601225749574801F053FE002464
:101C800025463EE0554B1B78612B0FD0622B3CD193
:101C9000534B4FF480221A61504A00231360536063
:101CA0009360D36013614F4A13702EE04C4B0422B3
:101CB0001A614A4A0023136053609360D360136132
:101CC000484A137021E03F4C012200212046FFF7D3
:101CD000E4FD45492046FFF73BFE0024254622E06F
:101CE000002642493046FFF757F8FFF71BFAC0B20B
:101CF0003F4B18701B78DBB23E4A536300F0AAFAE0
:101D00000646384B1B78012BBCD000F0A3FAC11B50
:101D1000B1F5FA7F31D30135EDB20134E4B2642D6F
:101D2000D1D0642CCFD00DF1080823462A46324981
:101D3000404602F04BFE234F012200213846FFF7B8
:101D4000ACFD41463846FFF703FE234F64232022B3
:101D50004146384601F078FD0A238DF8073001220C
:101D60000DF10701384601F06FFD0122194938468F
:101D700001F0D8FD00F06EFA074600F06BFA811B07
:101D8000B1F5FA6FBDD3FFF7E1FC1C4B1868FFF704
:101D9000C9F9C0B2FEF7ACFF1949FEF7F3FE1949C5
:101DA000FFF7AEF806460021FFF794F9002897D117
:101DB0004FF07E513046FFF7ABF9002891D04FF03D
:101DC0007E568EE78C020020A8030020C482000803
:101DD00014030020880200209402002074020020D6
:101DE000000C01406F020020CC8200080000C842B5
:101DF000FC03002000040040D882000854020020A8
:101E000000000C420000A04182B00A4B9A6942F0E7
:101E100001029A619A6902F001020092009ADA695D
:101E200042F08052DA61DB6903F080530193019B39
:101E300002B070470010024010B588B00023049330
:101E40000593069307930368224A934204D0224ADB
:101E500093421FD008B010BD204CA36943F0080383
:101E6000A361A36903F008030093009BC0230493BC
:101E7000122305930323079304A9194800F0C6FA17
:101E8000E36943F40013E361E36903F4001301938E
:101E9000019BDFE7114CA36943F00803A361A36929
:101EA00003F008030293029B4FF440630493122350
:101EB00005930323079304A9094800F0A7FAE369EF
:101EC00043F48003E361E36903F480030393039B1A
:101ED000C0E700BF0054004000580040001002401E
:101EE000000C01400268094B9A4200D0704782B052
:101EF00003F50333DA6942F00202DA61DB6903F0C9
:101F000002030193019B02B0704700BF0004004030
:101F100000B587B0002302930393049305930268EE
:101F20000C4B9A4201D007B000BD03F503339A6908
:101F300042F004029A619B6903F004030193019B40
:101F40004023029302230393059302A9024800F061
:101F50005DFAE8E7000400400008014070B588B071
:101F60000023049305930693079303682F4A934233
:101F700004D02F4A934228D008B070BD2D4B9A69E7
:101F800042F480429A619A6902F480420092009A77
:101F90009A6942F004029A619B6903F00403019379
:101FA000019B4FF4007304931223059303230793BB
:101FB00004A9214800F02AFA00221146252000F049
:101FC000A7F9252000F0B4F9D6E71A4BDA6942F4F4
:101FD0000032DA61DA6902F400320292029A9A69F6
:101FE00042F004029A619B6903F004030393039B8C
:101FF00004230493022305930323079304AE0E4D99
:102000003146284600F002FA082304930024059480
:1020100006943146284600F0F9F92246214626204A
:1020200000F076F9262000F083F9A5E7003801409A
:10203000004400400010024000080140FEE7FEE7B7
:10204000FEE7FEE7FEE770477047704708B500F00F
:10205000F5F808BD08B5FFF701F9024801F0F0FCFA
:1020600008BD00BFD402002008B5024801F0E8FC1A
:1020700008BD00BF940200200120704708B502F09F
:102080005DFD162303604FF0FF3008BD08B54FF02B
:10209000FF31FFF7F3FFFEE770B50C46164600254B
:1020A00006E0AFF30080214601F8010B01350C4634
:1020B000B542F6DB304670BD70B50C4616460025BD
:1020C00004E014F8010BAFF300800135B542F8DBF2
:1020D000304670BD4FF0FF3070474FF400534B60F7
:1020E00000207047012070470020704710B503465C
:1020F0000C4A0D490D48006840B10C480068034483
:10210000521A934206D8094A136010BD0748084C7A
:102110000460F2E702F012FD0C2303604FF0FF3081
:10212000F3E700BF0050002000040000000400207E
:10213000580500200F4B1A6842F001021A605968D6
:102140000D4A0A405A601A6822F0847222F48032E2
:102150001A601A6822F480221A605A6822F4FE0279
:102160005A604FF41F029A60044B4FF000629A606D
:10217000704700BF001002400000FFF800ED00E0D3
:10218000002103E00B4B5B58435004310A480B4BD2
:1021900042189A42F6D30A4A02E0002342F8043B6E
:1021A000084B9A42F9D3FFF7C5FF02F0CDFCFFF7C9
:1021B00021FD70474487000800000020D80100205E
:1021C000D801002054050020FEE7000010B50446A9
:1021D0000E4B18680E4B1A784FF47A73B3FBF2F378
:1021E000B0FBF3F000F0B2F868B90F2C01D9012070
:1021F0000AE0002221464FF0FF3000F089F8054B3D
:102200001C60002000E0012010BD00BF0400002081
:10221000080000200C00002008B5074A136843F0AE
:1022200010031360032000F061F80F20FFF7CEFFCA
:10223000FFF7EAFD002008BD00200240034A1168B4
:10224000034B1B780B441360704700BF040400204D
:1022500008000020014B1868704700BF04040020EC
:1022600038B50446FFF7F6FF0546B4F1FF3F02D04C
:10227000044B1B781C44FFF7EDFF401BA042FAD330
:1022800038BD00BF08000020002808DB0901C9B2E2
:1022900000F1604000F5614080F80013704700F0E5
:1022A0000F000901C9B2014B1954704714ED00E049
:1022B00000B500F00700C0F1070CBCF1040F28BF07
:1022C0004FF0040C031D062B0ED9C31E4FF0FF3E2A
:1022D0000EFA0CF021EA000199400EFA03FE22EA00
:1022E0000E0241EA020000BD0023EFE7074AD3686F
:1022F00023F4E0631B041B0C000200F4E0600343C2
:1023000043F0BF6343F40033D360704700ED00E057
:1023100010B50446054BD868C0F30220FFF7C8FF8C
:1023200001462046FFF7B0FF10BD00BF00ED00E002
:10233000002807DB00F01F02400901239340024AF6
:1023400042F82030704700BF00E100E00138B0F1F2
:10235000807F0BD24FF0E0235861054AF02182F8CC
:1023600023100020986107221A61704701207047EE
:1023700000ED00E008B590F82130022B03D00423D3
:102380008363012008BD0268136823F00E03136005
:102390000268136823F0010313600368194A93422B
:1023A00014D0143293421FD0143293421ED01432F0
:1023B00093421ED0143293421ED01432934202D064
:1023C0004FF0807203E04FF4801200E001220E4BC8
:1023D0005A60012380F82130002380F82030436BBD
:1023E0006BB198470020CDE71022F0E74FF48072E0
:1023F000EDE74FF48052EAE74FF48032E7E7002040
:10240000C0E700BF080002400000024070B582B083
:102410000024A4469EE07C4DAB4214D00CD8A5F518
:102420008015AB420FD005F57025AB420BD0A5F55A
:102430008015AB421FD106E0744DAB4203D005F5C9
:102440008035AB4217D18B68A3B1012B0DD042610F
:10245000082410E0CC680EE0CC6804340BE0CC68B3
:10246000083408E0CC680C3405E00261082402E07E
:10247000002400E00424BEF1FF0F37D806464FEADF
:102480008C0233680F25954023EA050304FA02F213
:10249000134333604B6813F0805F59D05C4B9A69EB
:1024A00042F001029A619B6903F001030193019BD1
:1024B0004FEA9C02951C574B53F825600CF003051E
:1024C000AD000F23AB4026EA0306534B984214D0CD
:1024D00003F58063984279D003F58063984277D002
:1024E00003F58063984206D0042307E0061DACF193
:1024F00008029200C5E7032300E00023AB4033430A
:102500000232444D45F822304B6813F4803F61D0CD
:10251000424A136843EA0E0313604B6813F4003F0A
:102520005ED03E4A536843EA0E0353604B6813F48F
:10253000801F5BD0394A936843EA0E0393604B686F
:1025400013F4001F58D0354AD36843EA0E03D36012
:102550000CF1010C0B6833FA0CF253D0012202FA91
:102560000CF203EA020E32EA0303F1D14B68122B9C
:102570003FF651AF122B3FF67EAF01A555F823F081
:1025800047240008552400085F240008712400082F
:1025900077240008772400087724000877240008AF
:1025A000772400087724000877240008772400089F
:1025B000772400087724000877240008772400088F
:1025C000772400085924000865240008012395E7B2
:1025D000022393E7114A136823EA0E0313609CE772
:1025E0000E4A536823EA0E0353609FE70B4A936831
:1025F00023EA0E039360A2E7084AD36823EA0E0396
:10260000D360A5E702B070BD0000221000003110B9
:102610000010024000000140000801400004014099
:102620000AB10161704709040161704703685A6982
:1026300012F4806F01D1002070476FF480625A61FC
:1026400000230363202280F83D2080F83E30026C96
:1026500042F00402026480F83C30012070472DE90A
:10266000F04107460D4690461E4624E0FFF7F2FD76
:10267000069BC01AB04200D8EEB900233B6320226B
:1026800087F83D2087F83E303A6C42F020023A64E9
:1026900087F83C3001201EE03B689C6925EA040C69
:1026A0001FFA8CFCBCFA8CFC4FEA5C1CE04511D193
:1026B000B6F1FF3FDAD1C5F30743012BECD13B68FC
:1026C0005B6925EA030C1FFA8CFCBCFA8CFC4FEA10
:1026D0005C1CEBE70020BDE8F0812DE9F0410546E8
:1026E0000E46174698463DE01A6842F400721A609A
:1026F0002B686FF480625A6100232B63202285F8D7
:102700003D2085F83E302A6C42F004022A6485F8A8
:102710003C30012034E0FFF79DFDA0EB0800B842FB
:1027200000D8FFB900232B63202285F83D2085F8CF
:102730003E302A6C42F020022A6485F83C300120A9
:102740001EE02B689C6926EA0404A4B2003C18BF72
:102750000124A4B12B685A6912F4806FC4D1B7F177
:10276000FF3FD8D1C6F30743012BEAD12B685C6940
:1027700026EA0404A4B2003C18BF0124E9E70020C3
:10278000BDE8F081F0B583B004460D4616461F46FD
:10279000C36A082B0DD0012B0BD013F5803F08D056
:1027A000036B122B0AD10268136843F48073136021
:1027B00004E02268136843F4807313600097334683
:1027C00000224FF001112046FFF749FF10BB23699B
:1027D000B3F5804F0CD1236805F0FE051D613B4623
:1027E00032460F492046FFF778FFB8B903B0F0BD75
:1027F000EB11226803F0060343F0F00313613B463C
:10280000324608492046FFF768FF28B92368EDB231
:102810001D61E4E70120E9E70120E7E70120E5E7A2
:10282000020001000800010070B504460D4616467E
:1028300023685B6913F0800F1CD12046FFF7F6FE7A
:10284000D0B9B5F1FF3FF3D0FFF704FD801BA842DC
:1028500001D8002DECD100232363202284F83D20F1
:1028600084F83E30226C42F02002226484F83C302E
:10287000012000E0002070BD0120FCE770B5044697
:102880000D46164623685B6913F0040F1CD12046E1
:10289000FFF7CCFED0B9B5F1FF3FF3D0FFF7DAFC7C
:1028A000801BA84201D8002DECD1002323632022F5
:1028B00084F83D2084F83E30226C42F020022264ED
:1028C00084F83C30012000E0002070BD0120FCE7CE
:1028D000002800F0C28070B5044690F83D30002B0F
:1028E0006DD0242384F83D302268136823F001035F
:1028F000136000F08DFC62685A4B9A4264D85A4BC0
:1029000098428CBF00230123002B40F0A880574938
:10291000A1FB00318B0C25686A6822F03F0242EA75
:1029200091426A6021680A6A22F03F0266684D4D52
:10293000AE424FD8013313430B622168CA6922F4B7
:102940004F4222F0FF026568464B9D424CD8431E21
:102950006D00B3FBF5F3013340F6FC70034278D011
:10296000C3F30B031A43CA6121680B6823F0C00349
:10297000E269206A024313430B6021688B6823F4E9
:10298000034323F0FF032269E068024313438B6093
:102990002168CB6823F0FF036269A06902431343F7
:1029A000CB602268136843F00103136000202064A9
:1029B000202384F83D30206384F83E0070BD80F809
:1029C0003C30FFF739FA8CE7294B98428CBF002343
:1029D000012399E74FF4967505FB03F3254DA5FBFD
:1029E00003539B090133A6E7A668BEB9431E05EB56
:1029F000450CB3FBFCF30133C3F30B03B3FA83F3CE
:102A00005B0943BBC6B9431E05EB4505B3FBF5F3B4
:102A10000133C3F30B0343F40043A3E7431E05EB69
:102A2000850C0CEB8C0CB3FBFCF30133C3F30B03F1
:102A3000B3FA83F35B09E4E7431E05EB850505EB79
:102A40008505B3FBF5F30133C3F30B0343F44043B4
:102A500088E7042386E7012384E7012070470120EB
:102A6000ACE700BFA08601007F841E0083DE1B430D
:102A7000FF083D00D34D62102DE9F04385B00446B8
:102A80000F46904699460C9EFFF7E4FB94F83D10E4
:102A9000202904D00227384605B0BDE8F08305465A
:102AA0000090192301224F492046FFF7D8FD002846
:102AB00040F0928094F83C30012B00F08F8001238D
:102AC00084F83C3023681A6812F0010F03D11A68A9
:102AD00042F001021A602268136823F40063136055
:102AE000212384F83D30102384F83E3000232364F2
:102AF000C4F82480A4F82A90638D23853A4BE362BE
:102B00002B46324639462046FFF73CFE0746002852
:102B100066D10023039323685A6903929B69039348
:102B2000039B11E0236C042B01D00127B3E722683B
:102B3000136843F400731360F7E72A4631462046D2
:102B4000FFF79CFE00282ED1238D002B36D02A467D
:102B500031462046FFF768FE0028E3D1626A236809
:102B600012781A61606A431C6362618D89B201390F
:102B700089B26185238D013B9BB22385226851690F
:102B800011F0040FD9D0002BD7D043781361636ABA
:102B900001336362638D9BB2013B9BB26385238DDE
:102BA000013B2385C9E7236C042B01D0012772E781
:102BB0002268136843F400731360F7E72268136810
:102BC00043F400731360202384F83D30002384F81D
:102BD0003E3084F83C305EE702275CE702275AE784
:102BE000012758E7020010000000FFFF82B0084BE9
:102BF0001B68084AA2FB03235B0A00FB03F3019353
:102C000000BF019B5A1E0192002BF9D102B0704700
:102C100004000020D34D6210002800F0F18170B54F
:102C200082B00446036813F0010F2CD0994B5B6807
:102C300003F00C03042B1DD0964B5B6803F00C03D0
:102C4000082B12D06368B3F5803F41D0002B55D1DB
:102C500003F1804303F504331A6822F480321A60CA
:102C60001A6822F480221A6037E08A4B5B6813F4FA
:102C7000803FE7D0874B1B6813F4003F03D06368A5
:102C8000002B00F0BF81236813F0020F75D0814B39
:102C90005B6813F00C0F5FD07E4B5B6803F00C0396
:102CA000082B54D02369002B00F08A807A4B012234
:102CB0001A60FFF7CFFA0546764B1B6813F0020F38
:102CC00075D1FFF7C7FA401B0228F5D903209EE112
:102CD000704A136843F480331360636843B3FFF7AB
:102CE000B9FA05466B4B1B6813F4003FCBD1FFF7D5
:102CF000B1FA401B6428F5D9032088E1B3F5A02F71
:102D000009D0644B1A6822F480321A601A6822F4DF
:102D100080221A60E1E703F18043A3F53C331A688F
:102D200042F480221A601A6842F480321A60D4E7B2
:102D3000FFF790FA0546574B1B6813F4003FA2D0EB
:102D4000FFF788FA401B6428F5D903205FE1514B57
:102D50005B6813F4803FA5D14E4B1B6813F0020F44
:102D600003D02369012B40F04F814A4A136823F0B6
:102D7000F803616943EAC1031360236813F0080F85
:102D800033D0A369002B5CD0434B0122C3F88024CD
:102D9000FFF760FA05463F4B5B6A13F0020F21D143
:102DA000FFF758FA401B0228F5D903202FE1394AD2
:102DB000136823F0F803616943EAC1031360DCE799
:102DC000354B00221A60FFF745FA0546314B1B6868
:102DD00013F0020FD1D0FFF73DFA401B0228F5D9BE
:102DE000032014E10120FFF701FF236813F0040F13
:102DF00000F09680274BDB6913F0805F34D1254BC0
:102E0000DA6942F08052DA61DB6903F080530193A2
:102E1000019B0125214B1B6813F4807F26D0E368BA
:102E2000012B3DD0002B53D103F1804303F5043334
:102E30001A6A22F001021A621A6A22F004021A6265
:102E400033E0154B0022C3F88024FFF703FA054650
:102E5000104B5B6A13F0020FC7D0FFF7FBF9401B62
:102E60000228F5D90320D2E00025D3E70B4A1368E6
:102E700043F480731360FFF7EDF90646074B1B68B8
:102E800013F4807FCBD1FFF7E5F9801B6428F5D9D7
:102E90000320BCE0001002400000424200700040ED
:102EA0005F4A136A43F001031362E36833B3FFF729
:102EB000D1F906465A4B1B6A13F0020F2FD1FFF7C8
:102EC000C9F9801B41F288339842F3D903209EE070
:102ED000052B09D0524B1A6A22F001021A621A6AB3
:102EE00022F004021A62E0E74D4B1A6A42F0040233
:102EF0001A621A6A42F001021A62D6E7FFF7AAF9CB
:102F00000646474B1B6A13F0020F08D0FFF7A2F9E1
:102F1000801B41F288339842F3D9032077E0E5B96A
:102F2000E369002B72D03E4A526802F00C02082A74
:102F300056D0022B17D03B4B00221A66FFF78AF9B6
:102F40000446374B1B6813F0007F47D0FFF782F928
:102F5000001B0228F5D9032059E0314AD36923F038
:102F60008053D361DCE72F4B00221A66FFF772F91A
:102F700005462B4B1B6813F0007F06D0FFF76AF95C
:102F8000401B0228F5D9032041E0236AB3F5803FB6
:102F90001AD023494B6823F47413226A606A0243EF
:102FA00013434B601F4B01221A66FFF753F9044687
:102FB0001B4B1B6813F0007F0ED1FFF74BF9001B72
:102FC0000228F5D9032022E0154A536823F4003380
:102FD000A1680B435360DCE7002018E0002016E0F6
:102FE000012B16D00E4B5B6803F48031226A9142AC
:102FF00011D103F47013626A93420ED1002006E0EF
:1030000001207047012002E0012000E0002002B012
:1030100070BD0120FBE70120F9E70120F7E700BFC1
:10302000001002400000424286B0174B0FCB0DF15A
:10303000180C0CE90F0040F20123ADF80430134BDB
:103040005B6803F00C02082A02D0114806B07047F2
:10305000C3F3834218326A4412F8100C13F4803F11
:103060000DD00A4B5B68C3F3404318336B4413F82D
:10307000143C074A02FB00F0B0FBF3F0E6E7054B17
:1030800003FB00F0E2E700BFE0820008001002400E
:1030900000127A0000093D00002800F0A08070B501
:1030A0000D460446524B1B6803F007038B420BD2BC
:1030B0004F4A136823F007030B431360136803F0B0
:1030C00007038B4240F08D80236813F0020F17D066
:1030D00013F0040F04D0474A536843F4E06353608D
:1030E000236813F0080F04D0424A536843F4605336
:1030F0005360404A536823F0F003A1680B435360C8
:10310000236813F0010F31D06368012B20D0022B0C
:1031100025D0384A126812F0020F64D035494A6847
:1031200022F0030213434B60FFF794F80646314B3D
:103130005B6803F00C036268B3EB820F16D0FFF7F5
:1031400089F8801B41F288339842F0D9032045E08A
:10315000284A126812F4003FE0D101203EE0254ADF
:10316000126812F0007FD9D1012037E0204B1B6894
:1031700003F00703AB420AD91D4A136823F0070383
:103180002B431360136803F00703AB422DD1236870
:1031900013F0040F06D0174A536823F4E063E16884
:1031A0000B435360236813F0080F07D0114A53688C
:1031B00023F46053216943EAC1035360FFF734FFEE
:1031C0000C4B5B68C3F303130B4AD35CD8400B4B27
:1031D00018600B4B1868FEF7F9FF002070BD012046
:1031E00070470120FAE70120F8E70120F6E700BF69
:1031F0000020024000100240FC8200080400002071
:103200000C000020014B1868704700BF040000202C
:1032100008B5FFF7F7FF044B5B68C3F30223034ACB
:10322000D35CD84008BD00BF00100240F482000803
:1032300008B5FFF7E7FF044B5B68C3F3C223034AFB
:10324000D35CD84008BD00BF00100240F4820008E3
:1032500030B4036A23F001030362026A456883699C
:1032600023F073030C681C4322F002028B681343A3
:103270000B4A904206D0456084614A68426303620B
:1032800030BC704723F00803CA681A4322F00403D5
:1032900025F440754A692A438D691543EBE700BF61
:1032A000002C014030B4036A23F480730362036A84
:1032B0004468C26922F073020D68154323F4007359
:1032C0008A6843EA02230D4A904206D04460C561F1
:1032D0004A68C263036230BC704723F40063CA6863
:1032E00043EA022323F4806324F440544A6944EA05
:1032F00002148A6944EA0214E8E700BF002C014086
:1033000030B4036A23F480530362036A4468C269D9
:1033100022F4E6420D6842EA052223F400538D6848
:1033200043EA0533074DA84206D04460C2614A68AB
:103330000264036230BC704724F480444D6944EA5F
:103340008514F2E7002C014003681B4A90420AD022
:10335000B0F1804F07D0A2F59432904203D002F52D
:103360008062904203D123F070034A681343124AEB
:1033700090420AD0B0F1804F07D0A2F5943290422B
:1033800003D002F58062904203D123F44073CA68EF
:10339000134323F080034A69134303608B68C362BD
:1033A0000B688362044B984202D00123436170474B
:1033B0000B690363F9E700BF002C0140B0B110B501
:1033C000044690F83D3063B1022384F83D30214635
:1033D00051F8040BFFF7B8FF012384F83D300020BB
:1033E00010BD80F83C30FEF77DFDEDE70120704711
:1033F00030B4036A23F010030362036A44688269ED
:1034000022F4E6420D6842EA052223F020038D688B
:1034100043EA05130C4DA84206D0446082614A6815
:103420008263036230BC704723F08003CD6843EAB7
:10343000051323F0400324F440644D6944EA8504F5
:103440008D6944EA8504E8E7002C014038B590F81E
:103450003C30012B66D004460D46012380F83C30F9
:10346000022380F83D300C2A1AD8DFE802F0071951
:103470001919201919193419191947000068FFF78B
:10348000E7FE2268936943F0080393612268936919
:1034900023F0040393612268936929690B439361C4
:1034A000012384F83D30002084F83C0038BD0068DA
:1034B000FFF79EFF2268936943F4006393612268DB
:1034C000936923F48063936122689369296943EACD
:1034D00001239361E4E70068FFF7E4FE2268D36903
:1034E00043F00803D3612268D36923F00403D36156
:1034F0002268D36929690B43D361D1E70068FFF7DC
:10350000FFFE2268D36943F40063D3612268D36964
:1035100023F48063D3612268D369296943EA0123D4
:10352000D361BDE70220C1E701F01F014FF0010C9C
:103530000CFA01FC036A23EA0C030362036A8A4063
:10354000134303627047000010B50446012200686F
:10355000FFF7EAFF23680A4A93420BD02268936878
:1035600003F00703062B03D0136843F00103136035
:10357000002010BD5A6C42F400425A64EEE700BFCE
:10358000002C014090F83C20012A1DD030B50346A4
:103590004FF0010E80F83CE0022280F83D200068E8
:1035A0004468856824F070040A68144325F0800C90
:1035B0004A6842EA0C02446019688A6083F83DE078
:1035C000002083F83C0030BD022070470268D368B9
:1035D00023F49073D3600268536923F001035361AD
:1035E000202380F83A30704790F83930212B01D0F1
:1035F000022070478368B3F5805F17D0036A5A1CB6
:1036000002621A7803685A60C38C9BB2013B9BB27A
:10361000C3844BB90268D36823F08003D360026887
:10362000D36843F04003D36000207047036A1B88CF
:103630000268C3F30803536003691BB9036A0233CA
:103640000362E1E7036A01330362DDE710B5044674
:103650000268136923F44053C1680B431361836804
:103660000269134342691A430168CB6823F4B053DB
:1036700023F00C031343CB600268536923F44073B7
:1036800081690B4353610268214B9A421FD0FFF7B7
:10369000BFFD00EB800202EB820263689B00B2FB7D
:1036A000F3F21C48A0FB02314909642303FB1123F8
:1036B0001B013233A0FB03035B0903F0F00202EBB2
:1036C000011203F00F03216813448B6010BDFFF754
:1036D000AFFD00EB800000EB800063689B00B0FB57
:1036E000F3F00C4AA2FB00314909642303FB1103E8
:1036F0001B013233A2FB03235B0903F0F00202EB50
:10370000011203F00F03216813448B60DEE700BF52
:10371000003801401F85EB512DE9F84305460F465F
:1037200016469946DDF820802B681C6837EA0404A9
:103730000CBF01240024B4421FD1B8F1FF3FF3D0E5
:10374000B8F1000F05D0FEF785FDA0EB090040455C
:10375000EAD92A68D36823F4D073D3602A685369FE
:1037600023F001035361202385F8393085F83A307E
:10377000002385F83830032000E00020BDE8F883FE
:1037800058B310B5044690F839300BB3242384F8AD
:1037900039302268D36823F40053D3602046FFF702
:1037A00055FF2268136923F490431361226853691B
:1037B00023F02A0353612268D36843F40053D36093
:1037C0000020E063202384F8393084F83A3010BDBB
:1037D00080F83830FEF7C2FBD8E701207047002898
:1037E00030D010B5044690F8393033B3242384F830
:1037F00039302268D36823F40053D3602046FFF7A2
:1038000025FF2268136923F49043136122685369EA
:1038100023F0220353612268536943F00803536184
:103820002268D36843F40053D3600020E063202370
:1038300084F8393084F83A3010BD80F83830FEF71B
:103840008DFBD3E7012070472DE9F04182B01E4681
:1038500090F83930202B55D104460D46904600296A
:1038600054D0002A54D090F83830012B52D0012384
:1038700080F838300023C363212380F83930FEF705
:10388000E9FC0746A4F82480A4F8268010E00096FE
:103890003B46002280212046FFF73EFF00283BD117
:1038A0002B882268C3F3080353602369CBB9023520
:1038B000E38C9BB2BBB1E28C92B2013A92B2E28449
:1038C000A368B3F5805FE2D000963B4600228021DA
:1038D0002046FFF721FF08BB15F8012B23685A602B
:1038E000E6E70135E4E700963B460022402120460A
:1038F000FFF712FFA0B9202384F83930002384F8A1
:10390000383000E0022002B0BDE8F0810120FAE783
:103910000120F8E70220F6E70320F4E70320F2E7AE
:103920000320F0E790F83A30202B23D121B32AB3BB
:1039300090F83830012B23D0012380F83830816291
:103940008285C2850023C363222280F83A2080F852
:1039500038300168CA6842F48072CA6001684A69F6
:1039600042F001024A610168CA6842F02002CA605E
:1039700018467047022070470120704701207047A9
:1039800002207047704708B50168CA6822F04002FB
:10399000CA60202280F83920FFF7F4FF002008BD1C
:1039A00008B590F83A30222B46D18368B3F5805F92
:1039B0000FD003690BBB03685A68836A591C816284
:1039C0001A70C38D9BB2013B9BB2C385F3B100203B
:1039D00008BD826A036943B903685B68C3F30803DF
:1039E0001380836A02338362EBE703685B68DBB2B0
:1039F0001380836A01338362E3E703685B68826A4A
:103A0000511C816203F07F031370DAE70268D36808
:103A100023F02003D3600268D36823F48073D3605B
:103A20000268536923F001035361202380F83A3080
:103A3000FDF7D6FF0020CBE70220C9E77047000062
:103A400010B5044602681368D168526913F00F0F6D
:103A500008D113F0200F0BD011F0200F08D0FFF782
:103A60009FFF11E012F001020FD111F4907F0CD1F1
:103A700013F0800F02D011F0800F65D113F0400FCA
:103A800002D011F0400F63D110BD13F0010F06D02A
:103A900011F4807F03D0E06B40F00100E06313F08D
:103AA000040F04D01AB1E06B40F00200E06313F0A1
:103AB000020F04D01AB1E06B40F00400E06313F091
:103AC000080F04D01AB1E26B42F00802E263E26B25
:103AD000002AD9D013F0200F02D011F0200F21D1ED
:103AE00023685B6903F04003E26B12F0080F00D11A
:103AF00023B32046FFF76AFD23685A6912F0400F8E
:103B000018D05A6922F040025A61636B73B1124AAD
:103B10005A63606BFEF72EFC0028B5D0606B436BD8
:103B20009847B1E72046FFF73BFFD9E72046FFF76C
:103B300085FFA9E72046FFF781FFA5E72046FFF7AD
:103B40007DFF0023E3639FE72046FFF74DFD9BE7E2
:103B50002046FFF718FF97E75D3B000808B5406A6D
:103B60000023C385C384FFF769FF08BD002B2DE93F
:103B7000F0471D46BBBF03F100431D4600232D2324
:103B800088B01446B8BF1446129A109E1370149B46
:103B9000DDF84CA023F02008B8F1460F05D0B8F1AD
:103BA000450F00D10136022300E0032307AA049247
:103BB00006AACDE902A2CDE9003622462B4601F045
:103BC00087F8B8F1470F074619D1119BDB070ED5CF
:103BD00000EB06090022002320462946FCF7EEFEF2
:103BE00008B1CDF81C903022079B4B451ED33846B8
:103BF000079B159ADB1B136008B0BDE8F087B8F18E
:103C0000460F00EB0609E5D10378302B0AD10022DC
:103C1000002320462946FCF7D1FE18B9C6F101065B
:103C2000CAF80060DAF800309944D3E7591C0791CC
:103C30001A70D9E7F7B50029B6BF2D232B234942C7
:103C400009290270437029DD0DF1070425460A2772
:103C5000B1FBF7F6224607FB1613303302F8013C9E
:103C60000B46632B314604F1FF34F1DC3031931EF7
:103C700004F8011C1C46411CAB420AD30DF1090398
:103C80009B1AA54238BF0023821C1344181A03B0A4
:103C9000F0BD13F8016B01F8016FEDE7302330310F
:103CA0008370C170031DF1E72DE9F04F91B00C4610
:103CB000DDF8688016461F46054600F0F5FE0368ED
:103CC00018460A93FCF74EFA00230E93D8F80030FA
:103CD00094F818A0073323F00703F3E80212D4F88E
:103CE00000B0CDE90812C8F8003013460A46C4E90E
:103CF0001223DDE9088323F000490B904FF0FF32D7
:103D0000404649469B4BFCF78BFE70BB4FF0FF32A1
:103D100040464946974BFCF765FE30BBDDE908019C
:103D200000220023FCF754FE10B12D2384F8433009
:103D3000914A924BBAF1470F8CBF904698460323A5
:103D40004FF0000923612BF0040323603346214622
:103D5000284600970FAA00F0D3F9013040F08F8079
:103D60004FF0FF3011B0BDE8F08FDDE908231046B9
:103D70001946FCF755FE40B1099B814A002BBCBF98
:103D80002D2384F843307F4BD4E763680AF0DF09C2
:103D90005A1C3ED10623636000224BF480632360EB
:103DA00006920EAACDE904A20DAA03920DF13302E8
:103DB000CDE90132636828460093DDE90823FFF767
:103DC000D5FEB9F1470F80460D9929D1C81C02DBF9
:103DD00063688B4241DAAAF1020A5FFA8AFA524614
:103DE000013904F150000D91FFF724FF0E9A81462E
:103DF0001318012A236102DC2268D20701D501339E
:103E000023619DF83330002BA0D02D2384F843305C
:103E10009CE7B9F1470FBFD1002BBDD10123BAE711
:103E2000BAF1650FDBD9BAF1660F18D100296368C2
:103E30000BDD216113B92268D00702D501330B4491
:103E400023614FF00009A165DBE713B92268D207AF
:103E500001D50233F4E70123F2E74FF0670A0E9B26
:103E60008B4205DC23682161D807EAD54B1CE7E7C4
:103E70000029CCBF0122C1F102021344E0E723680C
:103E80005A0507D42369424631462846B8470130CF
:103E90002BD165E7BAF1650F40F2DC80D4E912015D
:103EA00000220023FCF78AFD002833D0012331468D
:103EB0002846354AB84701303FF452AFDDE90D38A6
:103EC000434502DB2368D8070FD5DDE90A233146D5
:103ED0002846B84701303FF443AF4FF0000908F1DE
:103EE000FF3804F11A0AC84509DC23689B0700F172
:103EF0000281E0680F9B9842B8BF184632E7012361
:103F0000524631462846B84701303FF429AF09F1FF
:103F10000109E8E70D9B002B38DC012331462846D8
:103F2000194AB84701303FF41BAFDDE90D3959EAB2
:103F3000030302D12368D907D7D5DDE90A23314627
:103F40002846B84701303FF40BAF4FF0000A04F1A8
:103F50001A0B0D9B5B42534501DC4B4693E7012353
:103F60005A4631462846B84701303FF4F9AE0AF1C7
:103F7000010AEEE7FFFFEF7F108300080C830008C3
:103F800018830008148300081C830008A36DDDF863
:103F900038A05345A8BF5346002B994636DC4FF056
:103FA000000B29EAE97904F11A02A36D0893A3EB47
:103FB00009035B4531DC0D9B9A453ADC2368DA073F
:103FC00037D40D9BAAEB0309089BAAEB0303994581
:103FD000A8BF9946B9F1000F33DC4FF0000829EA79
:103FE000E97904F11A0B0D9BAAEB0303A3EB090378
:103FF00043457FF77AAF01235A4631462846B847F2
:1040000001303FF4ADAE08F10108ECE7424631461D
:104010002846B8470130C2D1A2E6012331462846DE
:104020000892B84701303FF49BAE089A0BF1010BA0
:10403000BBE73146DDE90A232846B8470130C0D145
:104040008EE6089A4B46314628464244B84701302E
:10405000C3D185E6DDF838A0BAF1010F01DCDB073A
:1040600036D50123424631462846B84701303FF451
:1040700077AEDDE90A2331462846B84701303FF4E0
:104080006FAED4E91201002200230AF1FF3AFCF7D7
:1040900095FCC0B9534608F1010231462846B8479D
:1040A00001300CD15CE601235A4631462846B84718
:1040B00001303FF455AE08F10108D045F3DB4B4623
:1040C00004F15002E0E64FF0000804F11A0BF4E7A7
:1040D00001234246E1E701234A4631462846B847D4
:1040E00001303FF43DAE08F10108E3680F995B1A17
:1040F0004345F0DCFDE64FF0000804F11909F4E750
:104100002DE9F047164698468A680B6907469342A0
:10411000B8BF1346336091F843200C46DDF8209079
:104120000AB1013333602368990642BF3368023312
:104130003360256815F0060506D104F1190AE36815
:1041400032689B1AAB422BDC94F843302268003B68
:1041500018BF0123920630D44146384604F1430289
:10416000C847013023D02368226903F00603042BDB
:1041700014BF002533684FF0000608BFE56804F15E
:104180001A0408BFED1A54F8123C08BF25EAE57579
:104190009342C4BF9B1AED18B5421AD1002008E023
:1041A0000123524641463846C847013003D14FF0FB
:1041B000FF30BDE8F0870135C1E73020E11881F814
:1041C00043005A1C94F845102244023382F84310ED
:1041D000C2E70123224641463846C8470130E6D0AF
:1041E0000136D9E72DE9F0430D7E85B0782D904654
:1041F00007460C4699460C9E01F1430207D8622DF2
:104200000AD8002D00F0D780582D00F0BC8004F1B2
:10421000420684F842503BE0A5F16303152BF6D823
:1042200001A151F823F000BF814200089542000827
:104230000F4200080F4200080F4200080F4200081A
:10424000954200080F4200080F4200080F42000884
:104250000F4200089D430008BF4200084F4300087A
:104260000F4200080F420008BF4300080F42000839
:10427000BF4200080F4200080F42000857430008E1
:1042800033681A1D1B68326004F1420684F842301C
:104290000123A1E033682068191D3160060601D5AD
:1042A0001D6803E04506FBD5B3F90050002D03DA85
:1042B0002D236D4284F843300A235B4811E02168C6
:1042C0003368080653F8045B02D4490648BFADB210
:1042D0003360237E54486F2B5CD10823002184F87F
:1042E00043106668002EA66005DB21682E4321F08E
:1042F0000401216050D01646B5FBF3F103FB115CBD
:1043000010F80CC006F801CDAC4663450D46F3D954
:10431000082B0BD12368DB0708D523696168994214
:10432000DEBF302306F8013C06F1FF36921B226106
:10433000434621463846CDF8009003AAFFF7E0FE39
:1043400001304ED14FF0FF3005B0BDE8F083236857
:1043500043F0200323607825344884F845502368CF
:10436000316813F0800F51F8045B03D113F0400F54
:1043700018BFADB23160D90744BF43F020032360BA
:104380001DB11023AAE72848E7E7236823F020039C
:104390002360F6E70A23A1E71646B9E733682568E4
:1043A000181D616930602E061B6801D5196002E096
:1043B0006806FBD51980002316462361B8E73368E9
:1043C00000211A1D32601E686268304600F0E3FB6F
:1043D00008B1801B606063682361002384F8433068
:1043E000A6E73246414638462369C8470130A9D07E
:1043F00023689B0713D4E068039B9842B8BF184614
:10440000A2E70123324641463846C847013099D0D9
:104410000135E36803995B1AAB42F2DCEBE7002558
:1044200004F11906F5E700BF1E8300082F8300087A
:104430002DE9F04F87B003938B6891465A1EB2F571
:10444000AE7F82BF6FF4AE7503EB050B40F25D13D8
:104450000A464FF0000588BF8B600B68804643F426
:10446000F06342F81C3B0C4698BF4FF0000B164619
:10447000AA462F46CDE9045501920295A2685AB189
:10448000D9F800301B784E2B62D8402B3AD8A3F1D4
:104490002B01C8B20E2838D91FB1236823F48073CA
:1044A00023600AF1FF3ABAF1010F00F21481019B77
:1044B0009E4200F20581012007B0BDE8F08FA3F114
:1044C00061020D2AE8D801A151F822F01546000832
:1044D000994400089944000899440008714600086E
:1044E0004B460008994400089944000823460008F8
:1044F0009944000899440008994400089944000828
:10450000DF450008A3F14102DBE70E29C4D801A072
:1045100050F821F0CF45000899440008CF45000825
:104520005F4600089944000871450008B545000839
:10453000B5450008B5450008B5450008B545000873
:10454000B5450008B5450008B5450008B545000863
:104550006E2B09D8602BB2D8542B7BD0592B9BD112
:10456000072D99D108252FE0742B73D0792BF6E70E
:104570002168C8051ED521F0800121600137BBF1FB
:10458000000F03D001320BF1FF3BA260A368013B97
:10459000A360236901332361D9F80430013B002B68
:1045A000C9F8043040F38380D9F800300133C9F8EA
:1045B000003063E71AEB05017FF46EAF0D468A46C3
:1045C000226822F4C072226006F8013BDEE722680E
:1045D00010067FF561AF22F080022260F4E7BAF1A5
:1045E000000F0CD177B9226802F4E061B1F5E06FF9
:1045F00008D122F4F0624FF0010A2260E4E7BAF138
:10460000020F51D0012D02D0042D7FF445AF0135AA
:10461000EDB2D9E7BAF1010F7FF43EAF4FF0020AD5
:10462000D2E775B9002F7FF438AF226802F4E06159
:10463000B1F5E06F40F0FF8022F4F06201252260C6
:10464000C2E7032DE3D0052DDFE7022D7FF424AF71
:104650000325B9E7062D7FF41FAF0725B4E72268CD
:1046600091057FF519AF22F4207222600297ABE723
:10467000226802F4A061B1F5806F05D050057FF586
:104680000BAF002F00F0D780910558BF029922F49C
:10469000F06258BF791A42F4C0724FF0000758BF59
:1046A000CDE9041622608FE74FF0030A8CE74946F4
:1046B0004046D4F88031984700283FF4DFAEEBE65F
:1046C000D4F87C314A46404616F8011D98472369C4
:1046D000013B2361EBE66B1E062B24D8022D36D856
:1046E000019B9E427FF6E7AED4F87C314A464046B5
:1046F00016F8011D98472369013B2361F0E7D4F8C0
:104700007C314A4640461BF8011D98472369013B0E
:1047100023610AF1FF3A5FFA8AFABAF1020FEED189
:10472000033DEDB2761B2368DA0530D55B0511D564
:10473000019B9E427FF6BFAED4F87C314A4640468C
:1047400016F8011D98472369013B2361F0E7AA464B
:10475000B346DEE716F8011C2369652903F1FF3330
:1047600006F1FF3523610CD045290AD0D4F87C31FD
:104770004A4640469847236916F8021C013BB51E7D
:1047800023614A464046D4F87C3198472E46226839
:1047900012F0100201D000208EE63270236803F47C
:1047A000C063B3F5806F25D1029B9F420AD0DA1B0C
:1047B00004F26F139E4228BF04F5B77630461F49B6
:1047C00000F004F900224046019902F005FC039B29
:1047D00025681B6815F0020F06460F4603F1040218
:1047E00015D003990A601B68C3E90067E3680133C9
:1047F000E360D0E7049B002BE4D005990A234046F0
:10480000013102F069FC049B059EC21AD0E76D07D6
:10481000E7D4039D2A601D6802460B46FCF700F9A9
:1048200020B1074800F0C6F92860DFE73046394676
:10483000FCF754F9F8E7002733E600BF408300088F
:1048400081840008002310B50446C0E90033C0E9A4
:104850000433836081814366C281836119460822E3
:104860005C3000F019F90D4B246263620C4BA362BB
:104870000C4BE3620C4B23630C4B9C4206D003F1C0
:104880006802944202D0D0339C4205D104F1580012
:10489000BDE8104000F07CB910BD00BF114A00080F
:1048A000334A00086B4A0008914A000808040020B7
:1048B000024A0349034800F06BB800BF1000002013
:1048C000897400082000002041680C4B10B5994203
:1048D000044601D002F0D8FDA168094B994202D0EC
:1048E000204602F0D1FDE168064B994204D02046F3
:1048F000BDE8104002F0C8BD10BD00BF0804002094
:1049000070040020D80400200C4B0D4A10B504217F
:104910001A600C480022FFF795FF0A4B01221C4643
:10492000092103F16800FFF78DFF04F1D000022296
:10493000BDE810401221FFF785BF00BF40050020F1
:10494000B148000808040020014800F022B900BF67
:1049500049050020014800F01DB900BF49050020AD
:1049600010B50446FFF7F0FF236A1BB1BDE8104005
:10497000FFF7F0BF044B2362044B1B68002BF5D1FB
:10498000FFF7C2FFF2E700BFC9480008400500205A
:104990002DE9F8430746884614460026D4E90195D8
:1049A000B9F1010905D52468002CF7D13046BDE8DE
:1049B000F883AB89012B07D9B5F90E30013303D049
:1049C00029463846C04706436835E9E70EB46FF01C
:1049D000004110B500249DB01FAB029006900791D6
:1049E00004910948094953F8042B0591006802A96C
:1049F00001931B9402F0D2FB029B1C701DB0BDE81A
:104A0000104003B0704700BF1C0000200802FFFFE9
:104A100010B50C46B1F90E1000F06CF80028ABBFD1
:104A2000636DA3891B1823F48053ACBF6365A38116
:104A300010BD2DE9F0411F468B890546DB050C466C
:104A4000164605D502230022B1F90E1000F040F8F9
:104A5000A389324623F48053A38128463B46B4F908
:104A60000E10BDE8F04100F057B810B50C46B1F992
:104A70000E1000F02DF8B4F90C30421C0BBF23F4DB
:104A8000805343F48053A381A38118BF606510BD98
:104A9000B1F90E1000F00CB803460244934200D165
:104AA000704703F8011BF9E7004870475C010020DC
:104AB00038B50023054D044608462B60FDF70AFB78
:104AC000431C02D12B6803B1236038BD440500208C
:104AD00038B50446084611460022054D2A601A469C
:104AE000FDF702FB431C02D12B6803B1236038BDE4
:104AF0004405002038B50446084611460022054DFD
:104B00002A601A46FDF7C8FA431C02D12B6803B18C
:104B1000236038BD4405002038B5044608461146D8
:104B20000022054D2A601A46FDF7C6FA431C02D141
:104B30002B6803B1236038BD44050020014B186881
:104B4000704700BF1C00002070B500260C4D0D4BB7
:104B50005B1B9C10A64209D1002603F079FB0A4D8D
:104B60000A4B5B1B9C10A64205D170BD55F8043B57
:104B700098470136EEE755F8043B98470136F2E7CF
:104B80003C8700083C8700083C87000840870008F5
:104B9000704770477047034610B5C9B2024493424C
:104BA000184601D1002003E0047801338C42F6D18D
:104BB00010BD0000004870470000C07F2DE9F74F8E
:104BC00003690C690746A3427EDB013CA30000F1A8
:104BD000140501F11408009305EB8403019358F8C0
:104BE000243055F8242001339A42B2FBF3F608EB47
:104BF00084092ED34FF0000AC446AE46D3465CF873
:104C0000043B98B206FB00A01B0C020C06FB03231E
:104C1000DEF8002080B292B2121A5A44DEF8000088
:104C20004FEA134A9BB2C3EB224303EB104392B209
:104C300042EA0342E1454FEA234B4EF8042BDED211
:104C4000009BEB582BB9019B043B9D421A462FD386
:104C50003C61384601F0E2F9002825DB29460020B6
:104C600058F8042BD1F800C01FFA82FE1FFA8CF30B
:104C7000A3EB0E030344120CC2EB234202EB1C42D3
:104C80009BB243EA0243C1454FEA224041F8043B4C
:104C9000E6D255F8242005EB840322B9043B9D425B
:104CA0001A460BD33C610136304603B0BDE8F08FA5
:104CB0001268043B002ACBD1013CC6E71268043BD2
:104CC000002AEFD1013CEAE70020EEE700000000F7
:104CD0002DE9F04F16461F46C26999B08146CDE9CD
:104CE0000E67259C82B9102000F020FE0246C9F80C
:104CF0001C0020B9EF21A84BA84802F03DFC00237E
:104D0000C0E901330360C360116859B101235268DF
:104D1000484693404A608B6000F0FCFE0022D9F8C0
:104D20001C301A60B7F10008B5BF012300232360CF
:104D300023609B4BBCBF28F00048CDF83C8033EA91
:104D400008031AD142F20F73249AC8F3130858EAE1
:104D50000608136000F07485269B53B9914B21E03F
:104D6000914B03930833269A1360039819B0BDE85A
:104D7000F08F8C4B03930333F5E7DDE90E34CDE977
:104D80000A34DDE90A0100220023FBF717FE824600
:104D900050B10123249A1360269B13B1834B269AAA
:104DA0001360834B0393E0E716AB019317AB0093BB
:104DB0004846DDE90A2301F04DFA5FEA1854169DD2
:104DC00004907BD0DDE90A010B9BA4F2FF34C3F30E
:104DD000130343F07F5343F44013CDF850A019461A
:104DE0000022744BFBF7CAF965A3D3E90023FBF754
:104DF0007DFB65A3D3E90023FBF7C2F906462046F5
:104E00000F46FBF709FB62A3D3E90023FBF76EFB18
:104E100002460B4630463946FBF7B2F906460F46C6
:104E2000FBF714FE00228046002330463946FBF78C
:104E3000CFFD48B14046FBF7EFFA32463B46FBF761
:104E4000BDFD08B908F1FF38B8F1160F53D8DDE9F8
:104E50000A01594B03EBC803D3E90023FBF7B8FD64
:104E600000284AD0002308F1FF3811932D1B6B1E38
:104E7000099349BF00230027C5F101070993B8F141
:104E8000000F3CDB099BCDF840804344099300238D
:104E90000C93229B092B64D8052BC4BF043B22939F
:104EA000229BC8BF0024A3F10203D8BF0124032B17
:104EB00000F28680DFE803F05153362B179C2C4418
:104EC00004F23243202BC1BFC3F1400308FA03F8B8
:104ED00004F2124326FA03F3D6BFC3F1200348EAD3
:104EE000030006FA03F0FBF787FA0122A1F1F87339
:104EF000013C149273E70123B7E71190B6E7C8F1BC
:104F000000030C930023A7EB08071093C1E70123CC
:104F10000D93239B434408930133012B0593B8BFA2
:104F2000012306E001230D93239B002B4BDD089307
:104F3000059300210422D9F81C0002F114059D42BA
:104F400046D94160484600F0A7FD0390002842D1B1
:104F5000024640F2AF11194BCEE60023E3E70023EF
:104F6000D6E7012400230D9422934FF0FF33002253
:104F70000893059312232392DBE700BFAFF3008071
:104F800061436F63A787D23FB3C8608B288AC63F4F
:104F9000FB799F501344D33F528300086983000874
:104FA0000000F07F4E830008458300081D83000841
:104FB0001C8300080000F83F18850008C183000822
:104FC00001230D93D1E701231A4608930593D2E7F5
:104FD00001315200B1E7D9F81C30039A1A60059BE1
:104FE0000E2B00F2A180002C00F09E80B8F1000F83
:104FF00036DD9F4B08F00F0203EBC20318F4807FED
:105000004FEA2815D3E900AB16D0DDE90A01994B28
:105010000324D3E90823FBF793FBCDE9060105F050
:105020000F05944E75B9DDE9060152465B46FBF764
:1050300087FB82468B462DE0DDE90A34CDE9063454
:105040000224EEE7E90708D5D6E900235046594681
:10505000FBF74CFA82468B4601346D100836E1E7C7
:1050600000F0AD80DDE90A01C8F10005804B05F0D4
:105070000F0203EBC203D3E90023FBF737FA022444
:1050800082468B4600237B4E2D11002D40F08C80F4
:10509000002BCED1119B002B00F0958000225046B2
:1050A0005946754BFBF794FC002800F08C80059B5B
:1050B000002B00F08880089B002B35DD08F1FF33C2
:1050C00050465946069300226C4BFBF70FFA824676
:1050D0008B46089E01342046FBF79EF952465B46FC
:1050E000FBF704FA0022664BFBF74AF80446A1F1ED
:1050F0005075CDE91245002E69D10022504659461F
:10510000604BFBF73BF822462B4682468B46FBF76B
:105110007DFC002840F0998222465046594605F110
:105120000043FBF755FC20BB179B002BC0F26581A9
:10513000B8F10E0F00F361814D4B03EBC803D3E9C7
:1051400000AB239B002B80F2EF80059B002B00F32C
:10515000EB800ED100224B4B50465946FBF7C6F967
:1051600002460B46DDE90A01FBF73CFC002800F093
:105170006F8200252C46239B039EDB430693274624
:1051800000242946484600F0C5FC002F00F0C280EC
:105190002CB1BC4203D02146484600F0BBFC394646
:1051A000484600F0B7FCB5E0EA0705D5D6E900238C
:1051B000FBF79CF9012301346D10083665E70224E2
:1051C000DDE90AAB66E7059ECDF8188083E7284B3A
:1051D00003EBC60353E902010D9B002B56D0024698
:1051E0000B4600202849FBF7ABFADDE91223FAF75A
:1051F000C5FF039BCDE912019D191E465946504635
:10520000FBF724FC0446FBF707F902460B46504621
:105210005946FAF7B3FFDDE91223303406F8014BA3
:1052200082468B46FBF7D4FB002873D152465B467F
:1052300000201149FAF7A2FFDDE91223FBF7C8FBB2
:10524000002840F0BB80AE423FF46EAFDDE91201B2
:1052500000220A4BFBF74AF90022CDE91201074B65
:1052600050465946FBF742F982468B46C6E700BFD7
:1052700018850008F08400080000F03F000024407A
:1052800000001C40000014400000E03FDDE9122354
:10529000FBF72CF9039BCDE912013344039D1593D1
:1052A00059465046FBF7D2FB0446FBF7B5F80B46D0
:1052B000024659465046FAF761FF3034159B05F80F
:1052C000014B9D4282468B4627D1DDE91201039BAB
:1052D00000221E44B54BFAF753FF02460B465046D8
:1052E0005946FBF793FB002868D1DDE91223002023
:1052F000AE49FAF743FF02460B4650465946FBF7C4
:1053000067FB00283FF410AF334616F8012D302A12
:10531000FAD01E46DDF818803EE00022A44BFBF7D1
:10532000E5F882468B46BBE70024039EA04D52461B
:10533000DDE90A015B46FBF703FAFBF787FB07464B
:10534000FBF76AF852465B46FBF7D0F802460B467D
:10535000DDE90A01FAF712FF07F1300C06F801CB7C
:10536000DDF80CC0DDF814E0A6EB0C0CE6450246B7
:105370000B4633D1FAF704FF52465B4604460D460E
:10538000FBF744FBC0B952465B4620462946FBF773
:1053900015FB08B1FB070FD44846049900F0BAFB8F
:1053A0000023249A337008F101031360269B002B1D
:1053B0003FF4DBAC1E60D8E4CDF8188033461E46BF
:1053C00013F8012D392A06D1039A9A42F7D1069A89
:1053D00001320692302201321A709BE722462B4698
:1053E000FBF784F802460B46CDE90A23002200238E
:1053F000FBF7E4FA00289AD0CEE70D9A002A00F0D5
:10540000E380229A012A00F3C280149A002A00F055
:10541000BA8003F233430C9D3E46099A01211A4497
:1054200048461F44099200F073FC044656B1099B9C
:10543000002B07DDB342A8BF3346099AFF1AF61ABC
:10544000D31A09930C9B0BB30D9B002B00F0C38068
:10545000002D00F0BD8021462A46484600F016FD8A
:10546000049A01460446484600F068FC04998246C6
:10547000484600F04FFB0C9B5B1B0C9300F0AE808A
:1054800051460C9A484600F001FD0490012148461F
:1054900000F03EFC109B0546002B00F0D8811A4618
:1054A0000146484600F0F2FC229B0546012B00F322
:1054B0009D800E9B002B40F094800F9BC3F3130341
:1054C000002B40F08E800F9B23F000431B0D1B052B
:1054D000002B00F089804FF0010A099B013701334E
:1054E0000993109B002B00F0B8812B6905EB830317
:1054F000186900F0C1FBC0F12000099B184410F0AE
:105500001F007ED0C0F12003042B72DD099BC0F187
:105510001C000344074406440993002F05DD3A4666
:105520004846049900F00EFD0490099B002B05DD10
:1055300029461A46484600F005FD0546119B002BFA
:1055400061D02946049800F069FD00285BDA08F173
:10555000FF3306930A2200234846049900F0FCFA20
:105560000D9B0490002B00F07A81002321460A2233
:10557000484600F0F1FA089B0446002B72DC229B9F
:10558000022B49DC6EE0169BC3F1360343E7059B13
:105590005D1E0C9BAB420DDB5D1B059B002BBFF61C
:1055A0003BAF059BFE1A002337E700BF0000E03F3A
:1055B000000024400C9B109AEB1A1A440C953E46AE
:1055C0000025059B109228E73E460C9D0D9C2DE77B
:1055D000DDF810A054E70C9A049953E7CDF810A019
:1055E00054E74FF0000A7CE79A467AE74FF0000A4A
:1055F0007BE792D0099A1C331A441F441E44099237
:105600008BE70346F6E7059BCDF81880002B23DCDB
:105610000893229B022B21DD089B002B7FF4ABAD6E
:1056200029460522484600F097FA014605460498A7
:1056300000F0F4FC00287FF79EAD3123039E06F8AE
:10564000013B069B0133069399E535462C46F4E76A
:10565000059DCDF81880F9E7059B08930D9B002B5D
:1056600000F00181002E05DD21463246484600F05B
:1056700069FC0446BAF1000F5AD04846616800F050
:105680000BFA064628B9024640F2EF21814BFFF79C
:1056900033BB226904F10C01023292000C3001F09C
:1056A00057FF01223146484600F04CFC0746039B59
:1056B000039A03F1010B089B13440A930E9B03F01A
:1056C000010309930BF1FF33294604980593FFF773
:1056D00075FA2146089000F1300A049800F09EFC0B
:1056E0003A4680462946484600F0B4FCC268064661
:1056F00002BB0146049800F091FC02463146484640
:105700000C9200F007FA229B0C9A5E4642EA0301D3
:10571000099B194310D1BAF1390F2BD0B8F1000F02
:1057200002DD089B03F1310A059B83F800A028E500
:105730002746BCE70122E1E7B8F1000F06DB229B18
:1057400048EA0308099B58EA030820D1002AEBDD48
:1057500001220499484600F0F5FB2946049000F028
:105760005DFC002803DCDFD11AF0010FDCD0BAF1B8
:10577000390FD6D13923059A137033461E4616F8D1
:10578000012C013B392A53D001321A70F9E4002A66
:1057900007DDBAF1390FEDD0059A0AF10103137054
:1057A000EFE40A9B0BF801AC5B452BD000230A22E7
:1057B0000499484600F0D0F9BC4204904FF0000331
:1057C0004FF00A022146484606D100F0C5F90446CA
:1057D00007460BF1010B75E700F0BEF939460446A8
:1057E00000230A22484600F0B7F90746F1E7089B74
:1057F0002746002B03F1FF36D8BF00260024039B69
:105800005A1C164401220499484600F09BFB294685
:10581000049000F003FC0028AFDC02D11AF0010F65
:10582000ABD133461E4613F8012D302AFAD0A8E436
:10583000039A9A42A2D1069B013306933123AEE725
:10584000269B002B7FF48CAA134BFFF7ABBA229B4D
:10585000012B7FF72EAEDDF840A001204DE6089B1E
:10586000002B7FF7D6AE039E29460498FFF7A6F9D2
:10587000039B00F1300A06F801ABF21A089B934231
:10588000B5DD00230A224846049900F065F904902A
:10589000EAE700BFC18300084583000838B5054624
:1058A000002940D051F8043C0C1F002BB8BFE4186D
:1058B00000F0E6F81C4A136833B9636014602846A8
:1058C000BDE8384000F0E2B8A34208D920682118AA
:1058D0008B4201BF19685B6809182160EDE71A4621
:1058E0005B680BB1A342FAD911685018A0420BD1E2
:1058F00020680144501883421160E0D118685B6849
:10590000084410605360DAE702D90C232B60D6E715
:10591000206821188B4201BF19685B680918216053
:1059200063605460CBE738BD50050020024B014650
:10593000186800F025B800BF1C00002070B50F4E9D
:105940000C463168054611B901F0F2FD3060214680
:10595000284601F0EDFD431C03D14FF0FF342046F3
:1059600070BDC41C24F00304A042F8D0211A2846BC
:1059700001F0DEFD0130F2D1EFE700BF4C05002061
:105980002DE9F843CD1C25F0030508350C2D38BF53
:105990000C25002D064601DBA94204D90C233360F7
:1059A0000020BDE8F883DFF8D48000F069F8D8F86B
:1059B00000301C4644BB29463046FFF7BFFF431C5E
:1059C000044658D1D8F800402746002F43D1002C78
:1059D0004BD023683946304604EB030901F0A8FD9B
:1059E000814542D1216830466D1A2946FFF7A6FF4E
:1059F00001303AD023682B442360D8F800305A682D
:105A000062BBC8F800700FE02268521B20D40B2A3A
:105A100017D96119A342256018BF5960636808BF90
:105A2000C8F8001062514B60304600F02FF804F1C6
:105A30000B00231D20F00700C21A1CBF1B1AA35025
:105A4000AFE76268A3420CBFC8F800205A60EBE7DA
:105A500023466468AEE73C467F68B6E71A465B6853
:105A6000A342FBD100235360DEE70C2330463360B2
:105A700000F00CF894E70560D6E700BF5005002061
:105A80000148FFF786B800BF480500200148FFF72E
:105A900081B800BF4805002070B5C46905460E46B0
:105AA00084B91020FFF742FF0446E86128B9024696
:105AB0006B21164B164801F05FFD0023C0E901334E
:105AC0000360C360E36853B921220421284601F032
:105AD00071FDEB69E060DB680BB9002070BD53F825
