:020000040800F2
:100000000050002065240008092200081122000881
:1000100019220008212200082922000800000000FF
:100020000000000000000000000000003122000875
:100030003D22000800000000492200085522000867
:10004000AD240008AD240008AD240008AD2400084C
:10005000AD240008AD240008AD240008AD2400083C
:10006000AD240008AD240008AD240008AD2400082C
:10007000AD240008AD240008AD240008AD2400081C
:10008000AD240008AD240008AD240008AD2400080C
:10009000AD240008AD240008AD240008AD240008FC
:1000A000AD240008AD240008AD240008AD240008EC
:1000B000AD240008AD240008AD240008AD240008DC
:1000C000AD240008AD240008AD240008AD240008CC
:1000D000AD24000861220008AD240008AD2400080A
:1000E000AD240008AD240008AD2400080000000085
:1000F0000000000000000000000000000000000000
:0C01000000000000000000005FF808F1A3
:1001100010B5054C237833B9044B13B10448AFF341
:1001200000800123237010BDD801002000000000D2
:10013000C88C000808B5034B1BB103490348AFF353
:10014000008008BD00000000DC010020C88C000811
:1001500010F8012B11F8013B012A28BF9A42F7D071
:10016000D01A7047034613F8012B002AFBD1181A46
:100170000138704781F0004102E000BF83F0004386
:1001800030B54FEA41044FEA430594EA050F08BF32
:1001900090EA020F1FBF54EA000C55EA020C7FEAF6
:1001A000645C7FEA655C00F0E2804FEA5454D4EB73
:1001B0005555B8BF6D420CDD2C4480EA020281EA3D
:1001C000030382EA000083EA010180EA020281EA75
:1001D0000303362D88BF30BD11F0004F4FEA0131C7
:1001E0004FF4801C4CEA113102D0404261EB4101D6
:1001F00013F0004F4FEA03334CEA133302D052425C
:1002000063EB430394EA050F00F0A780A4F1010417
:10021000D5F1200E0DDB02FA0EFC22FA05F2801851
:1002200041F1000103FA0EF2801843FA05F3594137
:100230000EE0A5F120050EF1200E012A03FA0EFCB6
:1002400028BF4CF0020C43FA05F3C01851EBE371E0
:1002500001F0004507D54FF0000EDCF1000C7EEBFD
:1002600000006EEB0101B1F5801F1BD3B1F5001F3B
:100270000CD349085FEA30004FEA3C0C04F101045A
:100280004FEA445212F5800F80F09A80BCF1004F83
:1002900008BF5FEA500C50F1000041EB045141EA05
:1002A000050130BD5FEA4C0C404141EB0101013CCE
:1002B00028BFB1F5801FE9D291F0000F04BF0146BD
:1002C0000020B1FA81F308BF2033A3F10B03B3F18F
:1002D00020020CDA0C3208DD02F1140CC2F10C021F
:1002E00001FA0CF021FA02F10CE002F11402D8BF7D
:1002F000C2F1200C01FA02F120FA0CFCDCBF41EA49
:100300000C019040E41AA2BF01EB0451294330BD17
:100310006FEA04041F3C1CDA0C340EDC04F11404F4
:10032000C4F1200220FA04F001FA02F340EA0300CB
:1003300021FA04F345EA030130BDC4F10C04C4F111
:10034000200220FA02F001FA04F340EA03002946F1
:1003500030BD21FA04F0294630BD94F0000F83F43B
:10036000801306BF81F480110134013D4EE77FEA1E
:10037000645C18BF7FEA655C29D094EA050F08BF6A
:1003800090EA020F05D054EA000C04BF194610464B
:1003900030BD91EA030F1EBF0021002030BD5FEA8F
:1003A000545C05D14000494128BF41F0004130BDB7
:1003B00014F580043CBF01F5801130BD01F000450B
:1003C00045F0FE4141F470014FF0000030BD7FEA7E
:1003D000645C1ABF194610467FEA655C1CBF0B4679
:1003E000024650EA013406BF52EA033591EA030F90
:1003F00041F4002130BD00BF90F0000F04BF002188
:10040000704730B54FF4806404F132044FF00005BA
:100410004FF0000150E700BF90F0000F04BF002133
:10042000704730B54FF4806404F1320410F0004599
:1004300048BF40424FF000013EE700BF42004FEA94
:10044000E2014FEA31014FEA02701FBF12F07F4311
:1004500093F07F4F81F06051704732F07F4208BFC8
:10046000704793F07F4F04BF41F40021704730B5CF
:100470004FF4607401F0004521F000411CE700BF1B
:1004800050EA010208BF704730B54FF000050AE09E
:1004900050EA010208BF704730B511F0004502D59F
:1004A000404261EB41014FF4806404F132045FEAA1
:1004B000915C3FF4D8AE4FF003025FEADC0C18BF4A
:1004C00003325FEADC0C18BF033202EBDC02C2F13C
:1004D000200300FA03FC20FA02F001FA03FE40EACE
:1004E0000E0021FA02F11444BDE600BF70B54FF0D2
:1004F000FF0C4CF4E06C1CEA11541DBF1CEA1355B0
:1005000094EA0C0F95EA0C0F00F0DEF82C4481EA17
:10051000030621EA4C5123EA4C5350EA013518BF37
:1005200052EA033541F4801143F4801338D0A0FB24
:1005300002CE4FF00005E1FB02E506F00042E0FBD1
:1005400003E54FF00006E1FB03569CF0000F18BFD7
:100550004EF0010EA4F1FF04B6F5007F64F540747F
:1005600004D25FEA4E0E6D4146EB060642EAC62112
:1005700041EA55514FEAC52040EA5E504FEACE2E7F
:10058000B4F1FD0C88BFBCF5E06F1ED8BEF1004F82
:1005900008BF5FEA500E50F1000041EB045170BDFE
:1005A00006F0004646EA010140EA020081EA030142
:1005B000B4EB5C04C2BFD4EB0C0541EA045170BD3E
:1005C00041F480114FF0000E013C00F3AB8014F1B8
:1005D000360FDEBF002001F0004170BDC4F1000401
:1005E000203C35DA0C341BDC04F11404C4F1200582
:1005F00000FA05F320FA04F001FA05F240EA0200DD
:1006000001F0004221F0004110EBD37021FA04F612
:1006100042EB06015EEA430E08BF20EAD37070BDCC
:10062000C4F10C04C4F1200500FA04F320FA05F02B
:1006300001FA04F240EA020001F0004110EBD3702D
:1006400041F100015EEA430E08BF20EAD37070BD9D
:10065000C4F1200500FA05F24EEA020E20FA04F376
:1006600001FA05F243EA020321FA04F001F0004125
:1006700021FA04F220EA020000EBD3705EEA430E96
:1006800008BF20EAD37070BD94F0000F0FD101F0C5
:100690000046400041EB010111F4801F08BF013CFE
:1006A000F7D041EA060195F0000F18BF704703F03C
:1006B0000046520043EB030313F4801F08BF013DC3
:1006C000F7D043EA0603704794EA0C0F0CEA13557F
:1006D00018BF95EA0C0F0CD050EA410618BF52EA39
:1006E0004306D1D181EA030101F000414FF000003F
:1006F00070BD50EA410606BF1046194652EA43064D
:1007000019D094EA0C0F02D150EA013613D195EAC0
:100710000C0F05D152EA03361CBF104619460AD108
:1007200081EA030101F0004141F0FE4141F4700112
:100730004FF0000070BD41F0FE4141F4780170BD02
:1007400070B54FF0FF0C4CF4E06C1CEA11541DBF67
:100750001CEA135594EA0C0F95EA0C0F00F0A7F869
:10076000A4EB050481EA030E52EA03354FEA013196
:1007700000F088804FEA03334FF0805545EA1313A9
:1007800043EA12634FEA022245EA111545EA106571
:100790004FEA00260EF000419D4208BF964244F108
:1007A000FD0404F5407402D25B084FEA3202B61A27
:1007B00065EB03055B084FEA32024FF480104FF4FB
:1007C000002CB6EB020E75EB030E22BFB61A75466F
:1007D00040EA0C005B084FEA3202B6EB020E75EB02
:1007E000030E22BFB61A754640EA5C005B084FEA6A
:1007F0003202B6EB020E75EB030E22BFB61A754637
:1008000040EA9C005B084FEA3202B6EB020E75EB41
:10081000030E22BFB61A754640EADC0055EA060E02
:1008200018D04FEA051545EA16754FEA06164FEA45
:10083000C30343EA52734FEAC2025FEA1C1CC0D1F1
:1008400011F4801F0BD141EA00014FF000004FF07E
:10085000004CB6E711F4801F04BF01430020B4F13F
:10086000FD0C88BFBCF5E06F3FF6AFAEB5EB030CF7
:1008700004BFB6EB020C5FEA500C50F1000041EBF4
:10088000045170BD0EF0004E4EEA113114EB5C04C1
:10089000C2BFD4EB0C0541EA045170BD41F4801194
:1008A0004FF0000E013C90E645EA060E8DE60CEA9C
:1008B000135594EA0C0F08BF95EA0C0F3FF43BAFB9
:1008C00094EA0C0F0AD150EA01347FF434AF95EA70
:1008D0000C0F7FF425AF104619462CE795EA0C0F54
:1008E00006D152EA03353FF4FDAE1046194622E721
:1008F00050EA410618BF52EA43067FF4C5AE50EAFB
:1009000041047FF40DAF52EA43057FF4EBAE12E7EA
:100910004FF0FF3C06E000BF4FF0010C02E000BFCB
:100920004FF0010C4DF804CD4FEA410C7FEA6C5CAE
:100930004FEA430C18BF7FEA6C5C1BD001B050EA51
:10094000410C0CBF52EA430C91EA030F02BF90EA3C
:10095000020F0020704710F1000F91EA030F58BFFB
:10096000994208BF90422CBFD8176FEAE37040F05D
:10097000010070474FEA410C7FEA6C5C02D150EAFB
:10098000013C07D14FEA430C7FEA6C5CD6D152EAB6
:10099000033CD3D05DF8040B704700BF844610467B
:1009A00062468C461946634600E000BF01B5FFF77A
:1009B000B7FF002848BF10F1000F01BD4DF808ED4A
:1009C000FFF7F4FF0CBF012000205DF808FB00BF1B
:1009D0004DF808EDFFF7EAFF34BF012000205DF875
:1009E00008FB00BF4DF808EDFFF7E0FF94BF0120C2
:1009F00000205DF808FB00BF4DF808EDFFF7CEFFC3
:100A000094BF012000205DF808FB00BF4DF808ED01
:100A1000FFF7C4FF34BF012000205DF808FB00BFD2
:100A20004FEA410C7FEA6C5C02D150EA013C0AD1EA
:100A30004FEA430C7FEA6C5C02D152EA033C02D1DC
:100A40004FF0000070474FF0010070474FEA41023D
:100A500012F5001215D211D56FF47873B3EB625210
:100A600012D94FEAC12343F0004343EA505311F037
:100A7000004F23FA02F018BF404270474FF00000C9
:100A8000704750EA013005D111F0004008BF6FF007
:100A9000004070474FF00000704700BF4A0011D27D
:100AA00012F5001211D20DD56FF47873B3EB6252C8
:100AB0000ED44FEAC12343F0004343EA505323FAD4
:100AC00002F070474FF00000704750EA013002D149
:100AD0004FF0FF3070474FF0000070474FEA41027F
:100AE000B2F1E04324BFB3F5001CDCF1FE5C0DD98C
:100AF00001F0004C4FEAC0024CEA5070B2F1004FD6
:100B000040EB830008BF20F00100704711F0804FD8
:100B100021D113F13872BCBF01F00040704741F49D
:100B200080114FEA5252C2F11802C2F1200C10FAA1
:100B30000CF320FA02F018BF40F001004FEAC12385
:100B40004FEAD32303FA0CFC40EA0C0023FA02F329
:100B50004FEA4303CCE77FEA625307D150EA0133FF
:100B60001EBF4FF0FE4040F44000704701F00040CF
:100B700040F0FE4040F40000704700BF80F00040AD
:100B800002E000BF81F0004142001FBF5FEA410365
:100B900092EA030F7FEA226C7FEA236C6AD04FEA65
:100BA0001262D2EB1363C1BFD218414048404140AA
:100BB000B8BF5B42192B88BF704710F0004F40F45C
:100BC000000020F07F4018BF404211F0004F41F478
:100BD000000121F07F4118BF494292EA030F3FD044
:100BE000A2F1010241FA03FC10EB0C00C3F1200357
:100BF00001FA03F100F0004302D5494260EB4000E6
:100C0000B0F5000F13D3B0F1807F06D340084FEA50
:100C1000310102F10102FE2A51D2B1F1004F40EB45
:100C2000C25008BF20F0010040EA030070474900AD
:100C300040EB0000013A28BFB0F5000FEDD2B0FA4A
:100C400080FCACF1080CB2EB0C0200FA0CF0AABF6D
:100C500000EBC25052421843BCBFD040184370470B
:100C600092F0000F81F4000106BF80F40000013211
:100C7000013BB5E74FEA41037FEA226C18BF7FEAE8
:100C8000236C21D092EA030F04D092F0000F08BF2A
:100C90000846704790EA010F1CBF0020704712F011
:100CA0007F4F04D1400028BF40F00040704712F150
:100CB00000723CBF00F50000704700F0004343F0B5
:100CC000FE4040F4000070477FEA226216BF0846EB
:100CD0007FEA23630146420206BF5FEA412390EAAE
:100CE000010F40F4800070474FF0000304E000BFA4
:100CF00010F0004348BF40425FEA000C08BF704755
:100D000043F0964301464FF000001CE050EA010218
:100D100008BF70474FF000030AE000BF50EA01022D
:100D200008BF704711F0004302D5404261EB41011A
:100D30005FEA010C02BF84460146002043F0B6433F
:100D400008BFA3F18053A3F50003BCFA8CF2083A64
:100D5000A3EBC25310DB01FA02FC634400FA02FC6D
:100D6000C2F12002BCF1004F20FA02F243EB020074
:100D700008BF20F00100704702F1200201FA02FCD6
:100D8000C2F1200250EA4C0021FA02F243EB0200C9
:100D900008BF20EADC7070474FF0FF0C1CEAD0520D
:100DA0001EBF1CEAD15392EA0C0F93EA0C0F6FD0CE
:100DB0001A4480EA010C400218BF5FEA41211ED0AC
:100DC0004FF0006343EA501043EA5111A0FB013198
:100DD0000CF00040B1F5000F3EBF490041EAD3716D
:100DE0005B0040EA010062F17F02FD2A1DD8B3F1E9
:100DF000004F40EBC25008BF20F00100704790F058
:100E0000000F0CF0004C08BF49024CEA502040EAA9
:100E100051207F3AC2BFD2F1FF0340EAC25070476F
:100E200040F400004FF00003013A5DDC12F1190FAD
:100E3000DCBF00F000407047C2F10002410021FA1F
:100E400002F1C2F1200200FA02FC5FEA310040F137
:100E5000000053EA4C0308BF20EADC70704792F0B0
:100E6000000F00F0004C02BF400010F4000F013AE8
:100E7000F9D040EA0C0093F0000F01F0004C02BFE3
:100E8000490011F4000F013BF9D041EA0C018FE752
:100E90000CEAD15392EA0C0F18BF93EA0C0F0AD058
:100EA00030F0004C18BF31F0004CD8D180EA01007E
:100EB00000F00040704790F0000F17BF90F0004F17
:100EC000084691F0000F91F0004F14D092EA0C0FF9
:100ED00001D142020FD193EA0C0F03D14B0218BF8C
:100EE000084608D180EA010000F0004040F0FE40D2
:100EF00040F40000704740F0FE4040F4400070476E
:100F00004FF0FF0C1CEAD0521EBF1CEAD15392EAEC
:100F10000C0F93EA0C0F69D0A2EB030280EA010CDC
:100F200049024FEA402037D04FF0805343EA111175
:100F300043EA10130CF000408B4238BF5B0042F1D3
:100F40007D024FF4000C8B4224BF5B1A40EA0C0078
:100F5000B3EB510F24BFA3EB510340EA5C00B3EBAA
:100F6000910F24BFA3EB910340EA9C00B3EBD10F98
:100F700024BFA3EBD10340EADC001B0118BF5FEAEA
:100F80001C1CE0D1FD2A3FF650AF8B4240EBC25013
:100F900008BF20F0010070470CF0004C4CEA5020D4
:100FA0007F32C2BFD2F1FF0340EAC250704740F423
:100FB00000004FF00003013A37E792F0000F00F015
:100FC000004C02BF400010F4000F013AF9D040EA93
:100FD0000C0093F0000F01F0004C02BF490011F427
:100FE000000F013BF9D041EA0C0195E70CEAD1531F
:100FF00092EA0C0F08D142027FF47DAF93EA0C0F06
:101000007FF470AF084676E793EA0C0F04D14B02E9
:101010003FF44CAF08466EE730F0004C18BF31F09B
:10102000004CCAD130F000427FF45CAF31F0004395
:101030007FF43CAF5FE700BF38B5002200230446D1
:101040000D46FFF7C5FC28B920462946BDE83840C3
:1010500000F00AB8204605F1004100F005F84042D2
:1010600061EB410138BD00BFD0B500220B4B0646F5
:101070000F46FFF73BFAFFF711FD0446FFF7BCF9F7
:101080000022074BFFF732FA02460B46304639463C
:10109000FFF774F8FFF702FD2146D0BD0000F03DD8
:1010A0000000F04180B483B000AF78607B685B687B
:1010B0009BB2C3F308039BB218460C37BD4680BCF5
:1010C000704780B483B000AF78600B467B807B882C
:1010D000C3F308027B685A6000BF0C37BD4680BC72
:1010E0007047000080B582B000AF7860154B164A9B
:1010F0001A60144A7B685360124B00229A60114BAD
:101100000022DA600F4B00221A610E4B0C225A614A
:101110000C4B00229A610B4B0022DA61094802F065
:101120001AFE0346002B00D000BF064B1B68DA688E
:10113000044B1B6842F02002DA6000BF0837BD464E
:1011400080BD00BFB80200200038014080B487B0E5
:1011500000AF786000237B6100233B6115E07B6971
:10116000DB007A681344FB6000233B6107E03B69C6
:10117000FA68134400221A703B6901333B613B69F2
:10118000072BF4DD7B6901337B617B69032BE6DD93
:1011900000233B6108E07A683B6913441433002262
:1011A0001A703B6901333B613B69072BF3DD7B68B8
:1011B00040221A6100BF1C37BD4680BC704700004A
:1011C00090B583B000AF00F050F80346FB71184BA8
:1011D000DB6803F02003002B25D0154B1B6803F0C0
:1011E0002003002B1FD000BF114B1B6803F020030E
:1011F000002BF9D0FC790E48FFF754FF03461A463E
:101200000C4B23F81420FB79012202FA03F35BB2A2
:10121000DB435AB2084B1B78DBB25BB213405BB2C4
:10122000DAB2054B1A7000BF0C37BD4690BD00BF47
:1012300000380140F8010020F401002080B582B0A0
:1012400000AF4FF41650FFF74DFFF02000F014F8F8
:1012500000F050F80346FB804FF4E130FFF742FF07
:10126000FB8818460837BD4680BD80B400AF002318
:101270001846BD4680BC704780B582B000AF0346BB
:10128000FB80FFF7F2FF03461A46012393405AB250
:101290000D4B1B78DBB25BB213435BB2DAB20A4B85
:1012A0001A70FB8819460948FFF70BFF00BF084B6F
:1012B0001B681B6803F04003402BF8D100BF00BF40
:1012C0000837BD4680BD00BFF40100200038014052
:1012D000B802002080B483B000AF0346FB80FB88D7
:1012E000FF2B0CBF01230023DBB218460C37BD4691
:1012F00080BC704780B582B000AFFFF7B6FF0346F1
:101300007B714FF47A73FB8000BF0C4B1B78DBB210
:101310001A467B7942FA03F303F00103002B04D051
:10132000FB885A1EFA80002BEFD17B79044A32F8F1
:1013300013309BB218460837BD4680BDF40100202B
:10134000F801002080B485B000AF03463960FB711E
:101350000023FB7314E0FB7903F00103002B03D09F
:101360003B68FF221A7002E03B6800221A703B685B
:1013700001333B60FB795B08FB71FB7B0133FB7343
:10138000FB7B072BE7D93B6818461437BD4680BC6A
:10139000704780B586B000AF0346FB7107F10C02C1
:1013A000FB7911461846FFF7CDFF00237B610AE069
:1013B00007F10C027B6913441B781846FFF75CFFAA
:1013C0007B6901337B617B69072BF1DD00BF00BFC7
:1013D0001837BD4680BD80B485B000AF78600B463D
:1013E000FB7000233B7300237B733B7B7A681344C1
:1013F0001B78BB730023FB7318E07A7BBB7B5340E5
:10140000FB72FB7A03F00103FB727B7B5B087B734F
:10141000BB7B5B08BB73FB7A012B04D17B7B83F026
:101420007303DB437B73FB7B0133FB73FB7B072B7A
:10143000E3D93B7B01333B733A7BFB789A42D4D3AD
:101440007B7B18461437BD4680BC704780B582B0A0
:1014500000AF786007217868FFF7BDFF03461846A4
:101460000837BD4680BD80B588B000AF7860396070
:101470000023FB774FF0FF33BB610023FB75FFF7C1
:10148000DDFE0346F02B01D1002397E0F020FFF7AB
:1014900080FF00237B75FB7FDB08DBB23B613B6990
:1014A0003A681344FB600023BB75FF20FFF7E4FE9E
:1014B000FFF720FF03461846FFF70CFF0346FB72B9
:1014C000FF20FFF7D9FEFFF715FF03461846FFF789
:1014D00001FF0346BB72FA7ABB7A9A4205D1FB7AC6
:1014E000012B02D14FF0FF3368E0FA7ABB7A9A42BF
:1014F00002D0FB7ABB7523E0FA7F7B681B699A42B6
:1015000002D10123BB751BE0FA7F7B681B699A42FD
:1015100002DD0023BB750EE07A683B691344143387
:101520001B781A46FB7F03F0070342FA03F3DBB292
:1015300003F00103BB75BB7D002B01D1FB7FBB61B9
:10154000BB7D002B0ED0FB681B785AB2FB7F03F0EB
:101550000703012101FA03F35BB213435BB2DAB272
:10156000FB681A70BB7D002B01D1002300E0FF2334
:101570007B757B7D9BB21846FFF77EFEFB7F0133B8
:10158000FB77FB7F3F2B84D97B68BA691A610BE03C
:10159000FB7D3A681A44FB7D11787A6813440A4649
:1015A0001A75FB7D0133FB75FB7D062BF0D97B683B
:1015B0001B69002BCCBF01230023DBB21846203768
:1015C000BD4680BD80B584B000AF78600023FB606D
:1015D0007868FFF7BBFDFB68DB007A6813441946A7
:1015E0007868FFF740FFB860BB68002B02DA4FF065
:1015F000FF3309E0FB680133FB60BB68002B02D0BE
:10160000FB68032BE7DDFB6818461037BD4680BD3D
:1016100080B584B000AF78600023FB60FFF70EFE5A
:101620005520FFF7B6FE09E0FB687A6813441B7883
:101630001846FFF7AEFEFB680133FB60FB68072B23
:10164000F2DD00BF00BF1037BD4680BD80B582B05F
:1016500000AF786039603868FFF7DAFF4420FFF7A1
:1016600098FE00BF0837BD4680BD80B586B000AF8C
:10167000F860B9607A600023FB82BB681B78102B8E
:1016800001D0282B09D14823BB8200BFB868FFF7DF
:10169000BFFFBE20FFF77DFE48E07B684BE0BB8AC2
:1016A000083B002B00DA0733DB10DAB2FB8ADB08D9
:1016B0009BB2DBB2D31AFB74FF20FFF7DDFDFFF70F
:1016C00019FE03461846FFF705FE0346BB74BB7CB4
:1016D000012B13D1FB7C7A6813441B785AB2FB8A26
:1016E00003F00703012101FA03F35BB2134359B27C
:1016F000FB7C7A681344CAB21A7014E0FB7C7A68E7
:1017000013441B785AB2FB8A03F00703012101FA44
:1017100003F35BB2DB435BB2134059B2FB7C7A68E4
:101720001344CAB21A70FB8A0133FB82FA8ABB8A5D
:101730009A42B4D37B6818461837BD4680BD80B541
:101740008CB000AFF860B9601346FB71002387F8D6
:101750002030002387F8213007F11403FB6207F1E2
:101760001403BB62BB681B78102B23D0282B3BD102
:1017700007F114031A46B968F868FFF776FFFB6AA9
:10178000DB795BB21B015AB2FB6A1B7A1B09DBB225
:101790005BB213435BB287F82030FB6A1B7A03F01D
:1017A0000F0213469B0013445B001B11DBB287F84A
:1017B00021301CE007F114031A46B968F868FFF7F6
:1017C00054FFBB6A1B7A5B08DBB25BB287F8203040
:1017D000BB6A1B7A03F00103DBB21A469200134482
:1017E000DBB287F8213002E03B8CBB8408E0FB7958
:1017F000002B03D0B968F868FFF728FF3B8CBB8447
:10180000002397F8242062F3070397F8252062F35A
:101810000F2318463037BD4680BD0000F0B589B0B3
:1018200006AFFFF70BFD0346F02B79D04E48FFF7CC
:10183000C9FE0346DAB24D4B1A704C4B1B78002B95
:1018400013D14B4B4B4A1A604B4B00221A6005E0F8
:1018500000BF494B1B680133474A1360464B1A6867
:10186000434B1B689A42F3D3EBE7434B00221A60C9
:101870004FE0414B1B68DB003B4A13447B607868B8
:10188000FFF7E4FD0346FB707B68DB79FA789A4248
:1018900001D13A4B00E03A4B3A4A1360364B1B6891
:1018A0001A46394B1A607B681B781E467B689B7909
:1018B0009C467B685B791A467B681B7919467B6876
:1018C000DB7818467B689B781C467B685B781D46F6
:1018D0007B68DB7905930495039402900191009253
:1018E0006346324629492A4803F0ACFD7B68DB7920
:1018F000FA789A4208D0204B1B681A46224B1A608D
:101900002449234803F09EFD1B4B1B6801331A4AF0
:101910001360164B1B781A46174B1B689A42A8D8BF
:10192000134B144A1A60144B00221A6005E000BFE2
:10193000114B1B680133104A13600F4B1A680C4B94
:101940001B689A42F3D30F4B1B680C491846FEF7ED
:10195000FFFB0346002B01D1002301E04FF0FF33D2
:1019600018460C37BD46F0BD3C020020380200206E
:101970000000002040420F0058020020E08C0008C8
:10198000E88C00086002002014020020F48C00089B
:10199000180200201C8D000898B500AF3A4B0022B9
:1019A0001A6067E0384B1B68384A12F83330282B2E
:1019B00006D0282B56DC002B56D0102B29D051E016
:1019C000314B1B68DB00314A1344012219462F4872
:1019D000FFF7B5FE03462E4A13802D4B93F90030D6
:1019E0001A4613469B0013445B001A46284B5B784B
:1019F00013441846FFF77CF90346234A1468254927
:101A00001846FFF77DFA03461A46234B43F8242075
:101A10002BE01D4B1B68DB001C4A134401221946B6
:101A20001A48FFF78CFE0346194A1380184B93F9A6
:101A300000301A4613469B0013445B001A46144BB1
:101A40005B7813441846FFF753F903460E4A1468AF
:101A500010491846FFF754FA03461A460E4B43F84E
:101A6000242002E000BF00E000BF074B1B680133E9
:101A7000054A1360094B1B781A46034B1B689A42B0
:101A800090D800BF00BF98BD580200203C02002043
:101A90005C020020000020410402002038020020E7
:101AA00080B586B002AF78600B46FB70FB7823F000
:101AB0000F03FB73FB781B01BB73FB7B43F00C0331
:101AC000DBB23B72FB7B43F00803DBB27B72BB7B78
:101AD00043F00C03DBB2BB72BB7B43F00803DBB209
:101AE000FB727B6818687B681B79194607F108024E
:101AF00064230093042301F0CDF900BF1037BD46E5
:101B000080BD80B586B002AF78600B46FB70FB7875
:101B100023F00F03FB73FB781B01BB73FB7B43F0CC
:101B20000D03DBB23B72FB7B43F00903DBB27B723C
:101B3000BB7B43F00D03DBB2BB72BB7B43F00903FD
:101B4000DBB2FB727B6818687B681B79194607F16A
:101B5000080264230093042301F09CF900BF1037AE
:101B6000BD4680BD80B584B000AF786080217868C4
:101B7000FFF796FF0023FB6006E020217868FFF75F
:101B8000C0FFFB680133FB60FB684F2BF5DD00BF36
:101B900000BF1037BD4680BD80B586B000AFF8608D
:101BA000B9607A607B68032B24D801A252F823F035
:101BB000C11B0008CB1B0008D51B0008DF1B000859
:101BC000BB68DBB2803BFB750EE0BB68DBB2403B21
:101BD000FB7509E0BB68DBB26C3BFB7504E0BB68DE
:101BE000DBB22C3BFB7500BFFB7D1946F868FFF7A5
:101BF00057FF00E000BF1837BD4680BD80B582B0FA
:101C000000AF7860322000F0B5FC30217868FFF733
:101C100047FF052000F0AEFC30217868FFF740FF59
:101C2000012000F0A7FC30217868FFF739FF0A2077
:101C300000F0A0FC20217868FFF732FF0A2000F0B6
:101C400099FC28217868FFF72BFF012000F092FC17
:101C500008217868FFF724FF012000F08BFC0121A8
:101C60007868FFF71DFF022000F084FC06217868E9
:101C7000FFF716FF012000F07DFC0C217868FFF7CC
:101C80000FFF00BF0837BD4680BD80B582B000AFF2
:101C90007860396007E03B685A1C3A601B78194647
:101CA0007868FFF72EFF3B681B78002BF3D100BF4D
:101CB00000BF0837BD4680BD80B594B000AF00F0CE
:101CC000F7FB00F0BFF800F07BF900F025F900F019
:101CD000F5F800F04BF94FF4FA7000F04BFC504B64
:101CE000504A1A604E4B4E221A714D48FFF786FF3C
:101CF0004FF4FA7000F03EFC4948FFF733FF6420D0
:101D000000F038FC48494648FFF7BFFF0022052194
:101D10004348FFF741FFFFF781FDFFF73DFE00F06D
:101D20001FFCF86400F01CFCB864002387F84730FF
:101D3000002387F8463000F013FC0246BB6CD31A30
:101D4000B3F5FA7F47D30421384800F057FF97F8DE
:101D50004730013387F8473097F84630013387F82A
:101D6000463097F84730642B03D097F84630642B01
:101D70000ED1002387F84730002387F84630012230
:101D800000212748FFF708FF29492548FFF77DFF75
:101D900097F8472097F84630381D264903F052FB44
:101DA000012200211E48FFF7F7FE3B1D19461C4883
:101DB000FFF76BFF391D642320221F4802F020F833
:101DC0000A23FB70F91C0A2301221B4802F018F8B1
:101DD00000F0C6FBB86400F0C3FB0246FB6CD31AEC
:101DE000B3F5FA6FA7D3FFF7D7FD144B1B6818465E
:101DF000FEF724FB02460B4607F12400104903F0CE
:101E000021FB002205210648FFF7C6FE07F1240347
:101E100019460348FFF739FF00F0A2FBF8648AE790
:101E200038030020640200203C8D0008000C0140B3
:101E3000448D0008508D0008F802002004020020A4
:101E4000588D000880B590B000AF07F11803282224
:101E50000021184603F05CFB3B1D00221A605A600B
:101E60009A60DA601A610223BB610123BB6210230E
:101E7000FB6200237B6307F11803184601F004FBA3
:101E80000346002B01D000F0D9F80F237B6000231C
:101E9000BB600023FB6000233B6100237B613B1D93
:101EA0000021184601F072FD0346002B01D000F01E
:101EB000C5F800BF4037BD4680BD000080B500AF0B
:101EC000124B134A1A60114B124A5A600F4B0022F0
:101ED0009A600E4B0022DA600C4B4FF480421A617C
:101EE0000A4B00225A61094B00229A61074B0022DB
:101EF000DA61064B00221A62044800F097FE03469E
:101F0000002B01D000F09AF800BF80BD64020020D1
:101F100000540040A086010080B500AF114B124A6A
:101F20001A60104B4FF4E1325A600E4B00229A6057
:101F30000C4B0022DA600B4B00221A61094B0C2279
:101F40005A61084B00229A61064B0022DA6105486B
:101F500001F001FF0346002B01D000F06FF800BF35
:101F600080BD00BFB80200200038014080B500AF3E
:101F7000114B124A1A60104B4FF416525A600E4B16
:101F800000229A600C4B0022DA600B4B00221A618F
:101F9000094B0C225A61084B00229A61064B002221
:101FA000DA61054801F08AFE0346002B01D000F0FB
:101FB00045F800BF80BD00BFF8020020004400408B
:101FC00080B586B000AF07F1080300221A605A609E
:101FD0009A60DA60174B9B69164A43F004039361D9
:101FE000144B9B6903F004037B607B68114B9B6976
:101FF000104A43F0080393610E4B9B6903F00803FA
:102000003B603B68002204210B4800F0DFFD042305
:10201000BB600123FB6000233B6102237B6107F16E
:1020200008031946044800F04DFC00BF1837BD46B0
:1020300080BD00BF00100240000C014080B400AF22
:1020400072B600BF00BFFDE780B483B000AF0E4B97
:102050009B690D4A43F0010393610B4B9B6903F0AD
:1020600001037B607B68084BDB69074A43F08053C0
:10207000D361054BDB6903F080533B603B6800BFD5
:102080000C37BD4680BC70470010024080B588B058
:1020900000AF786007F1100300221A605A609A605E
:1020A000DA607B681B68154A934223D1144B9B6905
:1020B000134A43F008039361114B9B6903F0080333
:1020C000FB60FB68C0233B6112237B610323FB6140
:1020D00007F1100319460B4800F0F4FB084BDB69CD
:1020E000074A43F40013D361054BDB6903F4001383
:1020F000BB60BB6800BF2037BD4680BD00540040B8
:1021000000100240000C014080B58AB000AF78603A
:1021100007F1180300221A605A609A60DA607B683F
:102120001B68354A93422DD1344B9B69334A43F4A3
:1021300080439361314B9B6903F480437B617B69EE
:102140002E4B9B692D4A43F0040393612B4B9B69F3
:1021500003F004033B613B694FF40073BB6112233E
:10216000FB6103237B6207F118031946244800F042
:10217000A9FB00220021252000F0F7FA252000F01D
:1021800010FB34E07B681B681E4A93422FD11B4B27
:10219000DB691A4A43F40033D361184BDB6903F45B
:1021A0000033FB60FB68154B9B69144A43F0040342
:1021B0009361124B9B6903F00403BB60BB6804236B
:1021C000BB610223FB6103237B6207F118031946FD
:1021D0000B4800F077FB0823BB610023FB61002361
:1021E0003B6207F118031946054800F06BFB00BF7E
:1021F0002837BD4680BD00BF0038014000100240B6
:10220000000801400044004080B400AF00BFFDE77B
:1022100080B400AF00BFFDE780B400AF00BFFDE7B2
:1022200080B400AF00BFFDE780B400AF00BFFDE7A2
:1022300080B400AF00BFBD4680BC704780B400AF23
:1022400000BFBD4680BC704780B400AF00BFBD4634
:1022500080BC704780B500AF00F070F900BF80BD52
:1022600080B500AFFEF7ACFF024801F063FE00BF8F
:1022700080BD00BFB802002080B400AF0123184623
:10228000BD4680BC704780B582B000AF78603960D1
:1022900003F090F9034616221A604FF0FF331846F8
:1022A0000837BD4680BD80B582B000AF78604FF082
:1022B000FF317868FFF7E7FF00BFFDE780B586B024
:1022C00000AFF860B9607A6000237B610AE0AFF389
:1022D00000800146BB685A1CBA60CAB21A707B699A
:1022E00001337B617A697B689A42F0DB7B68184630
:1022F0001837BD4680BD80B586B000AFF860B960C4
:102300007A6000237B6109E0BB685A1CBA601B78C5
:102310001846AFF300807B6901337B617A697B6883
:102320009A42F1DB7B6818461837BD4680BD80B401
:1023300083B000AF78604FF0FF3318460C37BD46CE
:1023400080BC704780B483B000AF786039603B6870
:102350004FF400525A60002318460C37BD4680BC2B
:10236000704780B483B000AF7860012318460C3703
:10237000BD4680BC704780B485B000AFF860B960DE
:102380007A60002318461437BD4680BC70470000B1
:1023900080B586B000AF7860144A154BD31A7B61C4
:1023A0007B693B61134B1B68002B02D1114B124A16
:1023B0001A60104B1A687B6813443A699A4207D234
:1023C00003F0F8F803460C221A604FF0FF3309E0DF
:1023D000084B1B68FB60074B1A687B681344054A6F
:1023E0001360FB6818461837BD4680BD00500020BA
:1023F00000040000400300209804002080B400AFD7
:10240000154B1B68144A43F001031360124B5A68C2
:102410001149124B13404B600F4B1B680E4A23F0BF
:10242000847323F4803313600B4B1B680A4A23F434
:1024300080231360084B5B68074A23F4FE03536054
:10244000054B4FF41F029A60054B4FF000629A60F3
:1024500000BFBD4680BC7047001002400000FFF87E
:1024600000ED00E0002103E00B4B5B5843500431CA
:102470000A480B4B42189A42F6D30A4A02E000235C
:1024800042F8043B084B9A42F9D3FFF7B7FF03F039
:1024900097F8FFF711FC7047C49100080000002076
:1024A000D8010020D801002094040020FEE700009D
:1024B00080B500AF084B1B68074A43F01003136058
:1024C000032000F047F90F2000F008F8FFF7BCFDEB
:1024D0000023184680BD00BF0020024080B582B0B6
:1024E00000AF7860124B1A68124B1B7819464FF4F4
:1024F0007A73B3FBF1F3B2FBF3F3184600F05FF924
:102500000346002B01D001230EE07B680F2B0AD875
:10251000002279684FF0FF3000F027F9064A7B6807
:102520001360002300E0012318460837BD4680BD34
:10253000040000200C0000200800002080B400AF40
:10254000054B1B781A46054B1B681344034A13605E
:1025500000BFBD4680BC70470C0000204403002033
:1025600080B400AF024B1B681846BD4680BC704764
:102570004403002080B584B000AF7860FFF7F0FF1F
:10258000B8607B68FB60FB68B3F1FF3F05D00A4B86
:102590001B781A46FB681344FB6000BFFFF7E0FF9F
:1025A0000246BB68D31AFA689A42F7D800BF00BF48
:1025B0001037BD4680BD00BF0C00002080B485B040
:1025C00000AF78607B6803F00703FB600C4BDB68AF
:1025D000BB60BA684FF6FF031340BB60FB681A028A
:1025E000BB68134343F0BF6343F40033BB60044A4A
:1025F000BB68D36000BF1437BD4680BC704700BFC6
:1026000000ED00E080B400AF044BDB681B0A03F070
:1026100007031846BD4680BC704700BF00ED00E0D0
:1026200080B483B000AF0346FB7197F90730002BED
:102630000BDBFB7903F01F02064997F907305B09B2
:10264000012000FA02F241F8232000BF0C37BD46FA
:1026500080BC704700E100E080B483B000AF034667
:102660003960FB7197F90730002B0ADB3B68DAB25F
:102670000C4997F907301201D2B20B4483F80023BA
:102680000AE03B68DAB20849FB7903F00F03043B28
:102690001201D2B20B441A7600BF0C37BD4680BC83
:1026A000704700BF00E100E000ED00E080B489B0B9
:1026B00000AFF860B9607A60FB6803F00703FB6164
:1026C000FB69C3F10703042B28BF0423BB61FB692B
:1026D0000433062B02D9FB69033B00E000237B6136
:1026E0004FF0FF32BB6902FA03F3DA43BB681A40CA
:1026F0007B699A404FF0FF317B6901FA03F3D943BC
:102700007B680B40134318462437BD4680BC704796
:1027100080B582B000AF78607B68013BB3F1807F09
:1027200001D301230FE00A4A7B68013B53600F216C
:102730004FF0FF30FFF790FF054B00229A60044BEB
:1027400007221A60002318460837BD4680BD00BF27
:1027500010E000E080B582B000AF78607868FFF7E5
:102760002DFF00BF0837BD4680BD80B586B000AFE5
:102770000346B9607A60FB7300237B61FFF742FF79
:1027800078617A68B9687869FFF790FF024697F92F
:102790000F3011461846FFF75FFF00BF1837BD46E0
:1027A00080BD80B582B000AF0346FB7197F907305A
:1027B0001846FFF735FF00BF0837BD4680BD80B51E
:1027C00082B000AF78607868FFF7A2FF0346184632
:1027D0000837BD4680BD000080B584B000AF78608A
:1027E0000023FB737B6893F82130022B05D07B68B4
:1027F00004229A630123FB7351E07B681B681A680B
:102800007B681B6822F00E021A607B681B681A68DE
:102810007B681B6822F001021A607B681B68224AF1
:10282000934229D07B681B68204A934222D07B6860
:102830001B681F4A93421AD07B681B681D4A93424B
:1028400012D07B681B681C4A93420AD07B681B68C5
:102850001A4A934202D14FF480130EE04FF0807376
:102860000BE04FF4803308E04FF4805305E04FF461
:10287000807302E0102300E00123114A53607B685B
:10288000012283F821207B68002283F820207B68C6
:102890005B6B002B03D07B685B6B78689847FB7B96
:1028A00018461037BD4680BD080002401C0002409B
:1028B0003000024044000240580002406C000240D8
:1028C0000000024080B48BB000AF78603960002314
:1028D0007B6200233B6269E101227B6A02FA03F317
:1028E000FB613B681B68FA691340BB61BA69FB690D
:1028F0009A4240F058813B685B689A4A93425ED0A6
:10290000984A934275D8984A934258D0964A93422F
:102910006FD8964A934252D0944A934269D8944AC7
:1029200093424CD0924A934263D8924A934246D003
:10293000904A93425DD8122B2AD8122B59D801A263
:1029400052F823F0BF29000899290008AB29000894
:10295000ED290008F3290008F3290008F3290008ED
:10296000F3290008F3290008F3290008F3290008D7
:10297000F3290008F3290008F3290008F3290008C7
:10298000F3290008F3290008A1290008B529000847
:10299000794A934213D02CE03B68DB683B6229E024
:1029A0003B68DB6804333B6224E03B68DB68083348
:1029B0003B621FE03B68DB680C333B621AE03B681C
:1029C0009B68002B02D104233B6213E03B689B68A9
:1029D000012B05D108233B627B68FA691A6109E083
:1029E00008233B627B68FA695A6103E000233B627B
:1029F00000E000BFBB69FF2B01D87B6801E07B686A
:102A000004337B61BB69FF2B02D87B6A9B0002E029
:102A10007B6A083B9B003B617B691A680F213B691D
:102A200001FA03F3DB431A40396A3B6901FA03F305
:102A30001A437B691A603B685B6803F08053002B84
:102A400000F0B1804D4B9B694C4A43F00103936108
:102A50004A4B9B6903F00103BB60BB68484A7B6A31
:102A60009B08023352F82330FB607B6A03F00303B8
:102A70009B000F2202FA03F3DB43FA681340FB606A
:102A80007B68404A934213D07B683F4A93420DD003
:102A90007B683E4A934207D07B683D4A934201D10E
:102AA000032306E0042304E0022302E0012300E004
:102AB00000237A6A02F0030292009340FA681343FB
:102AC000FB602F497B6A9B080233FA6841F8232098
:102AD0003B685B6803F48033002B06D02D4B1A68EB
:102AE0002C49BB6913430B6006E02A4B1A68BB698B
:102AF000DB43284913400B603B685B6803F40033F9
:102B0000002B06D0234B5A682249BB6913434B6004
:102B100006E0204B5A68BB69DB431E4913404B60FB
:102B20003B685B6803F48013002B06D0194B9A684E
:102B30001849BB6913438B6006E0164B9A68BB6962
:102B4000DB43144913408B603B685B6803F400135C
:102B5000002B21D00F4BDA680E49BB691343CB60C1
:102B600021E000BF000032100000311000002210F0
:102B7000000021100000121000001110001002408F
:102B80000000014000080140000C0140001001401D
:102B900000140140000401400B4BDA68BB69DB43C1
:102BA00009491340CB607B6A01337B623B681A683A
:102BB0007B6A22FA03F3002B7FF48EAE00BF00BFC6
:102BC0002C37BD4680BC70470004014080B483B000
:102BD00000AF78600B467B8013467B707B78002BC0
:102BE00003D07A887B681A6103E07B881A047B68CB
:102BF0001A6100BF0C37BD4680BC704780B483B0FB
:102C000000AF78600B467B807B68DA687B88134076
:102C1000002B03D07A887B685A6102E07A887B684F
:102C20001A6100BF0C37BD4680BC704780B584B0C8
:102C300000AF78607B68002B01D101231BE17B682A
:102C400093F83D30DBB2002B06D17B68002283F87D
:102C50003C207868FFF71AFA7B68242283F83D202D
:102C60007B681B681A687B681B6822F001021A6087
:102C700000F0DEFFF8607B685B68814A934207D80A
:102C8000FB68804A934294BF01230023DBB206E035
:102C9000FB687D4A934294BF01230023DBB2002BE3
:102CA00001D00123E7E0FB68784AA2FB03239B0CD9
:102CB000BB607B681B685B6823F03F017B681B6817
:102CC000BA680A435A607B681B681B6A23F03F019D
:102CD0007B685B686A4A934202D8BB68013309E0AB
:102CE000BB684FF4967202FB03F3694AA2FB03230D
:102CF0009B0901337A6812680B4313627B681B6877
:102D0000DB6923F44F4222F0FF027B685B685C4979
:102D10008B4219D8FB68591E7B685B685B00B1FB6E
:102D2000F3F3591C40F6FC730B40002B0AD0FB68F0
:102D3000591E7B685B685B00B1FBF3F30133C3F39F
:102D40000B0351E004234FE07B689B68002B11D1FB
:102D5000FB68581E7B6859680B465B000B44B0FB50
:102D6000F3F30133C3F30B03002B0CBF0123002348
:102D7000DBB212E0FB68581E7B6859680B469B006B
:102D80000B4499000B44B0FBF3F30133C3F30B0383
:102D9000002B0CBF01230023DBB2002B01D0012349
:102DA00022E07B689B68002B0ED1FB68581E7B6875
:102DB00059680B465B000B44B0FBF3F30133C3F3DC
:102DC0000B0343F400430FE0FB68581E7B6859680F
:102DD0000B469B000B4499000B44B0FBF3F301330B
:102DE000C3F30B0343F44043796809681343CB6191
:102DF0007B681B681B6823F0C0017B68DA697B680D
:102E00001B6A1A437B681B680A431A607B681B684D
:102E10009B6823F4034323F0FF037A6811697A68FF
:102E2000D26811437A6812680B4393607B681B6811
:102E3000DB6823F0FF017B685A697B689B691A4352
:102E40007B681B680A43DA607B681B681A687B68CA
:102E50001B6842F001021A607B6800221A647B68DA
:102E6000202283F83D207B6800221A637B680022C1
:102E700083F83E20002318461037BD4680BD00BFB2
:102E8000A08601007F841E00FF083D0083DE1B43F7
:102E9000D34D621080B588B002AFF8607A601A46F0
:102EA0000B467B8113463B81FFF75AFB7861FB6839
:102EB00093F83D30DBB2202B40F0E0807B6900933B
:102EC000192301227049F86800F058F90346002BD5
:102ED00001D00223D3E0FB6893F83C30012B01D1F1
:102EE0000223CCE0FB68012283F83C20FB681B68CE
:102EF0001B6803F00103012B07D0FB681B681A68ED
:102F0000FB681B6842F001021A60FB681B681A68C4
:102F1000FB681B6822F400621A60FB68212283F8B8
:102F20003D20FB68102283F83E20FB6800221A64D3
:102F3000FB687A685A62FB683A895A85FB685B8D40
:102F40009AB2FB681A85FB68504ADA6279897B6914
:102F50003A6AF86800F09CF80346002B01D0012380
:102F60008DE000233B61FB681B685B693B61FB688C
:102F70001B689B693B613B6966E07A69396AF8685E
:102F800000F0D2F90346002B0DD0FB681B6C042B1C
:102F900007D1FB681B681A68FB681B6842F4007263
:102FA0001A6001236BE0FB685B6A1A78FB681B6898
:102FB0001A61FB685B6A5A1CFB685A62FB685B8D8E
:102FC0009BB2013B9AB2FB685A85FB681B8D013BA3
:102FD0009AB2FB681A85FB681B685B6903F00403FF
:102FE000042B1BD1FB681B8D002B17D0FB685B6A81
:102FF0001A78FB681B681A61FB685B6A5A1CFB68DD
:103000005A62FB685B8D9BB2013B9AB2FB685A85A2
:10301000FB681B8D013B9AB2FB681A857A69396A95
:10302000F86800F0C2F90346002B0DD0FB681B6C5A
:10303000042B07D1FB681B681A68FB681B6842F405
:1030400000721A6001231AE0FB681B8D002B94D1DB
:10305000FB681B681A68FB681B6842F400721A6000
:10306000FB68202283F83D20FB68002283F83E2085
:10307000FB68002283F83C20002300E0022318466E
:103080001837BD4680BD00BF020010000000FFFFE2
:1030900080B588B002AFF8607A603B600B467B81F8
:1030A000FB68DB6A7B617B69082B06D07B69012B9F
:1030B00003D07B6913F5803F08D1FB681B681A6851
:1030C000FB681B6842F480721A600BE0FB681B6BA4
:1030D000122B07D1FB681B681A68FB681B6842F457
:1030E00080721A603B6800937B6800224FF00111E8
:1030F000F86800F043F80346002B01D0012335E0C7
:10310000FB681B69B3F5804F08D17B89DBB21A4697
:10311000FB681B6802F0FE021A611BE07B89DB1171
:10312000DBB203F00603DBB263F00F03DAB2FB6835
:103130001B681A613B687A680E49F86800F075F8F8
:103140000346002B01D0012310E07B89DAB2FB6833
:103150001B681A613B687A680749F86800F065F8EF
:103160000346002B01D0012300E000231846183746
:10317000BD4680BD080001000200010080B584B09A
:1031800000AFF860B9603B601346FB7125E03B6817
:10319000B3F1FF3F21D0FFF7E3F90246BB69D31A31
:1031A0003A689A4202D33B68002B16D1FB68002292
:1031B0001A63FB68202283F83D20FB68002283F815
:1031C0003E20FB681B6C43F02002FB681A64FB681E
:1031D000002283F83C20012323E0BB681B0CDBB2F8
:1031E000012B0DD1FB681B685B69DA43BB68134098
:1031F0009BB2002B0CBF01230023DBB21A460CE06C
:10320000FB681B689B69DA43BB6813409BB2002BC9
:103210000CBF01230023DBB21A46FB799A42B6D0D9
:10322000002318461037BD4680BD80B584B000AF7E
:10323000F860B9607A603B6051E0FB681B685B69CD
:1032400003F48063B3F5806F23D1FB681B681A68B1
:10325000FB681B6842F400721A60FB681B686FF41D
:1032600080625A61FB6800221A63FB68202283F89F
:103270003D20FB68002283F83E20FB681B6C43F076
:103280000402FB681A64FB68002283F83C200123D7
:1032900046E07B68B3F1FF3F21D0FFF761F90246BA
:1032A0003B68D31A7A689A4202D37B68002B16D106
:1032B000FB6800221A63FB68202283F83D20FB682C
:1032C000002283F83E20FB681B6C43F02002FB6861
:1032D0001A64FB68002283F83C20012320E0BB68CD
:1032E0001B0CDBB2012B0CD1FB681B685B69DA435A
:1032F000BB6813409BB2002B14BF01230023DBB239
:103300000BE0FB681B689B69DA43BB6813409BB208
:10331000002B14BF01230023DBB2002B8DD100232F
:1033200018461037BD4680BD80B584B000AFF86048
:10333000B9607A602DE0F86800F078F80346002B59
:1033400001D001232DE0BB68B3F1FF3F21D0FFF78F
:1033500007F902467B68D31ABA689A4202D3BB685F
:10336000002B16D1FB6800221A63FB68202283F829
:103370003D20FB68002283F83E20FB681B6C43F075
:103380002002FB681A64FB68002283F83C200123BA
:1033900007E0FB681B685B6903F08003802BCAD1E0
:1033A000002318461037BD4680BD80B584B000AFFD
:1033B000F860B9607A602DE0F86800F037F80346ED
:1033C000002B01D001232DE0BB68B3F1FF3F21D0DA
:1033D000FFF7C6F802467B68D31ABA689A4202D34E
:1033E000BB68002B16D1FB6800221A63FB68202201
:1033F00083F83D20FB68002283F83E20FB681B6CAD
:1034000043F02002FB681A64FB68002283F83C202A
:10341000012307E0FB681B685B6903F00403042BCE
:10342000CAD1002318461037BD4680BD80B483B092
:1034300000AF78607B681B685B6903F48063B3F559
:10344000806F1BD17B681B686FF480625A617B6858
:1034500000221A637B68202283F83D207B680022CB
:1034600083F83E207B681B6C43F004027B681A647F
:103470007B68002283F83C20012300E000231846EB
:103480000C37BD4680BC704780B586B000AF786011
:103490007B68002B01D1012372E27B681B6803F07B
:1034A0000103002B00F08780924B5B6803F00C0354
:1034B000042B0CD08F4B5B6803F00C03082B12D14C
:1034C0008C4B5B6803F48033B3F5803F0BD1894BA1
:1034D0001B6803F40033002B6CD07B685B68002B07
:1034E00068D101234CE27B685B68B3F5803F06D16D
:1034F000804B1B687F4A43F4803313602EE07B6867
:103500005B68002B0CD17B4B1B687A4A23F4803319
:103510001360784B1B68774A23F4802313601DE007
:103520007B685B68B3F5A02F0CD1724B1B68714AA6
:1035300043F4802313606F4B1B686E4A43F480335F
:1035400013600BE06B4B1B686A4A23F480331360F3
:10355000684B1B68674A23F4802313607B685B68B1
:10356000002B13D0FEF7FCFF386108E0FEF7F8FFF0
:1035700002463B69D31A642B01D9032300E25D4B59
:103580001B6803F40033002BF0D014E0FEF7E8FFD3
:10359000386108E0FEF7E4FF02463B69D31A642B6A
:1035A00001D90323ECE1534B1B6803F40033002BD8
:1035B000F0D100E000BF7B681B6803F00203002B22
:1035C00063D04C4B5B6803F00C03002B0BD0494BD2
:1035D0005B6803F00C03082B1CD1464B5B6803F4BB
:1035E0008033002B16D1434B1B6803F00203002BE2
:1035F00005D07B681B69012B01D00123C0E13D4B45
:103600001B6823F0F8027B685B69DB0039491343D0
:103610000B603AE07B681B69002B20D0364B0122FF
:103620001A60FEF79DFF386108E0FEF799FF024639
:103630003B69D31A022B01D90323A1E12D4B1B684F
:1036400003F00203002BF0D02A4B1B6823F0F80292
:103650007B685B69DB00274913430B6015E0264B51
:1036600000221A60FEF77CFF386108E0FEF778FF61
:1036700002463B69D31A022B01D9032380E11D4B7B
:103680001B6803F00203002BF0D17B681B6803F07A
:103690000803002B3AD07B689B69002B19D0174B8D
:1036A00001221A60FEF75CFF386108E0FEF758FF60
:1036B00002463B69D31A022B01D9032360E10D4B6B
:1036C0005B6A03F00203002BF0D0012000F0D8FA6F
:1036D0001CE00A4B00221A60FEF742FF38610FE03F
:1036E000FEF73EFF02463B69D31A022B08D903239B
:1036F00046E100BF00100240000042428004424206
:10370000924B5B6A03F00203002BE9D17B681B68D4
:1037100003F00403002B00F0A6800023FB758B4B05
:10372000DB6903F08053002B0DD1884BDB69874A9E
:1037300043F08053D361854BDB6903F08053BB605A
:10374000BB680123FB75824B1B6803F48073002B5D
:1037500018D17F4B1B687E4A43F480731360FEF7D9
:10376000FFFE386108E0FEF7FBFE02463B69D31A14
:10377000642B01D9032303E1754B1B6803F48073A9
:10378000002BF0D07B68DB68012B06D16F4B1B6AE6
:103790006E4A43F0010313622DE07B68DB68002B67
:1037A0000CD16A4B1B6A694A23F001031362674B11
:1037B0001B6A664A23F0040313621CE07B68DB6823
:1037C000052B0CD1614B1B6A604A43F00403136262
:1037D0005E4B1B6A5D4A43F0010313620BE05B4BD7
:1037E0001B6A5A4A23F001031362584B1B6A574A5B
:1037F00023F0040313627B68DB68002B15D0FEF70F
:10380000AFFE38610AE0FEF7ABFE02463B69D31A11
:1038100041F28832934201D90323B1E04B4B1B6A3A
:1038200003F00203002BEED014E0FEF799FE38619E
:103830000AE0FEF795FE02463B69D31A41F2883250
:10384000934201D903239BE0404B1B6A03F0020320
:10385000002BEED1FB7D012B05D13C4BDB693B4AB4
:1038600023F08053D3617B68DB69002B00F08780F5
:10387000364B5B6803F00C03082B61D07B68DB6977
:10388000022B46D1334B00221A60FEF769FE3861E5
:1038900008E0FEF765FE02463B69D31A022B01D908
:1038A00003236DE0294B1B6803F00073002BF0D15C
:1038B0007B681B6AB3F5803F08D1244B5B6823F417
:1038C00000327B689B68214913434B601F4B5B6848
:1038D00023F474127B68196A7B685B6A0B431B498B
:1038E00013434B601B4B01221A60FEF739FE38610F
:1038F00008E0FEF735FE02463B69D31A022B01D9D8
:1039000003233DE0114B1B6803F00073002BF0D044
:1039100035E0104B00221A60FEF722FE386108E005
:10392000FEF71EFE02463B69D31A022B01D9032380
:1039300026E0064B1B6803F00073002BF0D11EE05D
:103940007B68DB69012B07D1012319E000100240DD
:1039500000700040600042420B4B5B68FB60FB68FC
:1039600003F480327B681B6A9A4206D1FB6803F439
:1039700070127B685B6A9A4201D0012300E0002349
:1039800018461837BD4680BD0010024080B584B08F
:1039900000AF786039607B68002B01D10123D0E053
:1039A0006A4B1B6803F007033A689A4210D9674BC9
:1039B0001B6823F0070265493B6813430B60634BA8
:1039C0001B6803F007033A689A4201D00123B8E06C
:1039D0007B681B6803F00203002B20D07B681B6808
:1039E00003F00403002B05D0594B5B68584A43F49D
:1039F000E06353607B681B6803F00803002B05D06D
:103A0000534B5B68524A43F460535360504B5B68BE
:103A100023F0F0027B689B684D4913434B607B6841
:103A20001B6803F00103002B40D07B685B68012B0F
:103A300007D1474B1B6803F40033002B15D101233A
:103A40007FE07B685B68022B07D1414B1B6803F06A
:103A50000073002B09D1012373E03D4B1B6803F079
:103A60000203002B01D101236BE0394B5B6823F08B
:103A700003027B685B68364913434B60FEF770FDB9
:103A8000F8600AE0FEF76CFD0246FB68D31A41F2CB
:103A90008832934201D9032353E02D4B5B6803F036
:103AA0000C027B685B689B009A42EBD1274B1B683A
:103AB00003F007033A689A4210D2244B1B6823F0A4
:103AC000070222493B6813430B60204B1B6803F03D
:103AD00007033A689A4201D0012332E07B681B68F1
:103AE00003F00403002B08D0194B5B6823F4E06259
:103AF0007B68DB68164913434B607B681B6803F0E7
:103B00000803002B09D0124B5B6823F460527B68DA
:103B10001B69DB000E4913434B6000F021F802469D
:103B20000B4B5B681B0903F00F030A49CB5C22FABD
:103B300003F3094A1360094B1B681846FEF7CEFCD5
:103B4000002318461037BD4680BD00BF002002404C
:103B500000100240708D00080400002008000020C2
:103B600090B48AB000AF294B3C1D0FCB84E80F0006
:103B700040F201233B800023FB610023BB61002353
:103B80007B6200237B6100233B62214B5B68FB610E
:103B9000FB6903F00C03042B02D0082B03D02BE0AD
:103BA0001C4B3B622BE0FB699B0C03F00F0328339B
:103BB0003B4413F8243C7B61FB6903F48033002B06
:103BC00012D0134B5B685B0C03F0010328333B44BA
:103BD00013F8283CBB617B690E4A03FB02F2BB6908
:103BE000B2FBF3F37B6204E07B690B4A02FB03F355
:103BF0007B627B6A3B6202E0064B3B6200BF3B6A32
:103C000018462837BD4690BC704700BF608D00083D
:103C10000010024000127A0000093D0080B400AF9D
:103C2000024B1B681846BD4680BC7047040000204C
:103C300080B500AFFFF7F2FF0246054B5B681B0A39
:103C400003F007030349CB5C22FA03F3184680BD57
:103C500000100240808D000880B500AFFFF7DEFF46
:103C60000246054B5B68DB0A03F007030349CB5CA4
:103C700022FA03F3184680BD00100240808D000830
:103C800080B485B000AF78600A4B1B680A4AA2FB7B
:103C900003235B0A7A6802FB03F3FB6000BFFB6847
:103CA0005A1EFA60002BF9D100BF00BF1437BD4681
:103CB00080BC704704000020D34D621080B582B0F4
:103CC00000AF78607B68002B01D101233FE07B6867
:103CD00093F83930DBB2002B06D17B68002283F8E1
:103CE00038207868FEF710FA7B68242283F83920A0
:103CF0007B681B68DA687B681B6822F40052DA6014
:103D0000786800F095FB7B681B681A697B681B6804
:103D100022F490421A617B681B685A697B681B68B1
:103D200022F02A025A617B681B68DA687B681B688C
:103D300042F40052DA607B680022DA637B6820225A
:103D400083F839207B68202283F83A200023184624
:103D50000837BD4680BD80B582B000AF78607B6813
:103D6000002B01D1012347E07B6893F83930DBB2A7
:103D7000002B06D17B68002283F838207868FEF794
:103D8000C3F97B68242283F839207B681B68DA68D2
:103D90007B681B6822F40052DA60786800F048FB08
:103DA0007B681B681A697B681B6822F490421A6161
:103DB0007B681B685A697B681B6822F022025A6183
:103DC0007B681B685A697B681B6842F008025A616D
:103DD0007B681B68DA687B681B6842F40052DA6013
:103DE0007B680022DA637B68202283F839207B68B5
:103DF000202283F83A20002318460837BD4680BDAC
:103E000080B588B002AFF860B9603B601346FB80B4
:103E100000237B61FB6893F83930DBB2202B40F044
:103E20008380BB68002B02D0FB88002B01D10123CB
:103E30007BE0FB6893F83830012B01D1022374E05A
:103E4000FB68012283F83820FB680022DA63FB68F4
:103E5000212283F83920FEF783FB7861FB68FA881A
:103E60009A84FB68FA88DA8442E0FB68DB8C9BB2B8
:103E7000013B9AB2FB68DA84FB689B68B3F5805F0C
:103E800022D13B6800937B6900228021F86800F012
:103E900066F90346002B01D0032346E0BB683B6173
:103EA0003B691B881A46FB681B68C2F308025A600C
:103EB000FB681B69002B03D1BB680233BB6017E0B2
:103EC000BB680133BB6013E03B6800937B69002251
:103ED0008021F86800F043F90346002B01D003234A
:103EE00023E0BB685A1CBA601A78FB681B685A60EA
:103EF000FB68DB8C9BB2002BB7D13B6800937B69DE
:103F000000224021F86800F02AF90346002B01D076
:103F100003230AE0FB68202283F83920FB68002293
:103F200083F83820002300E0022318461837BD46E6
:103F300080BD000080B588B000AF78607B681B68EA
:103F40001B68FB617B681B68DB68BB617B681B6867
:103F50005B697B6100233B610023FB60FB6903F02D
:103F60000F033B613B69002B0DD1FB6903F020037C
:103F7000002B08D0BB6903F02003002B03D0786826
:103F800000F0D5F9CBE03B69002B00F0AB807B69FA
:103F900003F00103002B05D1BB6903F49073002BE0
:103FA00000F0A080FB6903F00103002B0AD0BB697D
:103FB00003F48073002B05D07B68DB6B43F00102B8
:103FC0007B68DA63FB6903F00403002B0AD07B698A
:103FD00003F00103002B05D07B68DB6B43F002028A
:103FE0007B68DA63FB6903F00203002B0AD07B696C
:103FF00003F00103002B05D07B68DB6B43F0040268
:104000007B68DA63FB6903F00803002B0AD07B6945
:1040100003F00103002B05D07B68DB6B43F0080243
:104020007B68DA637B68DB6B002B77D0FB6903F07E
:104030002003002B07D0BB6903F02003002B02D024
:10404000786800F074F97B681B685B6903F04003D3
:10405000002B14BF01230023DBB2FB607B68DB6B0A
:1040600003F00803002B02D1FB68002B31D07868E5
:1040700000F0BFF87B681B685B6903F04003002B0E
:1040800023D07B681B685A697B681B6822F040025A
:104090005A617B685B6B002B13D07B685B6B214A9A
:1040A0005A637B685B6B1846FEF796FB0346002B52
:1040B00016D07B685B6B5B6B7A68526B10469847D7
:1040C0000EE0786800F042F80AE0786800F03EF808
:1040D00006E0786800F03AF87B680022DA631DE0B9
:1040E00000BF1BE0FB6903F08003002B08D0BB6915
:1040F00003F08003002B03D0786800F0ABF80EE0EB
:10410000FB6903F04003002B09D0BB6903F04003B7
:10411000002B04D0786800F0F2F800E000BF2037F0
:10412000BD4680BD2D42000880B483B000AF7860EA
:1041300000BF0C37BD4680BC704780B483B000AF71
:10414000786000BF0C37BD4680BC704780B483B038
:1041500000AF786000BF0C37BD4680BC704780B5AB
:1041600084B000AFF860B9603B601346FB712CE08F
:10417000BB69B3F1FF3F28D0BB69002B07D0FEF726
:10418000EFF902463B68D31ABA699A421DD2FB681E
:104190001B68DA68FB681B6822F4D072DA60FB687F
:1041A0001B685A69FB681B6822F001025A61FB68B0
:1041B000202283F83920FB68202283F83A20FB680C
:1041C000002283F8382003230FE0FB681B681A687D
:1041D000BB681340BA689A420CBF01230023DBB2CC
:1041E0001A46FB799A42C3D0002318461037BD46C1
:1041F00080BD80B483B000AF78607B681B68DA68EC
:104200007B681B6822F49072DA607B681B685A69CD
:104210007B681B6822F001025A617B68202283F8C8
:104220003A2000BF0C37BD4680BC704780B584B0D3
:1042300000AF78607B685B6AFB60FB680022DA8510
:10424000FB680022DA84F868FFF780FF00BF1037B0
:10425000BD4680BD80B485B000AF78607B6893F8C0
:104260003930DBB2212B44D17B689B68B3F5805F8A
:104270001AD17B681B6AFB60FB681B881A467B6847
:104280001B68C2F308025A607B681B69002B05D1CA
:104290007B681B6A9A1C7B681A620EE07B681B6A4B
:1042A0005A1C7B681A6208E07B681B6A591C7A6892
:1042B00011621A787B681B685A607B68DB8C9BB242
:1042C000013B9BB27A681946D184002B0FD17B68E1
:1042D0001B68DA687B681B6822F08002DA607B6802
:1042E0001B68DA687B681B6842F04002DA600023D2
:1042F00000E0022318461437BD4680BC704780B5E5
:1043000082B000AF78607B681B68DA687B681B68E6
:1043100022F04002DA607B68202283F83920786836
:10432000FFF702FF002318460837BD4680BD80B561
:1043300084B000AF78607B6893F83A30DBB2222B10
:1043400071D17B689B68B3F5805F23D17B689B6AE2
:10435000FB607B681B69002B0ED17B681B685B6868
:104360009BB2C3F308039AB2FB681A807B689B6A0E
:104370009A1C7B689A6229E07B681B685B689BB229
:10438000DBB29AB2FB681A807B689B6A5A1C7B6816
:104390009A621BE07B681B69002B0AD17B681B6853
:1043A00058687B689B6A591C7A689162C2B21A701D
:1043B0000CE07B681B685B68DAB27B689B6A581C00
:1043C0007968886202F07F02D2B21A707B68DB8D56
:1043D0009BB2013B9BB27A681946D185002B20D154
:1043E0007B681B68DA687B681B6822F02002DA6051
:1043F0007B681B68DA687B681B6822F48072DA606D
:104400007B681B685A697B681B6822F001025A614D
:104410007B68202283F83A207868FFF78EFE00231D
:1044200002E0002300E0022318461037BD4680BD9D
:1044300080B584B000AF78607B681B681B6923F48B
:1044400040517B68DA687B681B680A431A617B68A5
:104450009A687B681B691A437B685B691343FB603E
:104460007B681B68DB6823F4B05323F00C037A6885
:104470001268F9680B43D3607B681B685B6923F49F
:1044800040717B689A697B681B680A435A617B6844
:104490001B68524A93424ED1FFF7DEFBB860BA6800
:1044A00013469B0013449A001A447B685B689B0088
:1044B000B2FBF3F34A4AA2FB03235B091901BA6872
:1044C00013469B0013449A001A447B685B689B0068
:1044D000B2FBF3F2424BA3FB02035B09642000FB37
:1044E00003F3D31A1B0132333D4AA2FB03235B09BA
:1044F00003F0F0031944BA6813469B0013449A0072
:104500001A447B685B689B00B2FBF3F2344BA3FB5D
:1045100002035B09642000FB03F3D31A1B0132334F
:104520002F4AA2FB03235B0903F00F027B681B6881
:104530000A449A604DE0FFF77BFBB860BA68134607
:104540009B0013449A001A447B685B689B00B2FB93
:10455000F3F3234AA2FB03235B091901BA6813464C
:104560009B0013449A001A447B685B689B00B2FB73
:10457000F3F21B4BA3FB02035B09642000FB03F374
:10458000D31A1B013233164AA2FB03235B0903F043
:10459000F0031944BA6813469B0013449A001A4466
:1045A0007B685B689B00B2FBF3F20D4BA3FB02033D
:1045B0005B09642000FB03F3D31A1B013233084A62
:1045C000A2FB03235B0903F00F027B681B680A440C
:1045D0009A6000BF1037BD4680BD00BF0038014063
:1045E0001F85EB51002B2DE9F0471D46BBBF03F1A2
:1045F00000431D4600232D2388B01446B8BF14463F
:10460000129A109E1370149BDDF84CA023F0200822
:10461000B8F1460F05D0B8F1450F00D1013602239D
:1046200000E0032307AA049206AACDE902A2CDE97D
:10463000003622462B4601F087F8B8F1470F0746AF
:1046400019D1119BDB070ED500EB060900220023D0
:1046500020462946FCF7B2F908B1CDF81C9030226B
:10466000079B4B451ED33846079B159ADB1B1360EF
:1046700008B0BDE8F087B8F1460F00EB0609E5D1B8
:104680000378302B0AD10022002320462946FCF76C
:1046900095F918B9C6F10106CAF80060DAF80030D9
:1046A0009944D3E7591C07911A70D9E7F7B5002947
:1046B000B6BF2D232B23494209290270437029DDFF
:1046C0000DF1070425460A27B1FBF7F6224607FB42
:1046D0001613303302F8013C0B46632B314604F1CC
:1046E000FF34F1DC3031931E04F8011C1C46411CE0
:1046F000AB420AD30DF109039B1AA54238BF002330
:10470000821C1344181A03B0F0BD13F8016B01F8B2
:10471000016FEDE7302330318370C170031DF1E785
:104720002DE9F04F91B00C46DDF8688016461F4623
:10473000054600F0F5FE036818460A93FBF712FDE4
:1047400000230E93D8F8003094F818A0073323F014
:104750000703F3E80212D4F800B0CDE90812C8F854
:10476000003013460A46C4E91223DDE9088323F02A
:1047700000490B904FF0FF32404649469B4BFCF7F7
:104780004FF970BB4FF0FF3240464946974BFCF75C
:1047900029F930BBDDE9080100220023FCF718F9F4
:1047A00010B12D2384F84330914A924BBAF1470F50
:1047B0008CBF9046984603234FF0000923612BF0ED
:1047C0000403236033462146284600970FAA00F0D1
:1047D000D3F9013040F08F804FF0FF3011B0BDE8C9
:1047E000F08FDDE9082310461946FCF719F940B1AE
:1047F000099B814A002BBCBF2D2384F843307F4B9B
:10480000D4E763680AF0DF095A1C3ED106236360CF
:1048100000224BF48063236006920EAACDE904A225
:104820000DAA03920DF13302CDE9013263682846E7
:104830000093DDE90823FFF7D5FEB9F1470F804665
:104840000D9929D1C81C02DB63688B4241DAAAF1B9
:10485000020A5FFA8AFA5246013904F150000D91BA
:10486000FFF724FF0E9A81461318012A236102DC08
:104870002268D20701D5013323619DF83330002B24
:10488000A0D02D2384F843309CE7B9F1470FBFD166
:10489000002BBDD10123BAE7BAF1650FDBD9BAF11C
:1048A000660F18D1002963680BDD216113B92268F6
:1048B000D00702D501330B4423614FF00009A165F5
:1048C000DBE713B92268D20701D50233F4E70123ED
:1048D000F2E74FF0670A0E9B8B4205DC23682161EB
:1048E000D807EAD54B1CE7E70029CCBF0122C1F16C
:1048F00002021344E0E723685A0507D423694246BD
:1049000031462846B84701302BD165E7BAF1650F2B
:1049100040F2DC80D4E9120100220023FCF74EF8BB
:10492000002833D0012331462846354AB8470130A4
:104930003FF452AFDDE90D38434502DB2368D80769
:104940000FD5DDE90A2331462846B84701303FF448
:1049500043AF4FF0000908F1FF3804F11A0AC845C7
:1049600009DC23689B0700F10281E0680F9B9842F5
:10497000B8BF184632E70123524631462846B847A9
:1049800001303FF429AF09F10109E8E70D9B002B45
:1049900038DC012331462846194AB84701303FF434
:1049A0001BAFDDE90D3959EA030302D12368D907AA
:1049B000D7D5DDE90A2331462846B84701303FF410
:1049C0000BAF4FF0000A04F11A0B0D9B5B425345ED
:1049D00001DC4B4693E701235A4631462846B84747
:1049E00001303FF4F9AE0AF1010AEEE7FFFFEF7F75
:1049F0008C8D0008888D0008948D0008908D00082B
:104A0000988D0008A36DDDF838A05345A8BF534624
:104A1000002B994636DC4FF0000B29EAE97904F1C6
:104A20001A02A36D0893A3EB09035B4531DC0D9BD0
:104A30009A453ADC2368DA0737D40D9BAAEB0309C1
:104A4000089BAAEB03039945A8BF9946B9F1000F4B
:104A500033DC4FF0000829EAE97904F11A0B0D9BC9
:104A6000AAEB0303A3EB090343457FF77AAF0123C6
:104A70005A4631462846B84701303FF4ADAE08F1FA
:104A80000108ECE7424631462846B8470130C2D11A
:104A9000A2E60123314628460892B84701303FF488
:104AA0009BAE089A0BF1010BBBE73146DDE90A2307
:104AB0002846B8470130C0D18EE6089A4B463146A9
:104AC00028464244B8470130C3D185E6DDF838A016
:104AD000BAF1010F01DCDB0736D50123424631462E
:104AE0002846B84701303FF477AEDDE90A23314666
:104AF0002846B84701303FF46FAED4E912010022D6
:104B000000230AF1FF3AFBF759FFC0B9534608F1F9
:104B1000010231462846B84701300CD15CE601233A
:104B20005A4631462846B84701303FF455AE08F1A1
:104B30000108D045F3DB4B4604F15002E0E64FF0AC
:104B4000000804F11A0BF4E701234246E1E70123D0
:104B50004A4631462846B84701303FF43DAE08F199
:104B60000108E3680F995B1A4345F0DCFDE64FF05E
:104B7000000804F11909F4E72DE9F04716469846B4
:104B80008A680B6907469342B8BF1346336091F8B1
:104B900043200C46DDF820900AB1013333602368CE
:104BA000990642BF336802333360256815F0060565
:104BB00006D104F1190AE36832689B1AAB422BDC78
:104BC00094F843302268003B18BF0123920630D48A
:104BD0004146384604F14302C847013023D02368D8
:104BE000226903F00603042B14BF002533684FF03D
:104BF000000608BFE56804F11A0408BFED1A54F86E
:104C0000123C08BF25EAE5759342C4BF9B1AED1814
:104C1000B5421AD1002008E00123524641463846E9
:104C2000C847013003D14FF0FF30BDE8F0870135B0
:104C3000C1E73020E11881F843005A1C94F8451070
:104C40002244023382F84310C2E701232246414640
:104C50003846C8470130E6D00136D9E72DE9F043A0
:104C60000D7E85B0782D904607460C4699460C9EE1
:104C700001F1430207D8622D0AD8002D00F0D78039
:104C8000582D00F0BC8004F1420684F842503BE00D
:104C9000A5F16303152BF6D801A151F823F000BF4D
:104CA000F94C00080D4D0008874C0008874C00089F
:104CB000874C0008874C00080D4D0008874C000801
:104CC000874C0008874C0008874C0008154E0008E8
:104CD000374D0008C74D0008874C0008874C000876
:104CE000374E0008874C0008374D0008874C0008F5
:104CF000874C0008CF4D000833681A1D1B683260CE
:104D000004F1420684F842300123A1E033682068B0
:104D1000191D3160060601D51D6803E04506FBD567
:104D2000B3F90050002D03DA2D236D4284F843308F
:104D30000A235B4811E021683368080653F8045BD6
:104D400002D4490648BFADB23360237E54486F2B6E
:104D50005CD10823002184F843106668002EA66009
:104D600005DB21682E4321F00401216050D0164656
:104D7000B5FBF3F103FB115C10F80CC006F801CD94
:104D8000AC4663450D46F3D9082B0BD12368DB07EE
:104D900008D5236961689942DEBF302306F8013CDB
:104DA00006F1FF36921B2261434621463846CDF874
:104DB000009003AAFFF7E0FE01304ED14FF0FF3024
:104DC00005B0BDE8F083236843F020032360782515
:104DD000344884F845502368316813F0800F51F847
:104DE000045B03D113F0400F18BFADB23160D90797
:104DF00044BF43F0200323601DB11023AAE72848D5
:104E0000E7E7236823F020032360F6E70A23A1E7FE
:104E10001646B9E733682568181D616930602E06AB
:104E20001B6801D5196002E06806FBD519800023D4
:104E300016462361B8E7336800211A1D32601E68E8
:104E40006268304600F0E3FB08B1801B6060636875
:104E50002361002384F84330A6E7324641463846B2
:104E60002369C8470130A9D023689B0713D4E068A1
:104E7000039B9842B8BF1846A2E701233246414639
:104E80003846C847013099D00135E36803995B1A69
:104E9000AB42F2DCEBE7002504F11906F5E700BFB1
:104EA0009A8D0008AB8D00082DE9F04F87B0039371
:104EB0008B6891465A1EB2F5AE7F82BF6FF4AE7515
:104EC00003EB050B40F25D130A464FF0000588BF67
:104ED0008B600B68804643F4F06342F81C3B0C4641
:104EE00098BF4FF0000B1646AA462F46CDE9045551
:104EF00001920295A2685AB1D9F800301B784E2B66
:104F000062D8402B3AD8A3F12B01C8B20E2838D969
:104F10001FB1236823F4807323600AF1FF3ABAF1CA
:104F2000010F00F21481019B9E4200F205810120D5
:104F300007B0BDE8F08FA3F161020D2AE8D801A106
:104F400051F822F08D500008114F0008114F000851
:104F5000114F0008E9500008C3500008114F000825
:104F6000114F00089B500008114F0008114F000816
:104F7000114F0008114F000857500008A3F14102DB
:104F8000DBE70E29C4D801A050F821F047500008F3
:104F9000114F000847500008D7500008114F000873
:104FA000E94F00082D5000082D5000082D50000832
:104FB0002D5000082D5000082D5000082D500008DD
:104FC0002D5000082D5000086E2B09D8602BB2D848
:104FD000542B7BD0592B9BD1072D99D108252FE03D
:104FE000742B73D0792BF6E72168C8051ED521F004
:104FF000800121600137BBF1000F03D001320BF1BA
:10500000FF3BA260A368013BA360236901332361D6
:10501000D9F80430013B002BC9F8043040F38380F9
:10502000D9F800300133C9F8003063E71AEB050105
:105030007FF46EAF0D468A46226822F4C072226069
:1050400006F8013BDEE7226810067FF561AF22F02B
:1050500080022260F4E7BAF1000F0CD177B9226820
:1050600002F4E061B1F5E06F08D122F4F0624FF094
:10507000010A2260E4E7BAF1020F51D0012D02D0FB
:10508000042D7FF445AF0135EDB2D9E7BAF1010F38
:105090007FF43EAF4FF0020AD2E775B9002F7FF4DC
:1050A00038AF226802F4E061B1F5E06F40F0FF80B4
:1050B00022F4F06201252260C2E7032DE3D0052D22
:1050C000DFE7022D7FF424AF0325B9E7062D7FF437
:1050D0001FAF0725B4E7226891057FF519AF22F4C9
:1050E000207222600297ABE7226802F4A061B1F55A
:1050F000806F05D050057FF50BAF002F00F0D780F3
:10510000910558BF029922F4F06258BF791A42F40F
:10511000C0724FF0000758BFCDE9041622608FE738
:105120004FF0030A8CE749464046D4F8803198474F
:1051300000283FF4DFAEEBE6D4F87C314A46404627
:1051400016F8011D98472369013B2361EBE66B1EAE
:10515000062B24D8022D36D8019B9E427FF6E7AE5F
:10516000D4F87C314A46404616F8011D9847236919
:10517000013B2361F0E7D4F87C314A4640461BF8F6
:10518000011D98472369013B23610AF1FF3A5FFA49
:105190008AFABAF1020FEED1033DEDB2761B236815
:1051A000DA0530D55B0511D5019B9E427FF6BFAE77
:1051B000D4F87C314A46404616F8011D98472369C9
:1051C000013B2361F0E7AA46B346DEE716F8011C6F
:1051D0002369652903F1FF3306F1FF3523610CD004
:1051E00045290AD0D4F87C314A464046984723697D
:1051F00016F8021C013BB51E23614A464046D4F80E
:105200007C3198472E46226812F0100201D000200F
:105210008EE63270236803F4C063B3F5806F25D146
:10522000029B9F420AD0DA1B04F26F139E4228BFF2
:1052300004F5B77630461F4900F004F900224046D5
:10524000019902F005FC039B25681B6815F0020F0D
:1052500006460F4603F1040215D003990A601B6845
:10526000C3E90067E3680133E360D0E7049B002BE8
:10527000E4D005990A234046013102F069FC049B01
:10528000059EC21AD0E76D07E7D4039D2A601D680A
:1052900002460B46FBF7C4FB20B1074800F0C6F9F5
:1052A0002860DFE730463946FBF718FCF8E70027AF
:1052B00033E600BFBC8D0008FD8E0008002310B54A
:1052C0000446C0E90033C0E904338360818143664A
:1052D000C2818361194608225C3000F019F90D4B38
:1052E000246263620C4BA3620C4BE3620C4B23639E
:1052F0000C4B9C4206D003F16802944202D0D0339A
:105300009C4205D104F15800BDE8104000F07CB982
:1053100010BD00BF89540008AB540008E3540008D6
:105320000955000848030020024A0349034800F0D9
:105330006BB800BF10000020017F00082000002093
:1053400041680C4B10B59942044601D002F0D8FDDB
:10535000A168094B994202D0204602F0D1FDE168D4
:10536000064B994204D02046BDE8104002F0C8BD6B
:1053700010BD00BF48030020B00300201804002027
:105380000C4B0D4A10B504211A600C480022FFF79F
:1053900095FF0A4B01221C46092103F16800FFF723
:1053A0008DFF04F1D0000222BDE810401221FFF76A
:1053B00085BF00BF80040020295300084803002057
:1053C000014800F022B900BF89040020014800F024
:1053D0001DB900BF8904002010B50446FFF7F0FF97
:1053E000236A1BB1BDE81040FFF7F0BF044B2362F6
:1053F000044B1B68002BF5D1FFF7C2FFF2E700BF9B
:1054000041530008800400202DE9F84307468846F0
:1054100014460026D4E90195B9F1010905D524689F
:10542000002CF7D13046BDE8F883AB89012B07D9B2
:10543000B5F90E30013303D029463846C04706433C
:105440006835E9E70EB46FF0004110B500249DB057
:105450001FAB02900690079104910948094953F83F
:10546000042B0591006802A901931B9402F0D2FB62
:10547000029B1C701DB0BDE8104003B0704700BF18
:105480001C0000200802FFFF10B50C46B1F90E10F9
:1054900000F06CF80028ABBF636DA3891B1823F4E0
:1054A0008053ACBF6365A38110BD2DE9F0411F4659
:1054B0008B890546DB050C46164605D502230022DE
:1054C000B1F90E1000F040F8A389324623F480535E
:1054D000A38128463B46B4F90E10BDE8F04100F028
:1054E00057B810B50C46B1F90E1000F02DF8B4F90C
:1054F0000C30421C0BBF23F4805343F48053A38130
:10550000A38118BF606510BDB1F90E1000F00CB892
:1055100003460244934200D1704703F8011BF9E7A8
:10552000004870475C01002038B50023054D044653
:1055300008462B60FCF7FBFE431C02D12B6803B12D
:10554000236038BD8404002038B50446084611465F
:105550000022054D2A601A46FCF70DFF431C02D1BC
:105560002B6803B1236038BD8404002038B504469D
:10557000084611460022054D2A601A46FCF79EFE99
:10558000431C02D12B6803B1236038BD8404002082
:1055900038B50446084611460022054D2A601A46D1
:1055A000FCF7A9FE431C02D12B6803B1236038BD70
:1055B00084040020014B1868704700BF1C000020C5
:1055C00070B500260C4D0D4B5B1B9C10A64209D1FB
:1055D000002603F079FB0A4D0A4B5B1B9C10A64288
:1055E00005D170BD55F8043B98470136EEE755F8F4
:1055F000043B98470136F2E7BC910008BC910008D3
:10560000BC910008C091000870477047704703467E
:1056100010B5C9B202449342184601D1002003E0FC
:10562000047801338C42F6D110BD00000048704769
:105630000000C07F2DE9F74F03690C690746A342BC
:105640007EDB013CA30000F1140501F11408009376
:1056500005EB8403019358F8243055F824200133D6
:105660009A42B2FBF3F608EB84092ED34FF0000AFE
:10567000C446AE46D3465CF8043B98B206FB00A095
:105680001B0C020C06FB0323DEF8002080B292B252
:10569000121A5A44DEF800004FEA134A9BB2C3EBD9
:1056A000224303EB104392B242EA0342E1454FEA40
:1056B000234B4EF8042BDED2009BEB582BB9019BF9
:1056C000043B9D421A462FD33C61384601F0E2F973
:1056D000002825DB2946002058F8042BD1F800C00B
:1056E0001FFA82FE1FFA8CF3A3EB0E030344120C85
:1056F000C2EB234202EB1C429BB243EA0243C14588
:105700004FEA224041F8043BE6D255F8242005EB4D
:10571000840322B9043B9D421A460BD33C610136F7
:10572000304603B0BDE8F08F1268043B002ACBD1AD
:10573000013CC6E71268043B002AEFD1013CEAE7CE
:105740000020EEE7000000002DE9F04F16461F464E
:10575000C26999B08146CDE90E67259C82B91020B7
:1057600000F020FE0246C9F81C0020B9EF21A84B2A
:10577000A84802F03DFC0023C0E901330360C36088
:10578000116859B101235268484693404A608B60C2
:1057900000F0FCFE0022D9F81C301A60B7F10008B6
:1057A000B5BF01230023236023609B4BBCBF28F0BF
:1057B0000048CDF83C8033EA08031AD142F20F7357
:1057C000249AC8F3130858EA0608136000F0748599
:1057D000269B53B9914B21E0914B03930833269AB2
:1057E0001360039819B0BDE8F08F8C4B039303331B
:1057F000F5E7DDE90E34CDE90A34DDE90A010022DE
:105800000023FBF7DBF8824650B10123249A136092
:10581000269B13B1834B269A1360834B0393E0E7D7
:1058200016AB019317AB00934846DDE90A2301F05C
:105830004DFA5FEA1854169D04907BD0DDE90A0109
:105840000B9BA4F2FF34C3F3130343F07F5343F4E1
:105850004013CDF850A019460022744BFAF78EFC85
:1058600065A3D3E90023FAF741FE65A3D3E900233A
:10587000FAF786FC064620460F46FAF7CDFD62A3EE
:10588000D3E90023FAF732FE02460B46304639468A
:10589000FAF776FC06460F46FBF7D8F8002280465A
:1058A000002330463946FBF793F848B14046FAF7F3
:1058B000B3FD32463B46FBF781F808B908F1FF38E3
:1058C000B8F1160F53D8DDE90A01594B03EBC803B1
:1058D000D3E90023FBF77CF800284AD0002308F125
:1058E000FF3811932D1B6B1E099349BF002300271E
:1058F000C5F101070993B8F1000F3CDB099BCDF816
:1059000040804344099300230C93229B092B64D8C5
:10591000052BC4BF043B2293229BC8BF0024A3F1E4
:105920000203D8BF0124032B00F28680DFE803F0D6
:105930005153362B179C2C4404F23243202BC1BF09
:10594000C3F1400308FA03F804F2124326FA03F302
:10595000D6BFC3F1200348EA030006FA03F0FAF7C2
:105960004BFD0122A1F1F873013C149273E701236E
:10597000B7E71190B6E7C8F100030C930023A7EB3B
:1059800008071093C1E701230D93239B4344089319
:105990000133012B0593B8BF012306E001230D93CA
:1059A000239B002B4BDD0893059300210422D9F89B
:1059B0001C0002F114059D4246D94160484600F0A2
:1059C000A7FD0390002842D1024640F2AF11194BC7
:1059D000CEE60023E3E70023D6E7012400230D945D
:1059E00022934FF0FF330022089305931223239252
:1059F000DBE700BFAFF3008061436F63A787D23F4F
:105A0000B3C8608B288AC63FFB799F501344D33FAD
:105A1000CE8D0008E58D00080000F07FCA8D0008DB
:105A2000C18D0008998D0008988D00080000F83F8E
:105A3000988F00083D8E000801230D93D1E70123C4
:105A40001A4608930593D2E701315200B1E7D9F81D
:105A50001C30039A1A60059B0E2B00F2A180002CCB
:105A600000F09E80B8F1000F36DD9F4B08F00F026A
:105A700003EBC20318F4807F4FEA2815D3E900AB8B
:105A800016D0DDE90A01994B0324D3E90823FAF77C
:105A900057FECDE9060105F00F05944E75B9DDE915
:105AA000060152465B46FAF74BFE82468B462DE0D6
:105AB000DDE90A34CDE906340224EEE7E90708D52A
:105AC000D6E9002350465946FAF710FD82468B4628
:105AD00001346D100836E1E700F0AD80DDE90A0120
