:020000040800F2
:1000000000500020B9050008F904000801050008A7
:100010000905000811050008190500080000000086
:1000200000000000000000000000000021050008A2
:100030002D050008000000003905000845050008EE
:100040000106000801060008010600080106000874
:100050000106000801060008010600080106000864
:100060000106000801060008010600080106000854
:100070000106000801060008010600080106000844
:100080000106000801060008010600080106000834
:100090000106000801060008010600080106000824
:1000A0000106000801060008010600080106000814
:1000B0000106000801060008010600080106000804
:1000C00001060008010600080106000801060008F4
:1000D00001060008010600080106000801060008E4
:1000E00001060008010600080106000800000000E3
:1000F0000000000000000000000000000000000000
:0C01000000000000000000005FF808F1A3
:10010C0010B5054C237833B9044B13B10448AFF345
:10011C0000800123237010BD0C00002000000000A3
:10012C001C1C000808B5034B1BB103490348AFF373
:10013C00008008BD00000000100000201C1C0008FE
:10014C0080B500AF00F058FA00F02CF800F0F2F88F
:10015C0000F06EF800210F4801F092F90E4B0022CE
:10016C005A634FF4FA6000F0A9FA0B4B1E225A6343
:10017C000A4B1B78DBB2002B02D0012B05D0F7E722
:10018C00074B4FF480221A6103E0054B04221A61DD
:10019C0000BFEDE728000020002C01406800002083
:1001AC00000C014080B590B000AF07F11803282275
:1001BC000021184601F0FFFC3B1D00221A605A601A
:1001CC009A60DA601A610123BB614FF48033FB61E2
:1001DC0000233B620123BB6202237B634FF4803319
:1001EC00BB634FF4E013FB6307F11803184600F0F0
:1001FC0033FD0346002B01D000F0FEF80F237B608B
:10020C000223BB600023FB604FF480633B6100233F
:10021C007B613B1D0221184600F0A0FF0346002B1A
:10022C0001D000F0E9F800BF4037BD4680BD0000AA
:10023C0080B592B000AF07F1400300221A605A60FB
:10024C0007F1240300221A605A609A60DA601A617E
:10025C005A619A613B1D20220021184601F0ABFC2B
:10026C00324B334A1A60314B1C225A602F4B0022FE
:10027C009A602E4B6322DA602C4B00221A612B4BB6
:10028C0000225A61294B00229A61284801F0CCF8CF
:10029C000346002B01D000F0AFF800233B64002391
:1002AC007B6407F140031946204801F0EFFB03463D
:1002BC00002B01D000F0A0F870237B620023BB62FE
:1002CC000023FB6200233B6300237B630023BB639F
:1002DC000023FB6307F1240300221946134801F0A5
:1002EC0001F90346002B01D000F086F800237B6057
:1002FC000023BB600023FB6000233B6100237B6178
:10030C004FF40053BB6100233B623B1D1946074869
:10031C0001F000FC0346002B01D000F06DF80348FF
:10032C0000F0B0F800BF4837BD4680BD2800002063
:10033C00002C014080B588B000AF07F110030022FB
:10034C001A605A609A60DA60274B9B69264A43F020
:10035C0020039361244B9B6903F02003FB60FB6833
:10036C00214B9B69204A43F0040393611E4B9B690C
:10037C0003F00403BB60BB681B4B9B691A4A43F038
:10038C0008039361184B9B6903F008037B607B683F
:10039C0000220421154800F047FC01233B61144B5B
:1003AC007B610223BB6107F110031946114800F071
:1003BC00B7FA04233B6101237B610023BB61022359
:1003CC00FB6107F110031946084800F0A9FA002256
:1003DC000021062000F06DFA062000F086FA00BF1E
:1003EC002037BD4680BD00BF00100240000C01400C
:1003FC00000011100008014080B400AF72B600BFBD
:10040C0000BFFDE780B483B000AF0E4B9B690D4A73
:10041C0043F0010393610B4B9B6903F001037B6079
:10042C007B68084BDB69074A43F08053D361054B6B
:10043C00DB6903F080533B603B6800BF0C37BD4663
:10044C0080BC70470010024080B485B000AF78606B
:10045C007B681B68094A93420BD1094B9B69084A7C
:10046C0043F400639361064B9B6903F40063FB60E8
:10047C00FB6800BF1437BD4680BC7047002C0140A0
:10048C000010024080B588B000AF786007F110030F
:10049C0000221A605A609A60DA607B681B68104A06
:1004AC00934218D10F4B9B690E4A43F0040393619E
:1004BC000C4B9B6903F00403FB60FB684FF48073E7
:1004CC003B6102237B610223FB6107F11003194698
:1004DC00054800F025FA00BF2037BD4680BD00BF9F
:1004EC00002C0140001002400008014080B400AF15
:1004FC0000BFFDE780B400AF00BFFDE780B400AFE4
:10050C0000BFFDE780B400AF00BFFDE780B400AFD3
:10051C0000BFFDE780B400AF00BFBD4680BC704794
:10052C0080B400AF00BFBD4680BC704780B400AF44
:10053C0000BFBD4680BC704780B500AF00F0A2F88C
:10054C0000BF80BD80B400AF154B1B68144A43F04C
:10055C0001031360124B5A681149124B13404B6044
:10056C000F4B1B680E4A23F0847323F48033136003
:10057C000B4B1B680A4A23F480231360084B5B68FF
:10058C00074A23F4FE035360054B4FF41F029A6095
:10059C00054B4FF000629A6000BFBD4680BC7047AF
:1005AC00001002400000FFF800ED00E0002103E025
:1005BC000B4B5B58435004310A480B4B42189A4280
:1005CC00F6D30A4A02E0002342F8043B084B9A4255
:1005DC00F9D3FFF7B7FF01F0F7FAFFF7B1FD70475A
:1005EC005C1C0008000000200C0000200C00002007
:1005FC0070000020FEE7000080B500AF084B1B68C0
:10060C00074A43F010031360032000F047F90F2052
:10061C0000F008F8FFF7F6FE0023184680BD00BF77
:10062C000020024080B582B000AF7860124B1A688F
:10063C00124B1B7819464FF47A73B3FBF1F3B2FBF0
:10064C00F3F3184600F05FF90346002B01D00123A9
:10065C000EE07B680F2B0AD8002279684FF0FF3030
:10066C0000F027F9064A7B681360002300E00123A1
:10067C0018460837BD4680BD000000200800002049
:10068C000400002080B400AF054B1B781A46054BC4
:10069C001B681344034A136000BFBD4680BC7047FF
:1006AC00080000206C00002080B400AF024B1B68D7
:1006BC001846BD4680BC70476C00002080B584B0E5
:1006CC0000AF7860FFF7F0FFB8607B68FB60FB68F9
:1006DC00B3F1FF3F05D00A4B1B781A46FB68134455
:1006EC00FB6000BFFFF7E0FF0246BB68D31AFA6855
:1006FC009A42F7D800BF00BF1037BD4680BD00BF7F
:10070C000800002080B485B000AF78607B6803F0EF
:10071C000703FB600C4BDB68BB60BA684FF6FF034A
:10072C001340BB60FB681A02BB68134343F0BF6302
:10073C0043F40033BB60044ABB68D36000BF14377A
:10074C00BD4680BC704700BF00ED00E080B400AF38
:10075C00044BDB681B0A03F007031846BD4680BC3C
:10076C00704700BF00ED00E080B483B000AF0346DB
:10077C00FB7197F90730002B0BDBFB7903F01F02A1
:10078C00064997F907305B09012000FA02F241F89B
:10079C00232000BF0C37BD4680BC704700E100E051
:1007AC0080B483B000AF03463960FB7197F9073012
:1007BC00002B0ADB3B68DAB20C4997F907301201BF
:1007CC00D2B20B4483F800230AE03B68DAB2084942
:1007DC00FB7903F00F03043B1201D2B20B441A76DF
:1007EC0000BF0C37BD4680BC704700BF00E100E085
:1007FC0000ED00E080B489B000AFF860B9607A60B9
:10080C00FB6803F00703FB61FB69C3F10703042BCF
:10081C0028BF0423BB61FB690433062B02D9FB6997
:10082C00033B00E000237B614FF0FF32BB6902FA0F
:10083C0003F3DA43BB681A407B699A404FF0FF31EF
:10084C007B6901FA03F3D9437B680B4013431846C9
:10085C002437BD4680BC704780B582B000AF78604D
:10086C007B68013BB3F1807F01D301230FE00A4A7F
:10087C007B68013B53600F214FF0FF30FFF790FF77
:10088C00054B00229A60044B07221A60002318467D
:10089C000837BD4680BD00BF10E000E080B582B0D7
:1008AC0000AF78607868FFF72DFF00BF0837BD46B2
:1008BC0080BD80B586B000AF0346B9607A60FB732B
:1008CC0000237B61FFF742FF78617A68B968786929
:1008DC00FFF790FF024697F90F3011461846FFF7C5
:1008EC005FFF00BF1837BD4680BD80B582B000AF3A
:1008FC000346FB7197F907301846FFF735FF00BF29
:10090C000837BD4680BD80B582B000AF786078688E
:10091C00FFF7A2FF034618460837BD4680BD00000E
:10092C0080B48BB000AF7860396000237B62002309
:10093C003B6269E101227B6A02FA03F3FB613B68CB
:10094C001B68FA691340BB61BA69FB699A4240F0B3
:10095C0058813B685B689A4A93425ED0984A9342AE
:10096C0075D8984A934258D0964A93426FD8964A73
:10097C00934252D0944A934269D8944A93424CD0B1
:10098C00924A934263D8924A934246D0904A9342F9
:10099C005DD8122B2AD8122B59D801A252F823F069
:1009AC00270A0008010A0008130A0008550A000863
:1009BC005B0A00085B0A00085B0A00085B0A000877
:1009CC005B0A00085B0A00085B0A00085B0A000867
:1009DC005B0A00085B0A00085B0A00085B0A000857
:1009EC005B0A0008090A00081D0A0008794A9342AC
:1009FC0013D02CE03B68DB683B6229E03B68DB688A
:100A0C0004333B6224E03B68DB6808333B621FE045
:100A1C003B68DB680C333B621AE03B689B68002B3D
:100A2C0002D104233B6213E03B689B68012B05D188
:100A3C0008233B627B68FA691A6109E008233B6270
:100A4C007B68FA695A6103E000233B6200E000BF57
:100A5C00BB69FF2B01D87B6801E07B6804337B61A9
:100A6C00BB69FF2B02D87B6A9B0002E07B6A083BC8
:100A7C009B003B617B691A680F213B6901FA03F308
:100A8C00DB431A40396A3B6901FA03F31A437B6969
:100A9C001A603B685B6803F08053002B00F0B18058
:100AAC004D4B9B694C4A43F0010393614A4B9B6944
:100ABC0003F00103BB60BB68484A7B6A9B080233A6
:100ACC0052F82330FB607B6A03F003039B000F2278
:100ADC0002FA03F3DB43FA681340FB607B68404A7D
:100AEC00934213D07B683F4A93420DD07B683E4AB9
:100AFC00934207D07B683D4A934201D1032306E021
:100B0C00042304E0022302E0012300E000237A6ABC
:100B1C0002F0030292009340FA681343FB602F49E2
:100B2C007B6A9B080233FA6841F823203B685B68B8
:100B3C0003F48033002B06D02D4B1A682C49BB696B
:100B4C0013430B6006E02A4B1A68BB69DB43284948
:100B5C0013400B603B685B6803F40033002B06D03A
:100B6C00234B5A682249BB6913434B6006E0204B68
:100B7C005A68BB69DB431E4913404B603B685B689A
:100B8C0003F48013002B06D0194B9A681849BB69E3
:100B9C0013438B6006E0164B9A68BB69DB43144920
:100BAC0013408B603B685B6803F40013002B21D06F
:100BBC000F4BDA680E49BB691343CB6021E000BFD1
:100BCC000000321000003110000022100000211033
:100BDC000000121000001110001002400000014033
:100BEC0000080140000C01400010014000140140BD
:100BFC00000401400B4BDA68BB69DB430949134025
:100C0C00CB607B6A01337B623B681A687B6A22FA91
:100C1C0003F3002B7FF48EAE00BF00BF2C37BD4614
:100C2C0080BC70470004014080B483B000AF786092
:100C3C000B467B8013467B707B78002B03D07A8825
:100C4C007B681A6103E07B881A047B681A6100BF19
:100C5C000C37BD4680BC704780B586B000AF78605D
:100C6C007B68002B01D1012372E27B681B6803F0C7
:100C7C000103002B00F08780924B5B6803F00C03A0
:100C8C00042B0CD08F4B5B6803F00C03082B12D198
:100C9C008C4B5B6803F48033B3F5803F0BD1894BED
:100CAC001B6803F40033002B6CD07B685B68002B53
:100CBC0068D101234CE27B685B68B3F5803F06D1B9
:100CCC00804B1B687F4A43F4803313602EE07B68B3
:100CDC005B68002B0CD17B4B1B687A4A23F4803366
:100CEC001360784B1B68774A23F4802313601DE054
:100CFC007B685B68B3F5A02F0CD1724B1B68714AF3
:100D0C0043F4802313606F4B1B686E4A43F48033AB
:100D1C0013600BE06B4B1B686A4A23F4803313603F
:100D2C00684B1B68674A23F4802313607B685B68FD
:100D3C00002B13D0FFF7B8FC386108E0FFF7B4FCC8
:100D4C0002463B69D31A642B01D9032300E25D4BA5
:100D5C001B6803F40033002BF0D014E0FFF7A4FC65
:100D6C00386108E0FFF7A0FC02463B69D31A642BFC
:100D7C0001D90323ECE1534B1B6803F40033002B24
:100D8C00F0D100E000BF7B681B6803F00203002B6E
:100D9C0063D04C4B5B6803F00C03002B0BD0494B1E
:100DAC005B6803F00C03082B1CD1464B5B6803F407
:100DBC008033002B16D1434B1B6803F00203002B2E
:100DCC0005D07B681B69012B01D00123C0E13D4B91
:100DDC001B6823F0F8027B685B69DB00394913431D
:100DEC000B603AE07B681B69002B20D0364B01224C
:100DFC001A60FFF759FC386108E0FFF755FC024612
:100E0C003B69D31A022B01D90323A1E12D4B1B689B
:100E1C0003F00203002BF0D02A4B1B6823F0F802DE
:100E2C007B685B69DB00274913430B6015E0264B9D
:100E3C0000221A60FFF738FC386108E0FFF734FC39
:100E4C0002463B69D31A022B01D9032380E11D4BC7
:100E5C001B6803F00203002BF0D17B681B6803F0C6
:100E6C000803002B3AD07B689B69002B19D0174BD9
:100E7C0001221A60FFF718FC386108E0FFF714FC38
:100E8C0002463B69D31A022B01D9032360E10D4BB7
:100E9C005B6A03F00203002BF0D0012000F0A6FAED
:100EAC001CE00A4B00221A60FFF7FEFB38610FE0D2
:100EBC00FFF7FAFB02463B69D31A022B08D903232E
:100ECC0046E100BF00100240000042428004424252
:100EDC00924B5B6A03F00203002BE9D17B681B6821
:100EEC0003F00403002B00F0A6800023FB758B4B52
:100EFC00DB6903F08053002B0DD1884BDB69874AEB
:100F0C0043F08053D361854BDB6903F08053BB60A6
:100F1C00BB680123FB75824B1B6803F48073002BA9
:100F2C0018D17F4B1B687E4A43F480731360FFF724
:100F3C00BBFB386108E0FFF7B7FB02463B69D31AED
:100F4C00642B01D9032303E1754B1B6803F48073F5
:100F5C00002BF0D07B68DB68012B06D16F4B1B6A32
:100F6C006E4A43F0010313622DE07B68DB68002BB3
:100F7C000CD16A4B1B6A694A23F001031362674B5D
:100F8C001B6A664A23F0040313621CE07B68DB686F
:100F9C00052B0CD1614B1B6A604A43F004031362AE
:100FAC005E4B1B6A5D4A43F0010313620BE05B4B23
:100FBC001B6A5A4A23F001031362584B1B6A574AA7
:100FCC0023F0040313627B68DB68002B15D0FFF75A
:100FDC006BFB38610AE0FFF767FB02463B69D31AEB
:100FEC0041F28832934201D90323B1E04B4B1B6A87
:100FFC0003F00203002BEED014E0FFF755FB386131
:10100C000AE0FFF751FB02463B69D31A41F28832E2
:10101C00934201D903239BE0404B1B6A03F002036C
:10102C00002BEED1FB7D012B05D13C4BDB693B4A00
:10103C0023F08053D3617B68DB69002B00F0878041
:10104C00364B5B6803F00C03082B61D07B68DB69C3
:10105C00022B46D1334B00221A60FFF725FB386177
:10106C0008E0FFF721FB02463B69D31A022B01D99A
:10107C0003236DE0294B1B6803F00073002BF0D1A8
:10108C007B681B6AB3F5803F08D1244B5B6823F463
:10109C0000327B689B68214913434B601F4B5B6894
:1010AC0023F474127B68196A7B685B6A0B431B49D7
:1010BC0013434B601B4B01221A60FFF7F5FA3861A2
:1010CC0008E0FFF7F1FA02463B69D31A022B01D96B
:1010DC0003233DE0114B1B6803F00073002BF0D091
:1010EC0035E0104B00221A60FFF7DEFA386108E099
:1010FC00FFF7DAFA02463B69D31A022B01D9032314
:10110C0026E0064B1B6803F00073002BF0D11EE0A9
:10111C007B68DB69012B07D1012319E00010024029
:10112C0000700040600042420B4B5B68FB60FB6848
:10113C0003F480327B681B6A9A4206D1FB6803F485
:10114C0070127B685B6A9A4201D0012300E0002395
:10115C0018461837BD4680BD0010024080B584B0DB
:10116C0000AF786039607B68002B01D10123D0E09F
:10117C006A4B1B6803F007033A689A4210D9674B15
:10118C001B6823F0070265493B6813430B60634BF4
:10119C001B6803F007033A689A4201D00123B8E0B8
:1011AC007B681B6803F00203002B20D07B681B6854
:1011BC0003F00403002B05D0594B5B68584A43F4E9
:1011CC00E06353607B681B6803F00803002B05D0B9
:1011DC00534B5B68524A43F460535360504B5B680B
:1011EC0023F0F0027B689B684D4913434B607B688E
:1011FC001B6803F00103002B40D07B685B68012B5C
:10120C0007D1474B1B6803F40033002B15D1012386
:10121C007FE07B685B68022B07D1414B1B6803F0B6
:10122C000073002B09D1012373E03D4B1B6803F0C5
:10123C000203002B01D101236BE0394B5B6823F0D7
:10124C0003027B685B68364913434B60FFF72CFA4B
:10125C00F8600AE0FFF728FA0246FB68D31A41F25D
:10126C008832934201D9032353E02D4B5B6803F082
:10127C000C027B685B689B009A42EBD1274B1B6886
:10128C0003F007033A689A4210D2244B1B6823F0F0
:10129C00070222493B6813430B60204B1B6803F089
:1012AC0007033A689A4201D0012332E07B681B683D
:1012BC0003F00403002B08D0194B5B6823F4E062A5
:1012CC007B68DB68164913434B607B681B6803F033
:1012DC000803002B09D0124B5B6823F460527B6827
:1012EC001B69DB000E4913434B6000F021F80246EA
:1012FC000B4B5B681B0903F00F030A49CB5C22FA0A
:10130C0003F3094A1360094B1B681846FFF78AF967
:10131C00002318461037BD4680BD00BF0020024098
:10132C0000100240441C00080000002004000020B3
:10133C0090B48AB000AF294B3C1D0FCB84E80F0052
:10134C0040F201233B800023FB610023BB6100239F
:10135C007B6200237B6100233B62214B5B68FB615A
:10136C00FB6903F00C03042B02D0082B03D02BE0F9
:10137C001C4B3B622BE0FB699B0C03F00F032833E7
:10138C003B4413F8243C7B61FB6903F48033002B52
:10139C0012D0134B5B685B0C03F0010328333B4406
:1013AC0013F8283CBB617B690E4A03FB02F2BB6954
:1013BC00B2FBF3F37B6204E07B690B4A02FB03F3A1
:1013CC007B627B6A3B6202E0064B3B6200BF3B6A7E
:1013DC0018462837BD4690BC704700BF341C000827
:1013EC000010024000127A0000093D0080B485B064
:1013FC0000AF78600A4B1B680A4AA2FB03235B0A06
:10140C007A6802FB03F3FB6000BFFB685A1EFA60AC
:10141C00002BF9D100BF00BF1437BD4680BC70470C
:10142C0000000020D34D621080B582B000AF786010
:10143C007B68002B01D101231DE07B6893F83D30C4
:10144C00DBB2002B06D17B68002283F83C20786845
:10145C00FEF7FAFF7B68022283F83D207B681A684E
:10146C007B6804331946104600F002F97B680122B0
:10147C0083F83D20002318460837BD4680BD000088
:10148C0080B584B000AF786039607B681B6801223E
:10149C003968184600F0D6FA7B681B68104A9342EC
:1014AC0007D17B681B685A6C7B681B6842F400424E
:1014BC005A647B681B689B6803F00703FB60FB683E
:1014CC00062B07D07B681B681A687B681B6842F088
:1014DC0001021A60002318461037BD4680BD00BFBC
:1014EC00002C014080B584B000AFF860B9607A6020
:1014FC00FB6893F83C30012B01D10223B4E0FB686C
:10150C00012283F83C20FB68022283F83D207B6893
:10151C000C2B00F29F8001A252F823F05D150008FD
:10152C006116000861160008611600089D15000878
:10153C00611600086116000861160008DF15000826
:10154C006116000861160008611600081F160008D5
:10155C00FB681B68B968184600F0ECF8FB681B6860
:10156C009A69FB681B6842F008029A61FB681B6869
:10157C009A69FB681B6822F004029A61FB681B687D
:10158C009969BB681A69FB681B680A439A6162E037
:10159C00FB681B68B968184600F032F9FB681B68D9
:1015AC009A69FB681B6842F400629A61FB681B68CD
:1015BC009A69FB681B6822F480629A61FB681B685D
:1015CC009969BB681B691A02FB681B680A439A611C
:1015DC0041E0FB681B68B968184600F07BF9FB68B2
:1015EC001B68DA69FB681B6842F00802DA61FB6869
:1015FC001B68DA69FB681B6822F00402DA61FB687D
:10160C001B68D969BB681A69FB681B680A43DA61F5
:10161C0021E0FB681B68B968184600F0C5F9FB6847
:10162C001B68DA69FB681B6842F40062DA61FB68CC
:10163C001B68DA69FB681B6822F48062DA61FB685C
:10164C001B68D969BB681B691A02FB681B680A43D3
:10165C00DA6100E000BFFB68012283F83D20FB68E3
:10166C00002283F83C20002318461037BD4680BD6D
:10167C0080B485B000AF786039607B681B68FB6014
:10168C007B68294A93420BD07B68B3F1804F07D01B
:10169C007B68264A934203D07B68254A934208D143
:1016AC00FB6823F07003FB603B685B68FA681343CC
:1016BC00FB607B681C4A93420BD07B68B3F1804F74
:1016CC0007D07B68194A934203D07B68184A93422F
:1016DC0008D1FB6823F44073FB603B68DB68FA6855
:1016EC001343FB60FB6823F080023B685B69134388
:1016FC00FB607B68FA681A603B689A687B68DA6200
:10170C003B681A687B689A627B68074A934203D1EC
:10171C003B681A697B681A637B6801225A6100BFB7
:10172C001437BD4680BC7047002C014000040040BB
:10173C000008004080B487B000AF786039607B68E7
:10174C001B6A23F001027B681A627B681B6A7B614F
:10175C007B685B683B617B689B69FB60FB6823F083
:10176C007003FB60FB6823F00303FB603B681B68A2
:10177C00FA681343FB607B6923F002037B613B68CF
:10178C009B687A6913437B617B681C4A93420CD13A
:10179C007B6923F008037B613B68DB687A69134340
:1017AC007B617B6923F004037B617B68134A934262
:1017BC0011D13B6923F480733B613B6923F40073C3
:1017CC003B613B685B693A6913433B613B689B69CE
:1017DC003A6913433B617B683A695A607B68FA68E3
:1017EC009A613B685A687B685A637B687A691A62AB
:1017FC0000BF1C37BD4680BC704700BF002C0140A9
:10180C0080B487B000AF786039607B681B6A23F0C6
:10181C0010027B681A627B681B6A7B617B685B6861
:10182C003B617B689B69FB60FB6823F4E043FB60D6
:10183C00FB6823F44073FB603B681B681B02FA686F
:10184C001343FB607B6923F020037B613B689B683F
:10185C001B017A6913437B617B681D4A93420DD14E
:10186C007B6923F080037B613B68DB681B017A6931
:10187C0013437B617B6923F040037B617B68144AD3
:10188C00934213D13B6923F480633B613B6923F49E
:10189C0000633B613B685B699B003A6913433B61A6
:1018AC003B689B699B003A6913433B617B683A69CF
:1018BC005A607B68FA689A613B685A687B689A63DD
:1018CC007B687A691A6200BF1C37BD4680BC7047C2
:1018DC00002C014080B487B000AF786039607B6821
:1018EC001B6A23F480727B681A627B681B6A7B61BB
:1018FC007B685B683B617B68DB69FB60FB6823F0A2
:10190C007003FB60FB6823F00303FB603B681B6800
:10191C00FA681343FB607B6923F400737B613B68BB
:10192C009B681B027A6913437B617B681D4A934257
:10193C000DD17B6923F400637B613B68DB681B0280
:10194C007A6913437B617B6923F480637B617B68D9
:10195C00144A934213D13B6923F480533B613B6996
:10196C0023F400533B613B685B691B013A691343E9
:10197C003B613B689B691B013A6913433B617B6884
:10198C003A695A607B68FA68DA613B685A687B6826
:10199C00DA637B687A691A6200BF1C37BD4680BC6B
:1019AC00704700BF002C014080B487B000AF786056
:1019BC0039607B681B6A23F480527B681A627B68EF
:1019CC001B6A3B617B685B687B617B68DB69FB60E6
:1019DC00FB6823F4E043FB60FB6823F44073FB607B
:1019EC003B681B681B02FA681343FB603B6923F4DA
:1019FC0000533B613B689B681B033A6913433B6193
:101A0C007B680F4A934209D17B6923F480437B6145
:101A1C003B685B699B017A6913437B617B687A69DC
:101A2C005A607B68FA68DA613B685A687B681A64AA
:101A3C007B683A691A6200BF1C37BD4680BC704790
:101A4C00002C014080B487B000AFF860B9607A60B8
:101A5C00BB6803F01F03012202FA03F37B61FB68EE
:101A6C001A6A7B69DB431A40FB681A62FB681A6AC4
:101A7C00BB6803F01F03796801FA03F31A43FB6890
:101A8C001A6200BF1C37BD4680BC704780B485B05D
:101A9C0000AF786039607B6893F83C30012B01D142
:101AAC00022332E07B68012283F83C207B6802220F
:101ABC0083F83D207B681B685B68FB607B681B6858
:101ACC009B68BB60FB6823F07003FB603B681B6882
:101ADC00FA681343FB60BB6823F08003BB603B6870
:101AEC005B68BA681343BB607B681B68FA685A6012
:101AFC007B681B68BA689A607B68012283F83D207A
:101B0C007B68002283F83C20002318461437BD461E
:101B1C0080BC704780B485B000AF7860396000231A
:101B2C00FB607B6893F83C30012B01D102233DE034
:101B3C007B68012283F83C20FB6823F0FF023B68A2
:101B4C00DB681343FB60FB6823F440723B689B68C3
:101B5C001343FB60FB6823F480623B685B681343B0
:101B6C00FB60FB6823F400623B681B681343FB605B
:101B7C00FB6823F480523B681B691343FB60FB68D2
:101B8C0023F400523B685B691343FB60FB6823F44E
:101B9C0080423B68DB691343FB607B681B68FA6817
:101BAC005A647B68002283F83C20002318461437C3
:101BBC00BD4680BC704703460244934200D1704737
:101BCC0003F8011BF9E7000070B500260C4D0D4B16
:101BDC005B1B9C10A64209D1002600F019F80A4D97
:101BEC000A4B5B1B9C10A64205D170BD55F8043BFB
:101BFC0098470136EEE755F8043B98470136F2E773
:101C0C00541C0008541C0008541C0008581C0008E4
:101C1C00F8B500BFF8BC08BC9E467047F8B500BFCD
:081C2C00F8BC08BC9E4670479D
:101C340002030405060708090A0B0C0D0E0F101009
:101C44000000000000000000010203040607080968
:041C54003101000852
:041C58000D01000872
:0C1C5C000024F400100000000100000053
:04000005080005B931
:00000001FF
