:020000040800F2
:100000000050002059050008850400088D040008F0
:10001000950400089D040008A504000800000000E5
:10002000000000000000000000000000AD04000817
:10003000B904000800000000C5040008D10400084D
:10004000A1050008A1050008A1050008A1050008F8
:10005000A1050008A1050008A1050008A1050008E8
:10006000A1050008A1050008A1050008A1050008D8
:10007000A1050008A1050008A1050008A1050008C8
:10008000A1050008A1050008A1050008A1050008B8
:10009000A1050008A1050008A1050008A1050008A8
:1000A000A1050008A1050008A1050008A105000898
:1000B000A1050008A1050008A1050008A105000888
:1000C000A1050008A1050008A1050008A105000878
:1000D000A1050008A1050008DD040008A10500082D
:1000E000A1050008A1050008A10500080000000006
:1000F0000000000000000000000000000000000000
:0C01000000000000000000005FF808F1A3
:10010C0010B5054C237833B9044B13B10448AFF345
:10011C0000800123237010BD0C00002000000000A3
:10012C00481E000808B5034B1BB103490348AFF345
:10013C00008008BD0000000010000020481E0008D0
:10014C0080B584B000AF00F027FA00F01DF800F085
:10015C008BF800F05FF8094A3B1D07CA83E80700DB
:10016C00391D64230C22064801F0FFF901220549D0
:10017C00034801F093FA00BFFDE700BF601E0008C2
:10018C00280000206800002080B590B000AF07F177
:10019C00180328220021184601F024FE3B1D0022E2
:1001AC001A605A609A60DA601A610123BB614FF4DD
:1001BC008033FB6100233B620123BB6202237B6320
:1001CC004FF48033BB634FF4E013FB6307F1180368
:1001DC00184600F063FD0346002B01D000F0D2F866
:1001EC000F237B600223BB600023FB604FF4806312
:1001FC003B6100237B613B1D0221184600F0D0FFC0
:10020C000346002B01D000F0BDF800BF4037BD46BF
:10021C0080BD000080B500AF114B124A1A60104B24
:10022C004FF416525A600E4B00229A600C4B00226F
:10023C00DA600B4B00221A61094B0C225A61084BF5
:10024C0000229A61064B0022DA61054801F040F960
:10025C000346002B01D000F095F800BF80BD00BF15
:10026C00280000200044004080B588B000AF07F1A2
:10027C00100300221A605A609A60DA601D4B9B6969
:10028C001C4A43F0200393611A4B9B6903F0200333
:10029C00FB60FB68174B9B69164A43F004039361A0
:1002AC00144B9B6903F00403BB60BB68114B9B6947
:1002BC00104A43F0080393610E4B9B6903F008034B
:1002CC007B607B68002204210B4800F0CFFC0423E8
:1002DC003B6101237B610023BB610223FB6107F1BE
:1002EC0010031946044800F03DFB00BF2037BD4603
:1002FC0080BD00BF00100240000C014080B582B0F0
:10030C0000AF78607B681A4A93422DD101221949BB
:10031C00174801F0C3F9174B1B78782B03D0154BFA
:10032C001B78582B03D1144B00221A701CE0114B74
:10033C001B78612B03D1114B04221A6107E00D4B82
:10034C001B78622B03D10D4B4FF480221A610A4BA0
:10035C001B781A46074B1978094B9954064B1B7896
:10036C000133DAB2044B1A700837BD4680BD00BFAA
:10037C00280000206800002080000020000C0140B4
:10038C006C00002080B400AF72B600BF00BFFDE768
:10039C0080B483B000AF0E4B9B690D4A43F0010350
:1003AC0093610B4B9B6903F001037B607B68084BEB
:1003BC00DB69074A43F08053D361054BDB6903F0DB
:1003CC0080533B603B6800BF0C37BD4680BC704718
:1003DC000010024080B588B000AF786007F11003C0
:1003EC0000221A605A609A60DA607B681B681F4AA8
:1003FC00934237D11E4BDB691D4A43F40033D36162
:10040C001B4BDB6903F40033FB60FB68184B9B69E7
:10041C00174A43F004039361154B9B6903F00403E3
:10042C00BB60BB6804233B6102237B610323FB613C
:10043C0007F1100319460F4800F094FA08233B61AA
:10044C0000237B610023BB6107F1100319460948A7
:10045C0000F088FA00220021262000F0D6F9262090
:10046C0000F0EFF900BF2037BD4680BD00440040CE
:10047C00001002400008014080B400AF00BFFDE74F
:10048C0080B400AF00BFFDE780B400AF00BFFDE754
:10049C0080B400AF00BFFDE780B400AF00BFFDE744
:1004AC0080B400AF00BFBD4680BC704780B400AFC5
:1004BC0000BFBD4680BC704780B400AF00BFBD46D6
:1004CC0080BC704780B500AF00F0ACF800BF80BDB9
:1004DC0080B500AF024801F035F900BF80BD00BF08
:1004EC002800002080B400AF154B1B68144A43F061
:1004FC0001031360124B5A681149124B13404B60A5
:10050C000F4B1B680E4A23F0847323F48033136063
:10051C000B4B1B680A4A23F480231360084B5B685F
:10052C00074A23F4FE035360054B4FF41F029A60F5
:10053C00054B4FF000629A6000BFBD4680BC70470F
:10054C00001002400000FFF800ED00E0002103E085
:10055C000B4B5B58435004310A480B4B42189A42E0
:10056C00F6D30A4A02E0002342F8043B084B9A42B5
:10057C00F9D3FFF7B7FF01F03DFCFFF7E1FD704742
:10058C009C1E0008000000200C0000200C00002025
:10059C0088000020FEE7000080B500AF084B1B6808
:1005AC00074A43F010031360032000F023F90F20D7
:1005BC0000F008F8FFF7ECFE0023184680BD00BFE2
:1005CC000020024080B582B000AF7860124B1A68F0
:1005DC00124B1B7819464FF47A73B3FBF1F3B2FB51
:1005EC00F3F3184600F03BF90346002B01D001232E
:1005FC000EE07B680F2B0AD8002279684FF0FF3091
:10060C0000F003F9064A7B681360002300E0012325
:10061C0018460837BD4680BD0000002008000020A9
:10062C000400002080B400AF054B1B781A46054B24
:10063C001B681344034A136000BFBD4680BC70475F
:10064C00080000208400002080B400AF024B1B681F
:10065C001846BD4680BC70478400002080B485B02D
:10066C0000AF78607B6803F00703FB600C4BDB6822
:10067C00BB60BA684FF6FF031340BB60FB681A02FD
:10068C00BB68134343F0BF6343F40033BB60044ABD
:10069C00BB68D36000BF1437BD4680BC704700BF39
:1006AC0000ED00E080B400AF044BDB681B0A03F0E4
:1006BC0007031846BD4680BC704700BF00ED00E044
:1006CC0080B483B000AF0346FB7197F90730002B61
:1006DC000BDBFB7903F01F02064997F907305B0926
:1006EC00012000FA02F241F8232000BF0C37BD466E
:1006FC0080BC704700E100E080B483B000AF0346DB
:10070C003960FB7197F90730002B0ADB3B68DAB2D2
:10071C000C4997F907301201D2B20B4483F800232D
:10072C000AE03B68DAB20849FB7903F00F03043B9B
:10073C001201D2B20B441A7600BF0C37BD4680BCF6
:10074C00704700BF00E100E000ED00E080B489B02C
:10075C0000AFF860B9607A60FB6803F00703FB61D7
:10076C00FB69C3F10703042B28BF0423BB61FB699E
:10077C000433062B02D9FB69033B00E000237B61A9
:10078C004FF0FF32BB6902FA03F3DA43BB681A403D
:10079C007B699A404FF0FF317B6901FA03F3D9432F
:1007AC007B680B40134318462437BD4680BC70470A
:1007BC0080B582B000AF78607B68013BB3F1807F7D
:1007CC0001D301230FE00A4A7B68013B53600F21E0
:1007DC004FF0FF30FFF790FF054B00229A60044B5F
:1007EC0007221A60002318460837BD4680BD00BF9B
:1007FC0010E000E080B582B000AF78607868FFF759
:10080C002DFF00BF0837BD4680BD80B586B000AF58
:10081C000346B9607A60FB7300237B61FFF742FFEC
:10082C0078617A68B9687869FFF790FF024697F9A2
:10083C000F3011461846FFF75FFF00BF1837BD4653
:10084C0080BD80B582B000AF0346FB7197F90730CD
:10085C001846FFF735FF00BF0837BD4680BD80B591
:10086C0082B000AF78607868FFF7A2FF03461846A5
:10087C000837BD4680BD000080B584B000AF7860FD
:10088C000023FB737B6893F82130022B05D07B6827
:10089C0004229A630123FB7351E07B681B681A687E
:1008AC007B681B6822F00E021A607B681B681A6852
:1008BC007B681B6822F001021A607B681B68224A65
:1008CC00934229D07B681B68204A934222D07B68D4
:1008DC001B681F4A93421AD07B681B681D4A9342BF
:1008EC0012D07B681B681C4A93420AD07B681B6839
:1008FC001A4A934202D14FF480130EE04FF08073EA
:10090C000BE04FF4803308E04FF4805305E04FF4D4
:10091C00807302E0102300E00123114A53607B68CE
:10092C00012283F821207B68002283F820207B6839
:10093C005B6B002B03D07B685B6B78689847FB7B09
:10094C0018461037BD4680BD080002401C0002400E
:10095C003000024044000240580002406C0002404B
:10096C000000024080B48BB000AF78603960002387
:10097C007B6200233B6269E101227B6A02FA03F38A
:10098C00FB613B681B68FA691340BB61BA69FB6980
:10099C009A4240F058813B685B689A4A93425ED019
:1009AC00984A934275D8984A934258D0964A9342A3
:1009BC006FD8964A934252D0944A934269D8944A3B
:1009CC0093424CD0924A934263D8924A934246D077
:1009DC00904A93425DD8122B2AD8122B59D801A2D7
:1009EC0052F823F06B0A0008450A0008570A000861
:1009FC00990A00089F0A00089F0A00089F0A00082D
:100A0C009F0A00089F0A00089F0A00089F0A000816
:100A1C009F0A00089F0A00089F0A00089F0A000806
:100A2C009F0A00089F0A00084D0A0008610A000886
:100A3C00794A934213D02CE03B68DB683B6229E097
:100A4C003B68DB6804333B6224E03B68DB680833BB
:100A5C003B621FE03B68DB680C333B621AE03B688F
:100A6C009B68002B02D104233B6213E03B689B681C
:100A7C00012B05D108233B627B68FA691A6109E0F6
:100A8C0008233B627B68FA695A6103E000233B62EE
:100A9C0000E000BFBB69FF2B01D87B6801E07B68DD
:100AAC0004337B61BB69FF2B02D87B6A9B0002E09D
:100ABC007B6A083B9B003B617B691A680F213B6991
:100ACC0001FA03F3DB431A40396A3B6901FA03F379
:100ADC001A437B691A603B685B6803F08053002BF8
:100AEC0000F0B1804D4B9B694C4A43F0010393617C
:100AFC004A4B9B6903F00103BB60BB68484A7B6AA5
:100B0C009B08023352F82330FB607B6A03F003032B
:100B1C009B000F2202FA03F3DB43FA681340FB60DD
:100B2C007B68404A934213D07B683F4A93420DD076
:100B3C007B683E4A934207D07B683D4A934201D181
:100B4C00032306E0042304E0022302E0012300E077
:100B5C0000237A6A02F0030292009340FA6813436E
:100B6C00FB602F497B6A9B080233FA6841F823200B
:100B7C003B685B6803F48033002B06D02D4B1A685E
:100B8C002C49BB6913430B6006E02A4B1A68BB69FE
:100B9C00DB43284913400B603B685B6803F400336C
:100BAC00002B06D0234B5A682249BB6913434B6078
:100BBC0006E0204B5A68BB69DB431E4913404B606F
:100BCC003B685B6803F48013002B06D0194B9A68C2
:100BDC001849BB6913438B6006E0164B9A68BB69D6
:100BEC00DB43144913408B603B685B6803F40013D0
:100BFC00002B21D00F4BDA680E49BB691343CB6035
:100C0C0021E000BF00003210000031100000221063
:100C1C000000211000001210000011100010024002
:100C2C000000014000080140000C01400010014090
:100C3C0000140140000401400B4BDA68BB69DB4334
:100C4C0009491340CB607B6A01337B623B681A68AD
:100C5C007B6A22FA03F3002B7FF48EAE00BF00BF39
:100C6C002C37BD4680BC70470004014080B483B073
:100C7C0000AF78600B467B8013467B707B78002B33
:100C8C0003D07A887B681A6103E07B881A047B683E
:100C9C001A6100BF0C37BD4680BC704780B586B06A
:100CAC0000AF78607B68002B01D1012372E27B6876
:100CBC001B6803F00103002B00F08780924B5B68EC
:100CCC0003F00C03042B0CD08F4B5B6803F00C036C
:100CDC00082B12D18C4B5B6803F48033B3F5803F47
:100CEC000BD1894B1B6803F40033002B6CD07B6851
:100CFC005B68002B68D101234CE27B685B68B3F521
:100D0C00803F06D1804B1B687F4A43F480331360CD
:100D1C002EE07B685B68002B0CD17B4B1B687A4AFE
:100D2C0023F480331360784B1B68774A23F48023B9
:100D3C0013601DE07B685B68B3F5A02F0CD1724B80
:100D4C001B68714A43F4802313606F4B1B686E4A17
:100D5C0043F4803313600BE06B4B1B686A4A23F43B
:100D6C0080331360684B1B68674A23F4802313603D
:100D7C007B685B68002B13D0FFF766FC386108E0DA
:100D8C00FFF762FC02463B69D31A642B01D903239B
:100D9C0000E25D4B1B6803F40033002BF0D014E031
:100DAC00FFF752FC386108E0FFF74EFC02463B6946
:100DBC00D31A642B01D90323ECE1534B1B6803F4C6
:100DCC000033002BF0D100E000BF7B681B6803F000
:100DDC000203002B63D04C4B5B6803F00C03002B1D
:100DEC000BD0494B5B6803F00C03082B1CD1464B12
:100DFC005B6803F48033002B16D1434B1B6803F064
:100E0C000203002B05D07B681B69012B01D0012349
:100E1C00C0E13D4B1B6823F0F8027B685B69DB008B
:100E2C00394913430B603AE07B681B69002B20D0D7
:100E3C00364B01221A60FFF707FC386108E0FFF718
:100E4C0003FC02463B69D31A022B01D90323A1E10F
:100E5C002D4B1B6803F00203002BF0D02A4B1B68B0
:100E6C0023F0F8027B685B69DB00274913430B60B6
:100E7C0015E0264B00221A60FFF7E6FB386108E00C
:100E8C00FFF7E2FB02463B69D31A022B01D903237D
:100E9C0080E11D4B1B6803F00203002BF0D17B6833
:100EAC001B6803F00803002B3AD07B689B69002B6E
:100EBC0019D0174B01221A60FFF7C6FB386108E006
:100ECC00FFF7C2FB02463B69D31A022B01D903235D
:100EDC0060E10D4B5B6A03F00203002BF0D00120A4
:100EEC0000F0D8FA1CE00A4B00221A60FFF7ACFBAA
:100EFC0038610FE0FFF7A8FB02463B69D31A022BBF
:100F0C0008D9032346E100BF001002400000424212
:100F1C0080044242924B5B6A03F00203002BE9D13E
:100F2C007B681B6803F00403002B00F0A6800023F1
:100F3C00FB758B4BDB6903F08053002B0DD1884B79
:100F4C00DB69874A43F08053D361854BDB6903F03F
:100F5C008053BB60BB680123FB75824B1B6803F499
:100F6C008073002B18D17F4B1B687E4A43F480732F
:100F7C001360FFF769FB386108E0FFF765FB024679
:100F8C003B69D31A642B01D9032303E1754B1B680E
:100F9C0003F48073002BF0D07B68DB68012B06D147
:100FAC006F4B1B6A6E4A43F0010313622DE07B68A2
:100FBC00DB68002B0CD16A4B1B6A694A23F00103D6
:100FCC001362674B1B6A664A23F0040313621CE02E
:100FDC007B68DB68052B0CD1614B1B6A604A43F0C4
:100FEC00040313625E4B1B6A5D4A43F001031362F8
:100FFC000BE05B4B1B6A5A4A23F001031362584BFC
:10100C001B6A574A23F0040313627B68DB68002BCE
:10101C0015D0FFF719FB38610AE0FFF715FB024604
:10102C003B69D31A41F28832934201D90323B1E0D0
:10103C004B4B1B6A03F00203002BEED014E0FFF7BE
:10104C0003FB38610AE0FFF7FFFA02463B69D31A4B
:10105C0041F28832934201D903239BE0404B1B6A37
:10106C0003F00203002BEED1FB7D012B05D13C4B91
:10107C00DB693B4A23F08053D3617B68DB69002B2F
:10108C0000F08780364B5B6803F00C03082B61D0B3
:10109C007B68DB69022B46D1334B00221A60FFF7C9
:1010AC00D3FA386108E0FFF7CFFA02463B69D31A4E
:1010BC00022B01D903236DE0294B1B6803F000734D
:1010CC00002BF0D17B681B6AB3F5803F08D1244B11
:1010DC005B6823F400327B689B68214913434B60A7
:1010EC001F4B5B6823F474127B68196A7B685B6A1C
:1010FC000B431B4913434B601B4B01221A60FFF738
:10110C00A3FA386108E0FFF79FFA02463B69D31A4D
:10111C00022B01D903233DE0114B1B6803F0007334
:10112C00002BF0D035E0104B00221A60FFF78CFA40
:10113C00386108E0FFF788FA02463B69D31A022BA4
:10114C0001D9032326E0064B1B6803F00073002B28
:10115C00F0D11EE07B68DB69012B07D1012319E07C
:10116C000010024000700040600042420B4B5B6874
:10117C00FB60FB6803F480327B681B6A9A4206D1E1
:10118C00FB6803F470127B685B6A9A4201D00123FE
:10119C0000E0002318461837BD4680BD0010024001
:1011AC0080B584B000AF786039607B68002B01D1CA
:1011BC000123D0E06A4B1B6803F007033A689A429C
:1011CC0010D9674B1B6823F0070265493B68134332
:1011DC000B60634B1B6803F007033A689A4201D01B
:1011EC000123B8E07B681B6803F00203002B20D0BE
:1011FC007B681B6803F00403002B05D0594B5B681C
:10120C00584A43F4E06353607B681B6803F008039F
:10121C00002B05D0534B5B68524A43F46053536028
:10122C00504B5B6823F0F0027B689B684D4913437D
:10123C004B607B681B6803F00103002B40D07B687C
:10124C005B68012B07D1474B1B6803F40033002B61
:10125C0015D101237FE07B685B68022B07D1414BE2
:10126C001B6803F00073002B09D1012373E03D4B85
:10127C001B6803F00203002B01D101236BE0394BF7
:10128C005B6823F003027B685B68364913434B6051
:10129C00FFF7DAF9F8600AE0FFF7D6F90246FB68C7
:1012AC00D31A41F28832934201D9032353E02D4BD8
:1012BC005B6803F00C027B685B689B009A42EBD185
:1012CC00274B1B6803F007033A689A4210D2244B51
:1012DC001B6823F0070222493B6813430B60204B29
:1012EC001B6803F007033A689A4201D0012332E0ED
:1012FC007B681B6803F00403002B08D0194B5B6858
:10130C0023F4E0627B68DB68164913434B607B680F
:10131C001B6803F00803002B09D0124B5B6823F405
:10132C0060527B681B69DB000E4913434B6000F075
:10133C0021F802460B4B5B681B0903F00F030A49AB
:10134C00CB5C22FA03F3094A1360094B1B6818465D
:10135C00FFF738F9002318461037BD4680BD00BF93
:10136C0000200240001002407C1E000800000020FB
:10137C000400002090B48AB000AF294B3C1D0FCB69
:10138C0084E80F0040F201233B800023FB61002323
:10139C00BB6100237B6200237B6100233B62214BFA
:1013AC005B68FB61FB6903F00C03042B02D0082B78
:1013BC0003D02BE01C4B3B622BE0FB699B0C03F036
:1013CC000F0328333B4413F8243C7B61FB6903F483
:1013DC008033002B12D0134B5B685B0C03F00103C2
:1013EC0028333B4413F8283CBB617B690E4A03FB52
:1013FC0002F2BB69B2FBF3F37B6204E07B690B4A3C
:10140C0002FB03F37B627B6A3B6202E0064B3B62AE
:10141C0000BF3B6A18462837BD4690BC704700BFDA
:10142C006C1E00080010024000127A0000093D00FA
:10143C0080B400AF024B1B681846BD4680BC704799
:10144C000000002080B500AFFFF7F2FF0246054B0D
:10145C005B681B0A03F007030349CB5C22FA03F316
:10146C00184680BD001002408C1E000880B500AFED
:10147C00FFF7DEFF0246054B5B68DB0A03F0070350
:10148C000349CB5C22FA03F3184680BD00100240DE
:10149C008C1E000880B485B000AF78600A4B1B68C6
:1014AC000A4AA2FB03235B0A7A6802FB03F3FB6084
:1014BC0000BFFB685A1EFA60002BF9D100BF00BFB9
:1014CC001437BD4680BC704700000020D34D62101D
:1014DC0080B582B000AF78607B68002B01D101230E
:1014EC003FE07B6893F83930DBB2002B06D17B6888
:1014FC00002283F838207868FEF76CFF7B68242282
:10150C0083F839207B681B68DA687B681B6822F4D7
:10151C000052DA60786800F08BFB7B681B681A69F4
:10152C007B681B6822F490421A617B681B685A69BD
:10153C007B681B6822F02A025A617B681B68DA6898
:10154C007B681B6842F40052DA607B680022DA6325
:10155C007B68202283F839207B68202283F83A208C
:10156C00002318460837BD4680BD80B588B002AF51
:10157C00F860B9603B601346FB8000237B61FB681D
:10158C0093F83930DBB2202B40F08380BB68002B02
:10159C0002D0FB88002B01D101237BE0FB6893F880
:1015AC003830012B01D1022374E0FB68012283F84F
:1015BC003820FB680022DA63FB68212283F839208B
:1015CC00FFF742F87861FB68FA889A84FB68FA881E
:1015DC00DA8442E0FB68DB8C9BB2013B9AB2FB687D
:1015EC00DA84FB689B68B3F5805F22D13B6800937B
:1015FC007B6900228021F86800F0B0F90346002BCB
:10160C0001D0032346E0BB683B613B691B881A464B
:10161C00FB681B68C2F308025A60FB681B69002B4D
:10162C0003D1BB680233BB6017E0BB680133BB60FE
:10163C0013E03B6800937B6900228021F86800F07E
:10164C008DF90346002B01D0032323E0BB685A1C01
:10165C00BA601A78FB681B685A60FB68DB8C9BB21B
:10166C00002BB7D13B6800937B6900224021F868BE
:10167C0000F074F90346002B01D003230AE0FB6849
:10168C00202283F83920FB68002283F838200023BD
:10169C0000E0022318461837BD4680BD80B485B0E3
:1016AC0000AFF860B9601346FB80FB6893F83A30E2
:1016BC00DBB2202B40D1BB68002B02D0FB88002B67
:1016CC0001D1012339E0FB6893F83830012B01D1AB
:1016DC00022332E0FB68012283F83820FB68BA68E9
:1016EC009A62FB68FA889A85FB68FA88DA85FB6847
:1016FC000022DA63FB68222283F83A20FB6800227E
:10170C0083F83820FB681B68DA68FB681B6842F4B6
:10171C008072DA60FB681B685A69FB681B6842F0D0
:10172C0001025A61FB681B68DA68FB681B6842F0AF
:10173C002002DA60002300E0022318461437BD466D
:10174C0080BC704780B588B000AF78607B681B6840
:10175C001B68FB617B681B68DB68BB617B681B6873
:10176C005B697B6100233B610023FB60FB6903F039
:10177C000F033B613B69002B0DD1FB6903F0200388
:10178C00002B08D0BB6903F02003002B03D0786832
:10179C0000F0CCF9CBE03B69002B00F0AB807B690F
:1017AC0003F00103002B05D1BB6903F49073002BEC
:1017BC0000F0A080FB6903F00103002B0AD0BB6989
:1017CC0003F48073002B05D07B68DB6B43F00102C4
:1017DC007B68DA63FB6903F00403002B0AD07B6996
:1017EC0003F00103002B05D07B68DB6B43F0020296
:1017FC007B68DA63FB6903F00203002B0AD07B6978
:10180C0003F00103002B05D07B68DB6B43F0040273
:10181C007B68DA63FB6903F00803002B0AD07B6951
:10182C0003F00103002B05D07B68DB6B43F008024F
:10183C007B68DA637B68DB6B002B77D0FB6903F08A
:10184C002003002B07D0BB6903F02003002B02D030
:10185C00786800F06BF97B681B685B6903F04003E8
:10186C00002B14BF01230023DBB2FB607B68DB6B16
:10187C0003F00803002B02D1FB68002B31D07868F1
:10188C0000F0B6F87B681B685B6903F04003002B23
:10189C0023D07B681B685A697B681B6822F0400266
:1018AC005A617B685B6B002B13D07B685B6B214AA6
:1018BC005A637B685B6B1846FEF7DEFF0346002B12
:1018CC0016D07B685B6B5B6B7A68526B10469847E3
:1018DC000EE0786800F039F80AE0786800F035F826
:1018EC0006E0786800F031F87B680022DA631DE0CE
:1018FC0000BF1BE0FB6903F08003002B08D0BB6921
:10190C0003F08003002B03D0786800F0A2F80EE0FF
:10191C00FB6903F04003002B09D0BB6903F04003C3
:10192C00002B04D0786800F0E9F800E000BF203705
:10193C00BD4680BD371A000880B483B000AF786014
:10194C0000BF0C37BD4680BC704780B483B000AF7D
:10195C00786000BF0C37BD4680BC704780B584B042
:10196C0000AFF860B9603B601346FB712CE0BB69BB
:10197C00B3F1FF3F28D0BB69002B07D0FEF764FE04
:10198C0002463B68D31ABA699A421DD2FB681B689F
:10199C00DA68FB681B6822F4D072DA60FB681B689B
:1019AC005A69FB681B6822F001025A61FB6820220D
:1019BC0083F83920FB68202283F83A20FB68002248
:1019CC0083F8382003230FE0FB681B681A68BB6898
:1019DC001340BA689A420CBF01230023DBB21A46AB
:1019EC00FB799A42C3D0002318461037BD4680BD00
:1019FC0080B483B000AF78607B681B68DA687B6862
:101A0C001B6822F49072DA607B681B685A697B68E9
:101A1C001B6822F001025A617B68202283F83A206D
:101A2C0000BF0C37BD4680BC704780B584B000AF9A
:101A3C0078607B685B6AFB60FB680022DA85FB6878
:101A4C000022DA84F868FFF780FF00BF1037BD462C
:101A5C0080BD80B485B000AF78607B6893F8393076
:101A6C00DBB2212B44D17B689B68B3F5805F1AD124
:101A7C007B681B6AFB60FB681B881A467B681B68CB
:101A8C00C2F308025A607B681B69002B05D17B6886
:101A9C001B6A9A1C7B681A620EE07B681B6A5A1CD4
:101AAC007B681A6208E07B681B6A591C7A681162B1
:101ABC001A787B681B685A607B68DB8C9BB2013B95
:101ACC009BB27A681946D184002B0FD17B681B68B6
:101ADC00DA687B681B6822F08002DA607B681B681E
:101AEC00DA687B681B6842F04002DA60002300E091
:101AFC00022318461437BD4680BC704780B582B0AF
:101B0C0000AF78607B681B68DA687B681B6822F022
:101B1C004002DA607B68202283F839207868FFF76E
:101B2C000BFF002318460837BD4680BD80B584B036
:101B3C0000AF78607B6893F83A30DBB2222B71D11E
:101B4C007B689B68B3F5805F23D17B689B6AFB60E5
:101B5C007B681B69002B0ED17B681B685B689BB292
:101B6C00C3F308039AB2FB681A807B689B6A9A1CC1
:101B7C007B689A6229E07B681B685B689BB2DBB26E
:101B8C009AB2FB681A807B689B6A5A1C7B689A62C3
:101B9C001BE07B681B69002B0AD17B681B685868AB
:101BAC007B689B6A591C7A689162C2B21A700CE00D
:101BBC007B681B685B68DAB27B689B6A581C796827
:101BCC00886202F07F02D2B21A707B68DB8D9BB206
:101BDC00013B9BB27A681946D185002B20D17B68DA
:101BEC001B68DA687B681B6822F02002DA607B686D
:101BFC001B68DA687B681B6822F48072DA607B6889
:101C0C001B685A697B681B6822F001025A617B6869
:101C1C00202283F83A207868FEF770FB002302E05C
:101C2C00002300E0022318461037BD4680BD00009B
:101C3C0080B584B000AF78607B681B681B6923F4A7
:101C4C0040517B68DA687B681B680A431A617B68C1
:101C5C009A687B681B691A437B685B691343FB605A
:101C6C007B681B68DB6823F4B05323F00C037A68A1
:101C7C001268F9680B43D3607B681B685B6923F4BB
:101C8C0040717B689A697B681B680A435A617B6860
:101C9C001B68524A93424ED1FFF7E8FBB860BA6812
:101CAC0013469B0013449A001A447B685B689B00A4
:101CBC00B2FBF3F34A4AA2FB03235B091901BA688E
:101CCC0013469B0013449A001A447B685B689B0084
:101CDC00B2FBF3F2424BA3FB02035B09642000FB53
:101CEC0003F3D31A1B0132333D4AA2FB03235B09D6
:101CFC0003F0F0031944BA6813469B0013449A008E
:101D0C001A447B685B689B00B2FBF3F2344BA3FB79
:101D1C0002035B09642000FB03F3D31A1B0132336B
:101D2C002F4AA2FB03235B0903F00F027B681B689D
:101D3C000A449A604DE0FFF785FBB860BA68134619
:101D4C009B0013449A001A447B685B689B00B2FBAF
:101D5C00F3F3234AA2FB03235B091901BA68134668
:101D6C009B0013449A001A447B685B689B00B2FB8F
:101D7C00F3F21B4BA3FB02035B09642000FB03F390
:101D8C00D31A1B013233164AA2FB03235B0903F05F
:101D9C00F0031944BA6813469B0013449A001A4482
:101DAC007B685B689B00B2FBF3F20D4BA3FB020359
:101DBC005B09642000FB03F3D31A1B013233084A7E
:101DCC00A2FB03235B0903F00F027B681B680A4428
:101DDC009A6000BF1037BD4680BD00BF003801407F
:101DEC001F85EB5103460244934200D1704703F820
:101DFC00011BF9E770B500260C4D0D4B5B1B9C10BD
:101E0C00A64209D1002600F019F80A4D0A4B5B1BBB
:101E1C009C10A64205D170BD55F8043B984701367D
:101E2C00EEE755F8043B98470136F2E7941E00089C
:101E3C00941E0008941E0008981E0008F8B500BFF8
:101E4C00F8BC08BC9E467047F8B500BFF8BC08BC8F
:041E5C009E467047E7
:101E600048656C6C6F20776F726C64000203040528
:101E7000060708090A0B0C0D0E0F101000000000D9
:101E8000000000000102030406070809000000002A
:041E90000102030444
:041E94003101000810
:041E98000D01000830
:0C1E9C000024F400100000000100000011
:040000050800055991
:00000001FF
